{
  "_format": "hh-sol-artifact-1",
  "contractName": "ScrutinFactory",
  "sourceName": "contracts/ScrutinFactory.sol",
  "abi": [
    {
      "inputs": [],
      "stateMutability": "nonpayable",
      "type": "constructor"
    },
    {
      "anonymous": false,
      "inputs": [
        {
          "indexed": false,
          "internalType": "address",
          "name": "scrutinAddress",
          "type": "address"
        },
        {
          "indexed": false,
          "internalType": "string",
          "name": "title",
          "type": "string"
        },
        {
          "indexed": false,
          "internalType": "address",
          "name": "owner",
          "type": "address"
        }
      ],
      "name": "ScrutinCreated",
      "type": "event"
    },
    {
      "inputs": [
        {
          "internalType": "string",
          "name": "_title",
          "type": "string"
        },
        {
          "internalType": "string",
          "name": "_description",
          "type": "string"
        },
        {
          "internalType": "string",
          "name": "_scope",
          "type": "string"
        },
        {
          "internalType": "string",
          "name": "_country",
          "type": "string"
        },
        {
          "internalType": "uint256",
          "name": "_startTime",
          "type": "uint256"
        },
        {
          "internalType": "uint256",
          "name": "_endTime",
          "type": "uint256"
        }
      ],
      "name": "createScrutin",
      "outputs": [
        {
          "internalType": "address",
          "name": "",
          "type": "address"
        }
      ],
      "stateMutability": "nonpayable",
      "type": "function"
    },
    {
      "inputs": [
        {
          "internalType": "uint256",
          "name": "",
          "type": "uint256"
        }
      ],
      "name": "deployedScrutins",
      "outputs": [
        {
          "internalType": "address",
          "name": "",
          "type": "address"
        }
      ],
      "stateMutability": "view",
      "type": "function"
    },
    {
      "inputs": [],
      "name": "getDeployedScrutins",
      "outputs": [
        {
          "internalType": "address[]",
          "name": "",
          "type": "address[]"
        }
      ],
      "stateMutability": "view",
      "type": "function"
    },
    {
      "inputs": [],
      "name": "owner",
      "outputs": [
        {
          "internalType": "address",
          "name": "",
          "type": "address"
        }
      ],
      "stateMutability": "view",
      "type": "function"
    }
  ],
  "bytecode": "0x608060405234801561001057600080fd5b5033600160006101000a81548173ffffffffffffffffffffffffffffffffffffffff021916908373ffffffffffffffffffffffffffffffffffffffff1602179055506146c6806100616000396000f3fe60806040523480156200001157600080fd5b5060043610620000525760003560e01c806313ebdf1e146200005757806322e93866146200008d578063403e979614620000af5780638da5cb5b14620000e5575b600080fd5b6200007560048036038101906200006f9190620004ba565b62000107565b60405162000084919062000617565b60405180910390f35b6200009762000205565b604051620000a6919062000702565b60405180910390f35b620000cd6004803603810190620000c7919062000726565b62000295565b604051620000dc919062000617565b60405180910390f35b620000ef620002d5565b604051620000fe919062000617565b60405180910390f35b600080878787878787336040516200011f90620002fb565b620001319796959493929190620007f2565b604051809103906000f0801580156200014e573d6000803e3d6000fd5b50905060008190506000819080600181540180825580915050600190039060005260206000200160009091909190916101000a81548173ffffffffffffffffffffffffffffffffffffffff021916908373ffffffffffffffffffffffffffffffffffffffff1602179055507fb487b858bc18eab61ccbc33aae64dd76fc8f140d0f5ec05cc217cee8912fb341818a33604051620001ee939291906200088b565b60405180910390a180925050509695505050505050565b606060008054806020026020016040519081016040528092919081815260200182805480156200028b57602002820191906000526020600020905b8160009054906101000a900473ffffffffffffffffffffffffffffffffffffffff1673ffffffffffffffffffffffffffffffffffffffff168152602001906001019080831162000240575b5050505050905090565b60008181548110620002a657600080fd5b906000526020600020016000915054906101000a900473ffffffffffffffffffffffffffffffffffffffff1681565b600160009054906101000a900473ffffffffffffffffffffffffffffffffffffffff1681565b613dc180620008d083390190565b6000604051905090565b600080fd5b600080fd5b600080fd5b600080fd5b6000601f19601f8301169050919050565b7f4e487b7100000000000000000000000000000000000000000000000000000000600052604160045260246000fd5b620003728262000327565b810181811067ffffffffffffffff8211171562000394576200039362000338565b5b80604052505050565b6000620003a962000309565b9050620003b7828262000367565b919050565b600067ffffffffffffffff821115620003da57620003d962000338565b5b620003e58262000327565b9050602081019050919050565b82818337600083830152505050565b6000620004186200041284620003bc565b6200039d565b90508281526020810184848401111562000437576200043662000322565b5b62000444848285620003f2565b509392505050565b600082601f8301126200046457620004636200031d565b5b81356200047684826020860162000401565b91505092915050565b6000819050919050565b62000494816200047f565b8114620004a057600080fd5b50565b600081359050620004b48162000489565b92915050565b60008060008060008060c08789031215620004da57620004d962000313565b5b600087013567ffffffffffffffff811115620004fb57620004fa62000318565b5b6200050989828a016200044c565b965050602087013567ffffffffffffffff8111156200052d576200052c62000318565b5b6200053b89828a016200044c565b955050604087013567ffffffffffffffff8111156200055f576200055e62000318565b5b6200056d89828a016200044c565b945050606087013567ffffffffffffffff81111562000591576200059062000318565b5b6200059f89828a016200044c565b9350506080620005b289828a01620004a3565b92505060a0620005c589828a01620004a3565b9150509295509295509295565b600073ffffffffffffffffffffffffffffffffffffffff82169050919050565b6000620005ff82620005d2565b9050919050565b6200061181620005f2565b82525050565b60006020820190506200062e600083018462000606565b92915050565b600081519050919050565b600082825260208201905092915050565b6000819050602082019050919050565b6200066b81620005f2565b82525050565b60006200067f838362000660565b60208301905092915050565b6000602082019050919050565b6000620006a58262000634565b620006b181856200063f565b9350620006be8362000650565b8060005b83811015620006f5578151620006d9888262000671565b9750620006e6836200068b565b925050600181019050620006c2565b5085935050505092915050565b600060208201905081810360008301526200071e818462000698565b905092915050565b6000602082840312156200073f576200073e62000313565b5b60006200074f84828501620004a3565b91505092915050565b600081519050919050565b600082825260208201905092915050565b60005b838110156200079457808201518184015260208101905062000777565b60008484015250505050565b6000620007ad8262000758565b620007b9818562000763565b9350620007cb81856020860162000774565b620007d68162000327565b840191505092915050565b620007ec816200047f565b82525050565b600060e08201905081810360008301526200080e818a620007a0565b90508181036020830152620008248189620007a0565b905081810360408301526200083a8188620007a0565b90508181036060830152620008508187620007a0565b9050620008616080830186620007e1565b6200087060a0830185620007e1565b6200087f60c083018462000606565b98975050505050505050565b6000606082019050620008a2600083018662000606565b8181036020830152620008b68185620007a0565b9050620008c7604083018462000606565b94935050505056fe60806040523480156200001157600080fd5b5060405162003dc138038062003dc183398181016040528101906200003791906200033c565b8660009081620000489190620006ac565b5085600190816200005a9190620006ac565b5084600290816200006c9190620006ac565b5083600390816200007e9190620006ac565b50826004819055508160058190555080600660016101000a81548173ffffffffffffffffffffffffffffffffffffffff021916908373ffffffffffffffffffffffffffffffffffffffff1602179055506000600660006101000a81548160ff02191690836002811115620000f757620000f662000793565b5b021790555050505050505050620007c2565b6000604051905090565b600080fd5b600080fd5b600080fd5b600080fd5b6000601f19601f8301169050919050565b7f4e487b7100000000000000000000000000000000000000000000000000000000600052604160045260246000fd5b620001728262000127565b810181811067ffffffffffffffff8211171562000194576200019362000138565b5b80604052505050565b6000620001a962000109565b9050620001b7828262000167565b919050565b600067ffffffffffffffff821115620001da57620001d962000138565b5b620001e58262000127565b9050602081019050919050565b60005b8381101562000212578082015181840152602081019050620001f5565b60008484015250505050565b6000620002356200022f84620001bc565b6200019d565b90508281526020810184848401111562000254576200025362000122565b5b62000261848285620001f2565b509392505050565b600082601f8301126200028157620002806200011d565b5b8151620002938482602086016200021e565b91505092915050565b6000819050919050565b620002b1816200029c565b8114620002bd57600080fd5b50565b600081519050620002d181620002a6565b92915050565b600073ffffffffffffffffffffffffffffffffffffffff82169050919050565b60006200030482620002d7565b9050919050565b6200031681620002f7565b81146200032257600080fd5b50565b60008151905062000336816200030b565b92915050565b600080600080600080600060e0888a0312156200035e576200035d62000113565b5b600088015167ffffffffffffffff8111156200037f576200037e62000118565b5b6200038d8a828b0162000269565b975050602088015167ffffffffffffffff811115620003b157620003b062000118565b5b620003bf8a828b0162000269565b965050604088015167ffffffffffffffff811115620003e357620003e262000118565b5b620003f18a828b0162000269565b955050606088015167ffffffffffffffff81111562000415576200041462000118565b5b620004238a828b0162000269565b9450506080620004368a828b01620002c0565b93505060a0620004498a828b01620002c0565b92505060c06200045c8a828b0162000325565b91505092959891949750929550565b600081519050919050565b7f4e487b7100000000000000000000000000000000000000000000000000000000600052602260045260246000fd5b60006002820490506001821680620004be57607f821691505b602082108103620004d457620004d362000476565b5b50919050565b60008190508160005260206000209050919050565b60006020601f8301049050919050565b600082821b905092915050565b6000600883026200053e7fffffffffffffffffffffffffffffffffffffffffffffffffffffffffffffffff82620004ff565b6200054a8683620004ff565b95508019841693508086168417925050509392505050565b6000819050919050565b60006200058d6200058762000581846200029c565b62000562565b6200029c565b9050919050565b6000819050919050565b620005a9836200056c565b620005c1620005b88262000594565b8484546200050c565b825550505050565b600090565b620005d8620005c9565b620005e58184846200059e565b505050565b5b818110156200060d5762000601600082620005ce565b600181019050620005eb565b5050565b601f8211156200065c576200062681620004da565b6200063184620004ef565b8101602085101562000641578190505b620006596200065085620004ef565b830182620005ea565b50505b505050565b600082821c905092915050565b6000620006816000198460080262000661565b1980831691505092915050565b60006200069c83836200066e565b9150826002028217905092915050565b620006b7826200046b565b67ffffffffffffffff811115620006d357620006d262000138565b5b620006df8254620004a5565b620006ec82828562000611565b600060209050601f8311600181146200072457600084156200070f578287015190505b6200071b85826200068e565b8655506200078b565b601f1984166200073486620004da565b60005b828110156200075e5784890151825560018201915060208501945060208101905062000737565b868310156200077e57848901516200077a601f8916826200066e565b8355505b6001600288020188555050505b505050505050565b7f4e487b7100000000000000000000000000000000000000000000000000000000600052602160045260246000fd5b6135ef80620007d26000396000f3fe60806040523480156200001157600080fd5b5060043610620000ff5760003560e01c80637284e41611620000995780638da5cb5b116200006f5780638da5cb5b146200022a578063973f3d65146200024c578063d8b0b4991462000282578063dc15f9c214620002a457620000ff565b80637284e41614620001da57806378e9792514620001fc578063805706ba146200021e57620000ff565b80633197cbb611620000db5780633197cbb614620001525780634a79d50c146200017457806361503e4514620001965780636e62d0a814620001b857620000ff565b80623cd550146200010457806305beb80c1462000110578063200d2ed21462000130575b600080fd5b6200010e620002da565b005b6200012e600480360381019062000128919062000e55565b62000464565b005b6200013a6200063f565b60405162000149919062000fa4565b60405180910390f35b6200015c62000652565b6040516200016b919062000fd2565b60405180910390f35b6200017e62000658565b6040516200018d919062001078565b60405180910390f35b620001a0620006ee565b604051620001af91906200116a565b60405180910390f35b620001c26200077e565b604051620001d1919062001078565b60405180910390f35b620001e462000814565b604051620001f3919062001078565b60405180910390f35b62000206620008aa565b60405162000215919062000fd2565b60405180910390f35b62000228620008b0565b005b6200023462000a3a565b6040516200024391906200119f565b60405180910390f35b6200026a6004803603810190620002649190620011bc565b62000a60565b6040516200027991906200119f565b60405180910390f35b6200028c62000aa0565b6040516200029b919062001078565b60405180910390f35b620002c26004803603810190620002bc9190620011ee565b62000b36565b604051620002d191906200123d565b60405180910390f35b600660019054906101000a900473ffffffffffffffffffffffffffffffffffffffff1673ffffffffffffffffffffffffffffffffffffffff163373ffffffffffffffffffffffffffffffffffffffff16146200036d576040517f08c379a00000000000000000000000000000000000000000000000000000000081526004016200036490620012aa565b60405180910390fd5b6001600281111562000384576200038362000f24565b5b600660009054906101000a900460ff166002811115620003a957620003a862000f24565b5b14620003ec576040517f08c379a0000000000000000000000000000000000000000000000000000000008152600401620003e3906200131c565b60405180910390fd5b6002600660006101000a81548160ff0219169083600281111562000415576200041462000f24565b5b02179055507faab0e4ad695ee66d28241f1997bb3650c4a310038aa61d751faa810d59403c2c600660009054906101000a900460ff166040516200045a919062000fa4565b60405180910390a1565b600660019054906101000a900473ffffffffffffffffffffffffffffffffffffffff1673ffffffffffffffffffffffffffffffffffffffff163373ffffffffffffffffffffffffffffffffffffffff1614620004f7576040517f08c379a0000000000000000000000000000000000000000000000000000000008152600401620004ee90620012aa565b60405180910390fd5b600084848484306040516200050c9062000b56565b6200051c9594939291906200133e565b604051809103906000f08015801562000539573d6000803e3d6000fd5b50905060008190506007819080600181540180825580915050600190039060005260206000200160009091909190916101000a81548173ffffffffffffffffffffffffffffffffffffffff021916908373ffffffffffffffffffffffffffffffffffffffff1602179055506001600860008373ffffffffffffffffffffffffffffffffffffffff1673ffffffffffffffffffffffffffffffffffffffff16815260200190815260200160002060006101000a81548160ff0219169083151502179055507fdf31d9cb78d4981aecce2b3df80121e9eeb2d6269e07076efc30e0a2b0263b0b81876040516200062f929190620013b0565b60405180910390a1505050505050565b600660009054906101000a900460ff1681565b60055481565b60008054620006679062001413565b80601f0160208091040260200160405190810160405280929190818152602001828054620006959062001413565b8015620006e65780601f10620006ba57610100808354040283529160200191620006e6565b820191906000526020600020905b815481529060010190602001808311620006c857829003601f168201915b505050505081565b606060078054806020026020016040519081016040528092919081815260200182805480156200077457602002820191906000526020600020905b8160009054906101000a900473ffffffffffffffffffffffffffffffffffffffff1673ffffffffffffffffffffffffffffffffffffffff168152602001906001019080831162000729575b5050505050905090565b600280546200078d9062001413565b80601f0160208091040260200160405190810160405280929190818152602001828054620007bb9062001413565b80156200080c5780601f10620007e0576101008083540402835291602001916200080c565b820191906000526020600020905b815481529060010190602001808311620007ee57829003601f168201915b505050505081565b60018054620008239062001413565b80601f0160208091040260200160405190810160405280929190818152602001828054620008519062001413565b8015620008a25780601f106200087657610100808354040283529160200191620008a2565b820191906000526020600020905b8154815290600101906020018083116200088457829003601f168201915b505050505081565b60045481565b600660019054906101000a900473ffffffffffffffffffffffffffffffffffffffff1673ffffffffffffffffffffffffffffffffffffffff163373ffffffffffffffffffffffffffffffffffffffff161462000943576040517f08c379a00000000000000000000000000000000000000000000000000000000081526004016200093a90620012aa565b60405180910390fd5b600060028111156200095a576200095962000f24565b5b600660009054906101000a900460ff1660028111156200097f576200097e62000f24565b5b14620009c2576040517f08c379a0000000000000000000000000000000000000000000000000000000008152600401620009b99062001498565b60405180910390fd5b6001600660006101000a81548160ff02191690836002811115620009eb57620009ea62000f24565b5b02179055507faab0e4ad695ee66d28241f1997bb3650c4a310038aa61d751faa810d59403c2c600660009054906101000a900460ff1660405162000a30919062000fa4565b60405180910390a1565b600660019054906101000a900473ffffffffffffffffffffffffffffffffffffffff1681565b6007818154811062000a7157600080fd5b906000526020600020016000915054906101000a900473ffffffffffffffffffffffffffffffffffffffff1681565b6003805462000aaf9062001413565b80601f016020809104026020016040519081016040528092919081815260200182805462000add9062001413565b801562000b2e5780601f1062000b025761010080835404028352916020019162000b2e565b820191906000526020600020905b81548152906001019060200180831162000b1057829003601f168201915b505050505081565b60086020528060005260406000206000915054906101000a900460ff1681565b6120ff80620014bb83390190565b6000604051905090565b600080fd5b600080fd5b600080fd5b600080fd5b6000601f19601f8301169050919050565b7f4e487b7100000000000000000000000000000000000000000000000000000000600052604160045260246000fd5b62000bcd8262000b82565b810181811067ffffffffffffffff8211171562000bef5762000bee62000b93565b5b80604052505050565b600062000c0462000b64565b905062000c12828262000bc2565b919050565b600067ffffffffffffffff82111562000c355762000c3462000b93565b5b62000c408262000b82565b9050602081019050919050565b82818337600083830152505050565b600062000c7362000c6d8462000c17565b62000bf8565b90508281526020810184848401111562000c925762000c9162000b7d565b5b62000c9f84828562000c4d565b509392505050565b600082601f83011262000cbf5762000cbe62000b78565b5b813562000cd184826020860162000c5c565b91505092915050565b6000819050919050565b62000cef8162000cda565b811462000cfb57600080fd5b50565b60008135905062000d0f8162000ce4565b92915050565b600067ffffffffffffffff82111562000d335762000d3262000b93565b5b602082029050602081019050919050565b600080fd5b600073ffffffffffffffffffffffffffffffffffffffff82169050919050565b600062000d768262000d49565b9050919050565b62000d888162000d69565b811462000d9457600080fd5b50565b60008135905062000da88162000d7d565b92915050565b600062000dc562000dbf8462000d15565b62000bf8565b9050808382526020820190506020840283018581111562000deb5762000dea62000d44565b5b835b8181101562000e18578062000e03888262000d97565b84526020840193505060208101905062000ded565b5050509392505050565b600082601f83011262000e3a5762000e3962000b78565b5b813562000e4c84826020860162000dae565b91505092915050565b6000806000806080858703121562000e725762000e7162000b6e565b5b600085013567ffffffffffffffff81111562000e935762000e9262000b73565b5b62000ea18782880162000ca7565b945050602085013567ffffffffffffffff81111562000ec55762000ec462000b73565b5b62000ed38782880162000ca7565b935050604062000ee68782880162000cfe565b925050606085013567ffffffffffffffff81111562000f0a5762000f0962000b73565b5b62000f188782880162000e22565b91505092959194509250565b7f4e487b7100000000000000000000000000000000000000000000000000000000600052602160045260246000fd5b6003811062000f675762000f6662000f24565b5b50565b600081905062000f7a8262000f53565b919050565b600062000f8c8262000f6a565b9050919050565b62000f9e8162000f7f565b82525050565b600060208201905062000fbb600083018462000f93565b92915050565b62000fcc8162000cda565b82525050565b600060208201905062000fe9600083018462000fc1565b92915050565b600081519050919050565b600082825260208201905092915050565b60005b838110156200102b5780820151818401526020810190506200100e565b60008484015250505050565b6000620010448262000fef565b62001050818562000ffa565b9350620010628185602086016200100b565b6200106d8162000b82565b840191505092915050565b6000602082019050818103600083015262001094818462001037565b905092915050565b600081519050919050565b600082825260208201905092915050565b6000819050602082019050919050565b620010d38162000d69565b82525050565b6000620010e78383620010c8565b60208301905092915050565b6000602082019050919050565b60006200110d826200109c565b620011198185620010a7565b93506200112683620010b8565b8060005b838110156200115d578151620011418882620010d9565b97506200114e83620010f3565b9250506001810190506200112a565b5085935050505092915050565b6000602082019050818103600083015262001186818462001100565b905092915050565b620011998162000d69565b82525050565b6000602082019050620011b660008301846200118e565b92915050565b600060208284031215620011d557620011d462000b6e565b5b6000620011e58482850162000cfe565b91505092915050565b60006020828403121562001207576200120662000b6e565b5b6000620012178482850162000d97565b91505092915050565b60008115159050919050565b620012378162001220565b82525050565b60006020820190506200125460008301846200122c565b92915050565b7f4e6f74206f776e65720000000000000000000000000000000000000000000000600082015250565b60006200129260098362000ffa565b91506200129f826200125a565b602082019050919050565b60006020820190508181036000830152620012c58162001283565b9050919050565b7f4e6f742061637469766500000000000000000000000000000000000000000000600082015250565b600062001304600a8362000ffa565b91506200131182620012cc565b602082019050919050565b600060208201905081810360008301526200133781620012f5565b9050919050565b600060a08201905081810360008301526200135a818862001037565b9050818103602083015262001370818762001037565b905062001381604083018662000fc1565b818103606083015262001395818562001100565b9050620013a660808301846200118e565b9695505050505050565b6000604082019050620013c760008301856200118e565b8181036020830152620013db818462001037565b90509392505050565b7f4e487b7100000000000000000000000000000000000000000000000000000000600052602260045260246000fd5b600060028204905060018216806200142c57607f821691505b602082108103620014425762001441620013e4565b5b50919050565b7f416c72656164792073746172746564206f7220636c6f73656400000000000000600082015250565b60006200148060198362000ffa565b91506200148d8262001448565b602082019050919050565b60006020820190508181036000830152620014b38162001471565b905091905056fe60806040523480156200001157600080fd5b50604051620020ff380380620020ff83398181016040528101906200003791906200051c565b846000908162000048919062000842565b5083600190816200005a919062000842565b508260028190555080600360006101000a81548173ffffffffffffffffffffffffffffffffffffffff021916908373ffffffffffffffffffffffffffffffffffffffff1602179055508160049080519060200190620000bb92919062000160565b5060005b82518110156200015457600160066000858481518110620000e557620000e462000929565b5b602002602001015173ffffffffffffffffffffffffffffffffffffffff1673ffffffffffffffffffffffffffffffffffffffff16815260200190815260200160002060006101000a81548160ff02191690831515021790555080806200014b9062000987565b915050620000bf565b505050505050620009d4565b828054828255906000526020600020908101928215620001dc579160200282015b82811115620001db5782518260006101000a81548173ffffffffffffffffffffffffffffffffffffffff021916908373ffffffffffffffffffffffffffffffffffffffff1602179055509160200191906001019062000181565b5b509050620001eb9190620001ef565b5090565b5b808211156200020a576000816000905550600101620001f0565b5090565b6000604051905090565b600080fd5b600080fd5b600080fd5b600080fd5b6000601f19601f8301169050919050565b7f4e487b7100000000000000000000000000000000000000000000000000000000600052604160045260246000fd5b62000277826200022c565b810181811067ffffffffffffffff821117156200029957620002986200023d565b5b80604052505050565b6000620002ae6200020e565b9050620002bc82826200026c565b919050565b600067ffffffffffffffff821115620002df57620002de6200023d565b5b620002ea826200022c565b9050602081019050919050565b60005b8381101562000317578082015181840152602081019050620002fa565b60008484015250505050565b60006200033a6200033484620002c1565b620002a2565b90508281526020810184848401111562000359576200035862000227565b5b62000366848285620002f7565b509392505050565b600082601f83011262000386576200038562000222565b5b81516200039884826020860162000323565b91505092915050565b6000819050919050565b620003b681620003a1565b8114620003c257600080fd5b50565b600081519050620003d681620003ab565b92915050565b600067ffffffffffffffff821115620003fa57620003f96200023d565b5b602082029050602081019050919050565b600080fd5b600073ffffffffffffffffffffffffffffffffffffffff82169050919050565b60006200043d8262000410565b9050919050565b6200044f8162000430565b81146200045b57600080fd5b50565b6000815190506200046f8162000444565b92915050565b60006200048c6200048684620003dc565b620002a2565b90508083825260208201905060208402830185811115620004b257620004b16200040b565b5b835b81811015620004df5780620004ca88826200045e565b845260208401935050602081019050620004b4565b5050509392505050565b600082601f83011262000501576200050062000222565b5b81516200051384826020860162000475565b91505092915050565b600080600080600060a086880312156200053b576200053a62000218565b5b600086015167ffffffffffffffff8111156200055c576200055b6200021d565b5b6200056a888289016200036e565b955050602086015167ffffffffffffffff8111156200058e576200058d6200021d565b5b6200059c888289016200036e565b9450506040620005af88828901620003c5565b935050606086015167ffffffffffffffff811115620005d357620005d26200021d565b5b620005e188828901620004e9565b9250506080620005f4888289016200045e565b9150509295509295909350565b600081519050919050565b7f4e487b7100000000000000000000000000000000000000000000000000000000600052602260045260246000fd5b600060028204905060018216806200065457607f821691505b6020821081036200066a57620006696200060c565b5b50919050565b60008190508160005260206000209050919050565b60006020601f8301049050919050565b600082821b905092915050565b600060088302620006d47fffffffffffffffffffffffffffffffffffffffffffffffffffffffffffffffff8262000695565b620006e0868362000695565b95508019841693508086168417925050509392505050565b6000819050919050565b6000620007236200071d6200071784620003a1565b620006f8565b620003a1565b9050919050565b6000819050919050565b6200073f8362000702565b620007576200074e826200072a565b848454620006a2565b825550505050565b600090565b6200076e6200075f565b6200077b81848462000734565b505050565b5b81811015620007a3576200079760008262000764565b60018101905062000781565b5050565b601f821115620007f257620007bc8162000670565b620007c78462000685565b81016020851015620007d7578190505b620007ef620007e68562000685565b83018262000780565b50505b505050565b600082821c905092915050565b60006200081760001984600802620007f7565b1980831691505092915050565b600062000832838362000804565b9150826002028217905092915050565b6200084d8262000601565b67ffffffffffffffff8111156200086957620008686200023d565b5b6200087582546200063b565b62000882828285620007a7565b600060209050601f831160018114620008ba5760008415620008a5578287015190505b620008b1858262000824565b86555062000921565b601f198416620008ca8662000670565b60005b82811015620008f457848901518255600182019150602085019450602081019050620008cd565b8683101562000914578489015162000910601f89168262000804565b8355505b6001600288020188555050505b505050505050565b7f4e487b7100000000000000000000000000000000000000000000000000000000600052603260045260246000fd5b7f4e487b7100000000000000000000000000000000000000000000000000000000600052601160045260246000fd5b60006200099482620003a1565b91507fffffffffffffffffffffffffffffffffffffffffffffffffffffffffffffffff8203620009c957620009c862000958565b5b600182019050919050565b61171b80620009e46000396000f3fe608060405234801561001057600080fd5b506004361061010b5760003560e01c80636901f668116100a2578063bd842a1111610071578063bd842a1114610285578063cc2ee196146102b5578063e313d528146102d3578063edc550dc146102f1578063fa6f39361461030d5761010b565b80636901f668146102235780637284e4161461022d57806375a12d721461024b578063a6bd5427146102675761010b565b8063414eb814116100de578063414eb814146101ab57806342169e48146101c95780634a79d50c146101e757806353957834146102055761010b565b80630846c0ee146101105780631b4613cb1461012c57806331474a5e1461015c578063409e22051461017a575b600080fd5b61012a60048036038101906101259190610cda565b61033d565b005b61014660048036038101906101419190610d59565b61044b565b6040516101539190610da1565b60405180910390f35b61016461046b565b6040516101719190610da1565b60405180910390f35b610194600480360381019061018f9190610df2565b61047e565b6040516101a2929190610ead565b60405180910390f35b6101b361053a565b6040516101c09190610da1565b60405180910390f35b6101d161054d565b6040516101de9190610edd565b60405180910390f35b6101ef610553565b6040516101fc9190610ef8565b60405180910390f35b61020d6105e1565b60405161021a9190610ef8565b60405180910390f35b61022b61066f565b005b61023561076a565b6040516102429190610ef8565b60405180910390f35b61026560048036038101906102609190610f1a565b6107f8565b005b61026f610943565b60405161027c9190610edd565b60405180910390f35b61029f600480360381019061029a9190610df2565b610950565b6040516102ac9190610f9b565b60405180910390f35b6102bd61098f565b6040516102ca919061110e565b60405180910390f35b6102db610a8a565b6040516102e89190610f9b565b60405180910390f35b61030b60048036038101906103069190610cda565b610ab0565b005b6103276004803603810190610322919061115c565b610b60565b6040516103349190610da1565b60405180910390f35b600660003373ffffffffffffffffffffffffffffffffffffffff1673ffffffffffffffffffffffffffffffffffffffff16815260200190815260200160002060009054906101000a900460ff166103c9576040517f08c379a00000000000000000000000000000000000000000000000000000000081526004016103c0906111d5565b60405180910390fd5b6001600860016101000a81548160ff0219169083151502179055506000600860006101000a81548160ff021916908315150217905550806009908161040e9190611401565b507f4a2e5beac6211f436f7d572c38e5ae1fa41d253289919ea7d457db00599a867e33826040516104409291906114d3565b60405180910390a150565b60076020528060005260406000206000915054906101000a900460ff1681565b600860019054906101000a900460ff1681565b6005818154811061048e57600080fd5b90600052602060002090600202016000915090508060000180546104b190611224565b80601f01602080910402602001604051908101604052809291908181526020018280546104dd90611224565b801561052a5780601f106104ff5761010080835404028352916020019161052a565b820191906000526020600020905b81548152906001019060200180831161050d57829003601f168201915b5050505050908060010154905082565b600860009054906101000a900460ff1681565b60025481565b6000805461056090611224565b80601f016020809104026020016040519081016040528092919081815260200182805461058c90611224565b80156105d95780601f106105ae576101008083540402835291602001916105d9565b820191906000526020600020905b8154815290600101906020018083116105bc57829003601f168201915b505050505081565b600980546105ee90611224565b80601f016020809104026020016040519081016040528092919081815260200182805461061a90611224565b80156106675780601f1061063c57610100808354040283529160200191610667565b820191906000526020600020905b81548152906001019060200180831161064a57829003601f168201915b505050505081565b600660003373ffffffffffffffffffffffffffffffffffffffff1673ffffffffffffffffffffffffffffffffffffffff16815260200190815260200160002060009054906101000a900460ff166106fb576040517f08c379a00000000000000000000000000000000000000000000000000000000081526004016106f2906111d5565b60405180910390fd5b6001600860006101000a81548160ff0219169083151502179055506000600860016101000a81548160ff0219169083151502179055507f8ee9fee1e8cd233411b47b9fc980029befbfd3a2ed4ae8179d4adbfb11d24c0e336040516107609190610f9b565b60405180910390a1565b6001805461077790611224565b80601f01602080910402602001604051908101604052809291908181526020018280546107a390611224565b80156107f05780601f106107c5576101008083540402835291602001916107f0565b820191906000526020600020905b8154815290600101906020018083116107d357829003601f168201915b505050505081565b6007600083815260200190815260200160002060009054906101000a900460ff1615610859576040517f08c379a00000000000000000000000000000000000000000000000000000000081526004016108509061154f565b60405180910390fd5b60058054905081106108a0576040517f08c379a0000000000000000000000000000000000000000000000000000000008152600401610897906115bb565b60405180910390fd5b600581815481106108b4576108b36115db565b5b906000526020600020906002020160010160008154809291906108d690611639565b919050555060016007600084815260200190815260200160002060006101000a81548160ff021916908315150217905550817fd10f6697fe785cf6ab300b0a28e7b2403b8742966ec5535806af5b24613611a4826040516109379190610edd565b60405180910390a25050565b6000600580549050905090565b6004818154811061096057600080fd5b906000526020600020016000915054906101000a900473ffffffffffffffffffffffffffffffffffffffff1681565b60606005805480602002602001604051908101604052809291908181526020016000905b82821015610a8157838290600052602060002090600202016040518060400160405290816000820180546109e690611224565b80601f0160208091040260200160405190810160405280929190818152602001828054610a1290611224565b8015610a5f5780601f10610a3457610100808354040283529160200191610a5f565b820191906000526020600020905b815481529060010190602001808311610a4257829003601f168201915b50505050508152602001600182015481525050815260200190600101906109b3565b50505050905090565b600360009054906101000a900473ffffffffffffffffffffffffffffffffffffffff1681565b60056040518060400160405280838152602001600081525090806001815401808255809150506001900390600052602060002090600202016000909190919091506000820151816000019081610b069190611401565b506020820151816001015550507f17d54b10d2f5efe6c5653d2c3f373803d477ce9962212280331f14843d8983fb6001600580549050610b469190611681565b82604051610b559291906116b5565b60405180910390a150565b60066020528060005260406000206000915054906101000a900460ff1681565b6000604051905090565b600080fd5b600080fd5b600080fd5b600080fd5b6000601f19601f8301169050919050565b7f4e487b7100000000000000000000000000000000000000000000000000000000600052604160045260246000fd5b610be782610b9e565b810181811067ffffffffffffffff82111715610c0657610c05610baf565b5b80604052505050565b6000610c19610b80565b9050610c258282610bde565b919050565b600067ffffffffffffffff821115610c4557610c44610baf565b5b610c4e82610b9e565b9050602081019050919050565b82818337600083830152505050565b6000610c7d610c7884610c2a565b610c0f565b905082815260208101848484011115610c9957610c98610b99565b5b610ca4848285610c5b565b509392505050565b600082601f830112610cc157610cc0610b94565b5b8135610cd1848260208601610c6a565b91505092915050565b600060208284031215610cf057610cef610b8a565b5b600082013567ffffffffffffffff811115610d0e57610d0d610b8f565b5b610d1a84828501610cac565b91505092915050565b6000819050919050565b610d3681610d23565b8114610d4157600080fd5b50565b600081359050610d5381610d2d565b92915050565b600060208284031215610d6f57610d6e610b8a565b5b6000610d7d84828501610d44565b91505092915050565b60008115159050919050565b610d9b81610d86565b82525050565b6000602082019050610db66000830184610d92565b92915050565b6000819050919050565b610dcf81610dbc565b8114610dda57600080fd5b50565b600081359050610dec81610dc6565b92915050565b600060208284031215610e0857610e07610b8a565b5b6000610e1684828501610ddd565b91505092915050565b600081519050919050565b600082825260208201905092915050565b60005b83811015610e59578082015181840152602081019050610e3e565b60008484015250505050565b6000610e7082610e1f565b610e7a8185610e2a565b9350610e8a818560208601610e3b565b610e9381610b9e565b840191505092915050565b610ea781610dbc565b82525050565b60006040820190508181036000830152610ec78185610e65565b9050610ed66020830184610e9e565b9392505050565b6000602082019050610ef26000830184610e9e565b92915050565b60006020820190508181036000830152610f128184610e65565b905092915050565b60008060408385031215610f3157610f30610b8a565b5b6000610f3f85828601610d44565b9250506020610f5085828601610ddd565b9150509250929050565b600073ffffffffffffffffffffffffffffffffffffffff82169050919050565b6000610f8582610f5a565b9050919050565b610f9581610f7a565b82525050565b6000602082019050610fb06000830184610f8c565b92915050565b600081519050919050565b600082825260208201905092915050565b6000819050602082019050919050565b600082825260208201905092915050565b6000610ffe82610e1f565b6110088185610fe2565b9350611018818560208601610e3b565b61102181610b9e565b840191505092915050565b61103581610dbc565b82525050565b600060408301600083015184820360008601526110588282610ff3565b915050602083015161106d602086018261102c565b508091505092915050565b6000611084838361103b565b905092915050565b6000602082019050919050565b60006110a482610fb6565b6110ae8185610fc1565b9350836020820285016110c085610fd2565b8060005b858110156110fc57848403895281516110dd8582611078565b94506110e88361108c565b925060208a019950506001810190506110c4565b50829750879550505050505092915050565b600060208201905081810360008301526111288184611099565b905092915050565b61113981610f7a565b811461114457600080fd5b50565b60008135905061115681611130565b92915050565b60006020828403121561117257611171610b8a565b5b600061118084828501611147565b91505092915050565b7f4e6f74206d6f64657261746f7200000000000000000000000000000000000000600082015250565b60006111bf600d83610e2a565b91506111ca82611189565b602082019050919050565b600060208201905081810360008301526111ee816111b2565b9050919050565b7f4e487b7100000000000000000000000000000000000000000000000000000000600052602260045260246000fd5b6000600282049050600182168061123c57607f821691505b60208210810361124f5761124e6111f5565b5b50919050565b60008190508160005260206000209050919050565b60006020601f8301049050919050565b600082821b905092915050565b6000600883026112b77fffffffffffffffffffffffffffffffffffffffffffffffffffffffffffffffff8261127a565b6112c1868361127a565b95508019841693508086168417925050509392505050565b6000819050919050565b60006112fe6112f96112f484610dbc565b6112d9565b610dbc565b9050919050565b6000819050919050565b611318836112e3565b61132c61132482611305565b848454611287565b825550505050565b600090565b611341611334565b61134c81848461130f565b505050565b5b8181101561137057611365600082611339565b600181019050611352565b5050565b601f8211156113b55761138681611255565b61138f8461126a565b8101602085101561139e578190505b6113b26113aa8561126a565b830182611351565b50505b505050565b600082821c905092915050565b60006113d8600019846008026113ba565b1980831691505092915050565b60006113f183836113c7565b9150826002028217905092915050565b61140a82610e1f565b67ffffffffffffffff81111561142357611422610baf565b5b61142d8254611224565b611438828285611374565b600060209050601f83116001811461146b5760008415611459578287015190505b61146385826113e5565b8655506114cb565b601f19841661147986611255565b60005b828110156114a15784890151825560018201915060208501945060208101905061147c565b868310156114be57848901516114ba601f8916826113c7565b8355505b6001600288020188555050505b505050505050565b60006040820190506114e86000830185610f8c565b81810360208301526114fa8184610e65565b90509392505050565b7f416c726561647920766f74656400000000000000000000000000000000000000600082015250565b6000611539600d83610e2a565b915061154482611503565b602082019050919050565b600060208201905081810360008301526115688161152c565b9050919050565b7f496e76616c6964206f7074696f6e000000000000000000000000000000000000600082015250565b60006115a5600e83610e2a565b91506115b08261156f565b602082019050919050565b600060208201905081810360008301526115d481611598565b9050919050565b7f4e487b7100000000000000000000000000000000000000000000000000000000600052603260045260246000fd5b7f4e487b7100000000000000000000000000000000000000000000000000000000600052601160045260246000fd5b600061164482610dbc565b91507fffffffffffffffffffffffffffffffffffffffffffffffffffffffffffffffff82036116765761167561160a565b5b600182019050919050565b600061168c82610dbc565b915061169783610dbc565b92508282039050818111156116af576116ae61160a565b5b92915050565b60006040820190506116ca6000830185610e9e565b81810360208301526116dc8184610e65565b9050939250505056fea2646970667358221220c4b67acb62df2580975d4c059881df545c18bce174c77ad854be81997074cf2f64736f6c63430008140033a2646970667358221220f749ec86f47f24d924e4b52693daa717b40f2b8abb0efc11e2350b8cd51be1df64736f6c63430008140033a2646970667358221220e86d3608894eeb93f101f5de73eaf08ebdd9196850ece583ad8e7112a88b118264736f6c63430008140033",
  "linkReferences": {},
  "deployedLinkReferences": {}
}