{"contracts/Scrutin.sol":{"Scrutin":{"abi":[{"inputs":[{"internalType":"string","name":"_title","type":"string"},{"internalType":"string","name":"_description","type":"string"},{"internalType":"string","name":"_scope","type":"string"},{"internalType":"string","name":"_country","type":"string"},{"internalType":"uint256","name":"_startTime","type":"uint256"},{"internalType":"uint256","name":"_endTime","type":"uint256"},{"internalType":"address","name":"_owner","type":"address"}],"stateMutability":"nonpayable","type":"constructor"},{"anonymous":false,"inputs":[{"indexed":false,"internalType":"enum Scrutin.Status","name":"newStatus","type":"uint8"}],"name":"ScrutinStatusChanged","type":"event"},{"anonymous":false,"inputs":[{"indexed":false,"internalType":"address","name":"sessionAddress","type":"address"},{"indexed":false,"internalType":"string","name":"title","type":"string"}],"name":"SessionAdded","type":"event"},{"inputs":[{"internalType":"string","name":"_sessionTitle","type":"string"},{"internalType":"string","name":"_sessionDescription","type":"string"},{"internalType":"uint256","name":"_voterCount","type":"uint256"},{"internalType":"address[]","name":"_moderators","type":"address[]"}],"name":"addVoteSession","outputs":[],"stateMutability":"nonpayable","type":"function"},{"inputs":[],"name":"closeScrutin","outputs":[],"stateMutability":"nonpayable","type":"function"},{"inputs":[],"name":"country","outputs":[{"internalType":"string","name":"","type":"string"}],"stateMutability":"view","type":"function"},{"inputs":[],"name":"description","outputs":[{"internalType":"string","name":"","type":"string"}],"stateMutability":"view","type":"function"},{"inputs":[],"name":"endTime","outputs":[{"internalType":"uint256","name":"","type":"uint256"}],"stateMutability":"view","type":"function"},{"inputs":[],"name":"getSessions","outputs":[{"internalType":"address[]","name":"","type":"address[]"}],"stateMutability":"view","type":"function"},{"inputs":[{"internalType":"address","name":"","type":"address"}],"name":"isSession","outputs":[{"internalType":"bool","name":"","type":"bool"}],"stateMutability":"view","type":"function"},{"inputs":[],"name":"owner","outputs":[{"internalType":"address","name":"","type":"address"}],"stateMutability":"view","type":"function"},{"inputs":[],"name":"scope","outputs":[{"internalType":"string","name":"","type":"string"}],"stateMutability":"view","type":"function"},{"inputs":[{"internalType":"uint256","name":"","type":"uint256"}],"name":"sessionAddresses","outputs":[{"internalType":"address","name":"","type":"address"}],"stateMutability":"view","type":"function"},{"inputs":[],"name":"startScrutin","outputs":[],"stateMutability":"nonpayable","type":"function"},{"inputs":[],"name":"startTime","outputs":[{"internalType":"uint256","name":"","type":"uint256"}],"stateMutability":"view","type":"function"},{"inputs":[],"name":"status","outputs":[{"internalType":"enum Scrutin.Status","name":"","type":"uint8"}],"stateMutability":"view","type":"function"},{"inputs":[],"name":"title","outputs":[{"internalType":"string","name":"","type":"string"}],"stateMutability":"view","type":"function"}],"evm":{"bytecode":{"linkReferences":{},"object":"60806040523480156200001157600080fd5b5060405162003dc138038062003dc183398181016040528101906200003791906200033c565b8660009081620000489190620006ac565b5085600190816200005a9190620006ac565b5084600290816200006c9190620006ac565b5083600390816200007e9190620006ac565b50826004819055508160058190555080600660016101000a81548173ffffffffffffffffffffffffffffffffffffffff021916908373ffffffffffffffffffffffffffffffffffffffff1602179055506000600660006101000a81548160ff02191690836002811115620000f757620000f662000793565b5b021790555050505050505050620007c2565b6000604051905090565b600080fd5b600080fd5b600080fd5b600080fd5b6000601f19601f8301169050919050565b7f4e487b7100000000000000000000000000000000000000000000000000000000600052604160045260246000fd5b620001728262000127565b810181811067ffffffffffffffff8211171562000194576200019362000138565b5b80604052505050565b6000620001a962000109565b9050620001b7828262000167565b919050565b600067ffffffffffffffff821115620001da57620001d962000138565b5b620001e58262000127565b9050602081019050919050565b60005b8381101562000212578082015181840152602081019050620001f5565b60008484015250505050565b6000620002356200022f84620001bc565b6200019d565b90508281526020810184848401111562000254576200025362000122565b5b62000261848285620001f2565b509392505050565b600082601f8301126200028157620002806200011d565b5b8151620002938482602086016200021e565b91505092915050565b6000819050919050565b620002b1816200029c565b8114620002bd57600080fd5b50565b600081519050620002d181620002a6565b92915050565b600073ffffffffffffffffffffffffffffffffffffffff82169050919050565b60006200030482620002d7565b9050919050565b6200031681620002f7565b81146200032257600080fd5b50565b60008151905062000336816200030b565b92915050565b600080600080600080600060e0888a0312156200035e576200035d62000113565b5b600088015167ffffffffffffffff8111156200037f576200037e62000118565b5b6200038d8a828b0162000269565b975050602088015167ffffffffffffffff811115620003b157620003b062000118565b5b620003bf8a828b0162000269565b965050604088015167ffffffffffffffff811115620003e357620003e262000118565b5b620003f18a828b0162000269565b955050606088015167ffffffffffffffff81111562000415576200041462000118565b5b620004238a828b0162000269565b9450506080620004368a828b01620002c0565b93505060a0620004498a828b01620002c0565b92505060c06200045c8a828b0162000325565b91505092959891949750929550565b600081519050919050565b7f4e487b7100000000000000000000000000000000000000000000000000000000600052602260045260246000fd5b60006002820490506001821680620004be57607f821691505b602082108103620004d457620004d362000476565b5b50919050565b60008190508160005260206000209050919050565b60006020601f8301049050919050565b600082821b905092915050565b6000600883026200053e7fffffffffffffffffffffffffffffffffffffffffffffffffffffffffffffffff82620004ff565b6200054a8683620004ff565b95508019841693508086168417925050509392505050565b6000819050919050565b60006200058d6200058762000581846200029c565b62000562565b6200029c565b9050919050565b6000819050919050565b620005a9836200056c565b620005c1620005b88262000594565b8484546200050c565b825550505050565b600090565b620005d8620005c9565b620005e58184846200059e565b505050565b5b818110156200060d5762000601600082620005ce565b600181019050620005eb565b5050565b601f8211156200065c576200062681620004da565b6200063184620004ef565b8101602085101562000641578190505b620006596200065085620004ef565b830182620005ea565b50505b505050565b600082821c905092915050565b6000620006816000198460080262000661565b1980831691505092915050565b60006200069c83836200066e565b9150826002028217905092915050565b620006b7826200046b565b67ffffffffffffffff811115620006d357620006d262000138565b5b620006df8254620004a5565b620006ec82828562000611565b600060209050601f8311600181146200072457600084156200070f578287015190505b6200071b85826200068e565b8655506200078b565b601f1984166200073486620004da565b60005b828110156200075e5784890151825560018201915060208501945060208101905062000737565b868310156200077e57848901516200077a601f8916826200066e565b8355505b6001600288020188555050505b505050505050565b7f4e487b7100000000000000000000000000000000000000000000000000000000600052602160045260246000fd5b6135ef80620007d26000396000f3fe60806040523480156200001157600080fd5b5060043610620000ff5760003560e01c80637284e41611620000995780638da5cb5b116200006f5780638da5cb5b146200022a578063973f3d65146200024c578063d8b0b4991462000282578063dc15f9c214620002a457620000ff565b80637284e41614620001da57806378e9792514620001fc578063805706ba146200021e57620000ff565b80633197cbb611620000db5780633197cbb614620001525780634a79d50c146200017457806361503e4514620001965780636e62d0a814620001b857620000ff565b80623cd550146200010457806305beb80c1462000110578063200d2ed21462000130575b600080fd5b6200010e620002da565b005b6200012e600480360381019062000128919062000e55565b62000464565b005b6200013a6200063f565b60405162000149919062000fa4565b60405180910390f35b6200015c62000652565b6040516200016b919062000fd2565b60405180910390f35b6200017e62000658565b6040516200018d919062001078565b60405180910390f35b620001a0620006ee565b604051620001af91906200116a565b60405180910390f35b620001c26200077e565b604051620001d1919062001078565b60405180910390f35b620001e462000814565b604051620001f3919062001078565b60405180910390f35b62000206620008aa565b60405162000215919062000fd2565b60405180910390f35b62000228620008b0565b005b6200023462000a3a565b6040516200024391906200119f565b60405180910390f35b6200026a6004803603810190620002649190620011bc565b62000a60565b6040516200027991906200119f565b60405180910390f35b6200028c62000aa0565b6040516200029b919062001078565b60405180910390f35b620002c26004803603810190620002bc9190620011ee565b62000b36565b604051620002d191906200123d565b60405180910390f35b600660019054906101000a900473ffffffffffffffffffffffffffffffffffffffff1673ffffffffffffffffffffffffffffffffffffffff163373ffffffffffffffffffffffffffffffffffffffff16146200036d576040517f08c379a00000000000000000000000000000000000000000000000000000000081526004016200036490620012aa565b60405180910390fd5b6001600281111562000384576200038362000f24565b5b600660009054906101000a900460ff166002811115620003a957620003a862000f24565b5b14620003ec576040517f08c379a0000000000000000000000000000000000000000000000000000000008152600401620003e3906200131c565b60405180910390fd5b6002600660006101000a81548160ff0219169083600281111562000415576200041462000f24565b5b02179055507faab0e4ad695ee66d28241f1997bb3650c4a310038aa61d751faa810d59403c2c600660009054906101000a900460ff166040516200045a919062000fa4565b60405180910390a1565b600660019054906101000a900473ffffffffffffffffffffffffffffffffffffffff1673ffffffffffffffffffffffffffffffffffffffff163373ffffffffffffffffffffffffffffffffffffffff1614620004f7576040517f08c379a0000000000000000000000000000000000000000000000000000000008152600401620004ee90620012aa565b60405180910390fd5b600084848484306040516200050c9062000b56565b6200051c9594939291906200133e565b604051809103906000f08015801562000539573d6000803e3d6000fd5b50905060008190506007819080600181540180825580915050600190039060005260206000200160009091909190916101000a81548173ffffffffffffffffffffffffffffffffffffffff021916908373ffffffffffffffffffffffffffffffffffffffff1602179055506001600860008373ffffffffffffffffffffffffffffffffffffffff1673ffffffffffffffffffffffffffffffffffffffff16815260200190815260200160002060006101000a81548160ff0219169083151502179055507fdf31d9cb78d4981aecce2b3df80121e9eeb2d6269e07076efc30e0a2b0263b0b81876040516200062f929190620013b0565b60405180910390a1505050505050565b600660009054906101000a900460ff1681565b60055481565b60008054620006679062001413565b80601f0160208091040260200160405190810160405280929190818152602001828054620006959062001413565b8015620006e65780601f10620006ba57610100808354040283529160200191620006e6565b820191906000526020600020905b815481529060010190602001808311620006c857829003601f168201915b505050505081565b606060078054806020026020016040519081016040528092919081815260200182805480156200077457602002820191906000526020600020905b8160009054906101000a900473ffffffffffffffffffffffffffffffffffffffff1673ffffffffffffffffffffffffffffffffffffffff168152602001906001019080831162000729575b5050505050905090565b600280546200078d9062001413565b80601f0160208091040260200160405190810160405280929190818152602001828054620007bb9062001413565b80156200080c5780601f10620007e0576101008083540402835291602001916200080c565b820191906000526020600020905b815481529060010190602001808311620007ee57829003601f168201915b505050505081565b60018054620008239062001413565b80601f0160208091040260200160405190810160405280929190818152602001828054620008519062001413565b8015620008a25780601f106200087657610100808354040283529160200191620008a2565b820191906000526020600020905b8154815290600101906020018083116200088457829003601f168201915b505050505081565b60045481565b600660019054906101000a900473ffffffffffffffffffffffffffffffffffffffff1673ffffffffffffffffffffffffffffffffffffffff163373ffffffffffffffffffffffffffffffffffffffff161462000943576040517f08c379a00000000000000000000000000000000000000000000000000000000081526004016200093a90620012aa565b60405180910390fd5b600060028111156200095a576200095962000f24565b5b600660009054906101000a900460ff1660028111156200097f576200097e62000f24565b5b14620009c2576040517f08c379a0000000000000000000000000000000000000000000000000000000008152600401620009b99062001498565b60405180910390fd5b6001600660006101000a81548160ff02191690836002811115620009eb57620009ea62000f24565b5b02179055507faab0e4ad695ee66d28241f1997bb3650c4a310038aa61d751faa810d59403c2c600660009054906101000a900460ff1660405162000a30919062000fa4565b60405180910390a1565b600660019054906101000a900473ffffffffffffffffffffffffffffffffffffffff1681565b6007818154811062000a7157600080fd5b906000526020600020016000915054906101000a900473ffffffffffffffffffffffffffffffffffffffff1681565b6003805462000aaf9062001413565b80601f016020809104026020016040519081016040528092919081815260200182805462000add9062001413565b801562000b2e5780601f1062000b025761010080835404028352916020019162000b2e565b820191906000526020600020905b81548152906001019060200180831162000b1057829003601f168201915b505050505081565b60086020528060005260406000206000915054906101000a900460ff1681565b6120ff80620014bb83390190565b6000604051905090565b600080fd5b600080fd5b600080fd5b600080fd5b6000601f19601f8301169050919050565b7f4e487b7100000000000000000000000000000000000000000000000000000000600052604160045260246000fd5b62000bcd8262000b82565b810181811067ffffffffffffffff8211171562000bef5762000bee62000b93565b5b80604052505050565b600062000c0462000b64565b905062000c12828262000bc2565b919050565b600067ffffffffffffffff82111562000c355762000c3462000b93565b5b62000c408262000b82565b9050602081019050919050565b82818337600083830152505050565b600062000c7362000c6d8462000c17565b62000bf8565b90508281526020810184848401111562000c925762000c9162000b7d565b5b62000c9f84828562000c4d565b509392505050565b600082601f83011262000cbf5762000cbe62000b78565b5b813562000cd184826020860162000c5c565b91505092915050565b6000819050919050565b62000cef8162000cda565b811462000cfb57600080fd5b50565b60008135905062000d0f8162000ce4565b92915050565b600067ffffffffffffffff82111562000d335762000d3262000b93565b5b602082029050602081019050919050565b600080fd5b600073ffffffffffffffffffffffffffffffffffffffff82169050919050565b600062000d768262000d49565b9050919050565b62000d888162000d69565b811462000d9457600080fd5b50565b60008135905062000da88162000d7d565b92915050565b600062000dc562000dbf8462000d15565b62000bf8565b9050808382526020820190506020840283018581111562000deb5762000dea62000d44565b5b835b8181101562000e18578062000e03888262000d97565b84526020840193505060208101905062000ded565b5050509392505050565b600082601f83011262000e3a5762000e3962000b78565b5b813562000e4c84826020860162000dae565b91505092915050565b6000806000806080858703121562000e725762000e7162000b6e565b5b600085013567ffffffffffffffff81111562000e935762000e9262000b73565b5b62000ea18782880162000ca7565b945050602085013567ffffffffffffffff81111562000ec55762000ec462000b73565b5b62000ed38782880162000ca7565b935050604062000ee68782880162000cfe565b925050606085013567ffffffffffffffff81111562000f0a5762000f0962000b73565b5b62000f188782880162000e22565b91505092959194509250565b7f4e487b7100000000000000000000000000000000000000000000000000000000600052602160045260246000fd5b6003811062000f675762000f6662000f24565b5b50565b600081905062000f7a8262000f53565b919050565b600062000f8c8262000f6a565b9050919050565b62000f9e8162000f7f565b82525050565b600060208201905062000fbb600083018462000f93565b92915050565b62000fcc8162000cda565b82525050565b600060208201905062000fe9600083018462000fc1565b92915050565b600081519050919050565b600082825260208201905092915050565b60005b838110156200102b5780820151818401526020810190506200100e565b60008484015250505050565b6000620010448262000fef565b62001050818562000ffa565b9350620010628185602086016200100b565b6200106d8162000b82565b840191505092915050565b6000602082019050818103600083015262001094818462001037565b905092915050565b600081519050919050565b600082825260208201905092915050565b6000819050602082019050919050565b620010d38162000d69565b82525050565b6000620010e78383620010c8565b60208301905092915050565b6000602082019050919050565b60006200110d826200109c565b620011198185620010a7565b93506200112683620010b8565b8060005b838110156200115d578151620011418882620010d9565b97506200114e83620010f3565b9250506001810190506200112a565b5085935050505092915050565b6000602082019050818103600083015262001186818462001100565b905092915050565b620011998162000d69565b82525050565b6000602082019050620011b660008301846200118e565b92915050565b600060208284031215620011d557620011d462000b6e565b5b6000620011e58482850162000cfe565b91505092915050565b60006020828403121562001207576200120662000b6e565b5b6000620012178482850162000d97565b91505092915050565b60008115159050919050565b620012378162001220565b82525050565b60006020820190506200125460008301846200122c565b92915050565b7f4e6f74206f776e65720000000000000000000000000000000000000000000000600082015250565b60006200129260098362000ffa565b91506200129f826200125a565b602082019050919050565b60006020820190508181036000830152620012c58162001283565b9050919050565b7f4e6f742061637469766500000000000000000000000000000000000000000000600082015250565b600062001304600a8362000ffa565b91506200131182620012cc565b602082019050919050565b600060208201905081810360008301526200133781620012f5565b9050919050565b600060a08201905081810360008301526200135a818862001037565b9050818103602083015262001370818762001037565b905062001381604083018662000fc1565b818103606083015262001395818562001100565b9050620013a660808301846200118e565b9695505050505050565b6000604082019050620013c760008301856200118e565b8181036020830152620013db818462001037565b90509392505050565b7f4e487b7100000000000000000000000000000000000000000000000000000000600052602260045260246000fd5b600060028204905060018216806200142c57607f821691505b602082108103620014425762001441620013e4565b5b50919050565b7f416c72656164792073746172746564206f7220636c6f73656400000000000000600082015250565b60006200148060198362000ffa565b91506200148d8262001448565b602082019050919050565b60006020820190508181036000830152620014b38162001471565b905091905056fe60806040523480156200001157600080fd5b50604051620020ff380380620020ff83398181016040528101906200003791906200051c565b846000908162000048919062000842565b5083600190816200005a919062000842565b508260028190555080600360006101000a81548173ffffffffffffffffffffffffffffffffffffffff021916908373ffffffffffffffffffffffffffffffffffffffff1602179055508160049080519060200190620000bb92919062000160565b5060005b82518110156200015457600160066000858481518110620000e557620000e462000929565b5b602002602001015173ffffffffffffffffffffffffffffffffffffffff1673ffffffffffffffffffffffffffffffffffffffff16815260200190815260200160002060006101000a81548160ff02191690831515021790555080806200014b9062000987565b915050620000bf565b505050505050620009d4565b828054828255906000526020600020908101928215620001dc579160200282015b82811115620001db5782518260006101000a81548173ffffffffffffffffffffffffffffffffffffffff021916908373ffffffffffffffffffffffffffffffffffffffff1602179055509160200191906001019062000181565b5b509050620001eb9190620001ef565b5090565b5b808211156200020a576000816000905550600101620001f0565b5090565b6000604051905090565b600080fd5b600080fd5b600080fd5b600080fd5b6000601f19601f8301169050919050565b7f4e487b7100000000000000000000000000000000000000000000000000000000600052604160045260246000fd5b62000277826200022c565b810181811067ffffffffffffffff821117156200029957620002986200023d565b5b80604052505050565b6000620002ae6200020e565b9050620002bc82826200026c565b919050565b600067ffffffffffffffff821115620002df57620002de6200023d565b5b620002ea826200022c565b9050602081019050919050565b60005b8381101562000317578082015181840152602081019050620002fa565b60008484015250505050565b60006200033a6200033484620002c1565b620002a2565b90508281526020810184848401111562000359576200035862000227565b5b62000366848285620002f7565b509392505050565b600082601f83011262000386576200038562000222565b5b81516200039884826020860162000323565b91505092915050565b6000819050919050565b620003b681620003a1565b8114620003c257600080fd5b50565b600081519050620003d681620003ab565b92915050565b600067ffffffffffffffff821115620003fa57620003f96200023d565b5b602082029050602081019050919050565b600080fd5b600073ffffffffffffffffffffffffffffffffffffffff82169050919050565b60006200043d8262000410565b9050919050565b6200044f8162000430565b81146200045b57600080fd5b50565b6000815190506200046f8162000444565b92915050565b60006200048c6200048684620003dc565b620002a2565b90508083825260208201905060208402830185811115620004b257620004b16200040b565b5b835b81811015620004df5780620004ca88826200045e565b845260208401935050602081019050620004b4565b5050509392505050565b600082601f83011262000501576200050062000222565b5b81516200051384826020860162000475565b91505092915050565b600080600080600060a086880312156200053b576200053a62000218565b5b600086015167ffffffffffffffff8111156200055c576200055b6200021d565b5b6200056a888289016200036e565b955050602086015167ffffffffffffffff8111156200058e576200058d6200021d565b5b6200059c888289016200036e565b9450506040620005af88828901620003c5565b935050606086015167ffffffffffffffff811115620005d357620005d26200021d565b5b620005e188828901620004e9565b9250506080620005f4888289016200045e565b9150509295509295909350565b600081519050919050565b7f4e487b7100000000000000000000000000000000000000000000000000000000600052602260045260246000fd5b600060028204905060018216806200065457607f821691505b6020821081036200066a57620006696200060c565b5b50919050565b60008190508160005260206000209050919050565b60006020601f8301049050919050565b600082821b905092915050565b600060088302620006d47fffffffffffffffffffffffffffffffffffffffffffffffffffffffffffffffff8262000695565b620006e0868362000695565b95508019841693508086168417925050509392505050565b6000819050919050565b6000620007236200071d6200071784620003a1565b620006f8565b620003a1565b9050919050565b6000819050919050565b6200073f8362000702565b620007576200074e826200072a565b848454620006a2565b825550505050565b600090565b6200076e6200075f565b6200077b81848462000734565b505050565b5b81811015620007a3576200079760008262000764565b60018101905062000781565b5050565b601f821115620007f257620007bc8162000670565b620007c78462000685565b81016020851015620007d7578190505b620007ef620007e68562000685565b83018262000780565b50505b505050565b600082821c905092915050565b60006200081760001984600802620007f7565b1980831691505092915050565b600062000832838362000804565b9150826002028217905092915050565b6200084d8262000601565b67ffffffffffffffff8111156200086957620008686200023d565b5b6200087582546200063b565b62000882828285620007a7565b600060209050601f831160018114620008ba5760008415620008a5578287015190505b620008b1858262000824565b86555062000921565b601f198416620008ca8662000670565b60005b82811015620008f457848901518255600182019150602085019450602081019050620008cd565b8683101562000914578489015162000910601f89168262000804565b8355505b6001600288020188555050505b505050505050565b7f4e487b7100000000000000000000000000000000000000000000000000000000600052603260045260246000fd5b7f4e487b7100000000000000000000000000000000000000000000000000000000600052601160045260246000fd5b60006200099482620003a1565b91507fffffffffffffffffffffffffffffffffffffffffffffffffffffffffffffffff8203620009c957620009c862000958565b5b600182019050919050565b61171b80620009e46000396000f3fe608060405234801561001057600080fd5b506004361061010b5760003560e01c80636901f668116100a2578063bd842a1111610071578063bd842a1114610285578063cc2ee196146102b5578063e313d528146102d3578063edc550dc146102f1578063fa6f39361461030d5761010b565b80636901f668146102235780637284e4161461022d57806375a12d721461024b578063a6bd5427146102675761010b565b8063414eb814116100de578063414eb814146101ab57806342169e48146101c95780634a79d50c146101e757806353957834146102055761010b565b80630846c0ee146101105780631b4613cb1461012c57806331474a5e1461015c578063409e22051461017a575b600080fd5b61012a60048036038101906101259190610cda565b61033d565b005b61014660048036038101906101419190610d59565b61044b565b6040516101539190610da1565b60405180910390f35b61016461046b565b6040516101719190610da1565b60405180910390f35b610194600480360381019061018f9190610df2565b61047e565b6040516101a2929190610ead565b60405180910390f35b6101b361053a565b6040516101c09190610da1565b60405180910390f35b6101d161054d565b6040516101de9190610edd565b60405180910390f35b6101ef610553565b6040516101fc9190610ef8565b60405180910390f35b61020d6105e1565b60405161021a9190610ef8565b60405180910390f35b61022b61066f565b005b61023561076a565b6040516102429190610ef8565b60405180910390f35b61026560048036038101906102609190610f1a565b6107f8565b005b61026f610943565b60405161027c9190610edd565b60405180910390f35b61029f600480360381019061029a9190610df2565b610950565b6040516102ac9190610f9b565b60405180910390f35b6102bd61098f565b6040516102ca919061110e565b60405180910390f35b6102db610a8a565b6040516102e89190610f9b565b60405180910390f35b61030b60048036038101906103069190610cda565b610ab0565b005b6103276004803603810190610322919061115c565b610b60565b6040516103349190610da1565b60405180910390f35b600660003373ffffffffffffffffffffffffffffffffffffffff1673ffffffffffffffffffffffffffffffffffffffff16815260200190815260200160002060009054906101000a900460ff166103c9576040517f08c379a00000000000000000000000000000000000000000000000000000000081526004016103c0906111d5565b60405180910390fd5b6001600860016101000a81548160ff0219169083151502179055506000600860006101000a81548160ff021916908315150217905550806009908161040e9190611401565b507f4a2e5beac6211f436f7d572c38e5ae1fa41d253289919ea7d457db00599a867e33826040516104409291906114d3565b60405180910390a150565b60076020528060005260406000206000915054906101000a900460ff1681565b600860019054906101000a900460ff1681565b6005818154811061048e57600080fd5b90600052602060002090600202016000915090508060000180546104b190611224565b80601f01602080910402602001604051908101604052809291908181526020018280546104dd90611224565b801561052a5780601f106104ff5761010080835404028352916020019161052a565b820191906000526020600020905b81548152906001019060200180831161050d57829003601f168201915b5050505050908060010154905082565b600860009054906101000a900460ff1681565b60025481565b6000805461056090611224565b80601f016020809104026020016040519081016040528092919081815260200182805461058c90611224565b80156105d95780601f106105ae576101008083540402835291602001916105d9565b820191906000526020600020905b8154815290600101906020018083116105bc57829003601f168201915b505050505081565b600980546105ee90611224565b80601f016020809104026020016040519081016040528092919081815260200182805461061a90611224565b80156106675780601f1061063c57610100808354040283529160200191610667565b820191906000526020600020905b81548152906001019060200180831161064a57829003601f168201915b505050505081565b600660003373ffffffffffffffffffffffffffffffffffffffff1673ffffffffffffffffffffffffffffffffffffffff16815260200190815260200160002060009054906101000a900460ff166106fb576040517f08c379a00000000000000000000000000000000000000000000000000000000081526004016106f2906111d5565b60405180910390fd5b6001600860006101000a81548160ff0219169083151502179055506000600860016101000a81548160ff0219169083151502179055507f8ee9fee1e8cd233411b47b9fc980029befbfd3a2ed4ae8179d4adbfb11d24c0e336040516107609190610f9b565b60405180910390a1565b6001805461077790611224565b80601f01602080910402602001604051908101604052809291908181526020018280546107a390611224565b80156107f05780601f106107c5576101008083540402835291602001916107f0565b820191906000526020600020905b8154815290600101906020018083116107d357829003601f168201915b505050505081565b6007600083815260200190815260200160002060009054906101000a900460ff1615610859576040517f08c379a00000000000000000000000000000000000000000000000000000000081526004016108509061154f565b60405180910390fd5b60058054905081106108a0576040517f08c379a0000000000000000000000000000000000000000000000000000000008152600401610897906115bb565b60405180910390fd5b600581815481106108b4576108b36115db565b5b906000526020600020906002020160010160008154809291906108d690611639565b919050555060016007600084815260200190815260200160002060006101000a81548160ff021916908315150217905550817fd10f6697fe785cf6ab300b0a28e7b2403b8742966ec5535806af5b24613611a4826040516109379190610edd565b60405180910390a25050565b6000600580549050905090565b6004818154811061096057600080fd5b906000526020600020016000915054906101000a900473ffffffffffffffffffffffffffffffffffffffff1681565b60606005805480602002602001604051908101604052809291908181526020016000905b82821015610a8157838290600052602060002090600202016040518060400160405290816000820180546109e690611224565b80601f0160208091040260200160405190810160405280929190818152602001828054610a1290611224565b8015610a5f5780601f10610a3457610100808354040283529160200191610a5f565b820191906000526020600020905b815481529060010190602001808311610a4257829003601f168201915b50505050508152602001600182015481525050815260200190600101906109b3565b50505050905090565b600360009054906101000a900473ffffffffffffffffffffffffffffffffffffffff1681565b60056040518060400160405280838152602001600081525090806001815401808255809150506001900390600052602060002090600202016000909190919091506000820151816000019081610b069190611401565b506020820151816001015550507f17d54b10d2f5efe6c5653d2c3f373803d477ce9962212280331f14843d8983fb6001600580549050610b469190611681565b82604051610b559291906116b5565b60405180910390a150565b60066020528060005260406000206000915054906101000a900460ff1681565b6000604051905090565b600080fd5b600080fd5b600080fd5b600080fd5b6000601f19601f8301169050919050565b7f4e487b7100000000000000000000000000000000000000000000000000000000600052604160045260246000fd5b610be782610b9e565b810181811067ffffffffffffffff82111715610c0657610c05610baf565b5b80604052505050565b6000610c19610b80565b9050610c258282610bde565b919050565b600067ffffffffffffffff821115610c4557610c44610baf565b5b610c4e82610b9e565b9050602081019050919050565b82818337600083830152505050565b6000610c7d610c7884610c2a565b610c0f565b905082815260208101848484011115610c9957610c98610b99565b5b610ca4848285610c5b565b509392505050565b600082601f830112610cc157610cc0610b94565b5b8135610cd1848260208601610c6a565b91505092915050565b600060208284031215610cf057610cef610b8a565b5b600082013567ffffffffffffffff811115610d0e57610d0d610b8f565b5b610d1a84828501610cac565b91505092915050565b6000819050919050565b610d3681610d23565b8114610d4157600080fd5b50565b600081359050610d5381610d2d565b92915050565b600060208284031215610d6f57610d6e610b8a565b5b6000610d7d84828501610d44565b91505092915050565b60008115159050919050565b610d9b81610d86565b82525050565b6000602082019050610db66000830184610d92565b92915050565b6000819050919050565b610dcf81610dbc565b8114610dda57600080fd5b50565b600081359050610dec81610dc6565b92915050565b600060208284031215610e0857610e07610b8a565b5b6000610e1684828501610ddd565b91505092915050565b600081519050919050565b600082825260208201905092915050565b60005b83811015610e59578082015181840152602081019050610e3e565b60008484015250505050565b6000610e7082610e1f565b610e7a8185610e2a565b9350610e8a818560208601610e3b565b610e9381610b9e565b840191505092915050565b610ea781610dbc565b82525050565b60006040820190508181036000830152610ec78185610e65565b9050610ed66020830184610e9e565b9392505050565b6000602082019050610ef26000830184610e9e565b92915050565b60006020820190508181036000830152610f128184610e65565b905092915050565b60008060408385031215610f3157610f30610b8a565b5b6000610f3f85828601610d44565b9250506020610f5085828601610ddd565b9150509250929050565b600073ffffffffffffffffffffffffffffffffffffffff82169050919050565b6000610f8582610f5a565b9050919050565b610f9581610f7a565b82525050565b6000602082019050610fb06000830184610f8c565b92915050565b600081519050919050565b600082825260208201905092915050565b6000819050602082019050919050565b600082825260208201905092915050565b6000610ffe82610e1f565b6110088185610fe2565b9350611018818560208601610e3b565b61102181610b9e565b840191505092915050565b61103581610dbc565b82525050565b600060408301600083015184820360008601526110588282610ff3565b915050602083015161106d602086018261102c565b508091505092915050565b6000611084838361103b565b905092915050565b6000602082019050919050565b60006110a482610fb6565b6110ae8185610fc1565b9350836020820285016110c085610fd2565b8060005b858110156110fc57848403895281516110dd8582611078565b94506110e88361108c565b925060208a019950506001810190506110c4565b50829750879550505050505092915050565b600060208201905081810360008301526111288184611099565b905092915050565b61113981610f7a565b811461114457600080fd5b50565b60008135905061115681611130565b92915050565b60006020828403121561117257611171610b8a565b5b600061118084828501611147565b91505092915050565b7f4e6f74206d6f64657261746f7200000000000000000000000000000000000000600082015250565b60006111bf600d83610e2a565b91506111ca82611189565b602082019050919050565b600060208201905081810360008301526111ee816111b2565b9050919050565b7f4e487b7100000000000000000000000000000000000000000000000000000000600052602260045260246000fd5b6000600282049050600182168061123c57607f821691505b60208210810361124f5761124e6111f5565b5b50919050565b60008190508160005260206000209050919050565b60006020601f8301049050919050565b600082821b905092915050565b6000600883026112b77fffffffffffffffffffffffffffffffffffffffffffffffffffffffffffffffff8261127a565b6112c1868361127a565b95508019841693508086168417925050509392505050565b6000819050919050565b60006112fe6112f96112f484610dbc565b6112d9565b610dbc565b9050919050565b6000819050919050565b611318836112e3565b61132c61132482611305565b848454611287565b825550505050565b600090565b611341611334565b61134c81848461130f565b505050565b5b8181101561137057611365600082611339565b600181019050611352565b5050565b601f8211156113b55761138681611255565b61138f8461126a565b8101602085101561139e578190505b6113b26113aa8561126a565b830182611351565b50505b505050565b600082821c905092915050565b60006113d8600019846008026113ba565b1980831691505092915050565b60006113f183836113c7565b9150826002028217905092915050565b61140a82610e1f565b67ffffffffffffffff81111561142357611422610baf565b5b61142d8254611224565b611438828285611374565b600060209050601f83116001811461146b5760008415611459578287015190505b61146385826113e5565b8655506114cb565b601f19841661147986611255565b60005b828110156114a15784890151825560018201915060208501945060208101905061147c565b868310156114be57848901516114ba601f8916826113c7565b8355505b6001600288020188555050505b505050505050565b60006040820190506114e86000830185610f8c565b81810360208301526114fa8184610e65565b90509392505050565b7f416c726561647920766f74656400000000000000000000000000000000000000600082015250565b6000611539600d83610e2a565b915061154482611503565b602082019050919050565b600060208201905081810360008301526115688161152c565b9050919050565b7f496e76616c6964206f7074696f6e000000000000000000000000000000000000600082015250565b60006115a5600e83610e2a565b91506115b08261156f565b602082019050919050565b600060208201905081810360008301526115d481611598565b9050919050565b7f4e487b7100000000000000000000000000000000000000000000000000000000600052603260045260246000fd5b7f4e487b7100000000000000000000000000000000000000000000000000000000600052601160045260246000fd5b600061164482610dbc565b91507fffffffffffffffffffffffffffffffffffffffffffffffffffffffffffffffff82036116765761167561160a565b5b600182019050919050565b600061168c82610dbc565b915061169783610dbc565b92508282039050818111156116af576116ae61160a565b5b92915050565b60006040820190506116ca6000830185610e9e565b81810360208301526116dc8184610e65565b9050939250505056fea2646970667358221220c4b67acb62df2580975d4c059881df545c18bce174c77ad854be81997074cf2f64736f6c63430008140033a2646970667358221220f749ec86f47f24d924e4b52693daa717b40f2b8abb0efc11e2350b8cd51be1df64736f6c63430008140033","opcodes":"PUSH1 0x80 PUSH1 0x40 MSTORE CALLVALUE DUP1 ISZERO PUSH3 0x11 JUMPI PUSH1 0x0 DUP1 REVERT JUMPDEST POP PUSH1 0x40 MLOAD PUSH3 0x3DC1 CODESIZE SUB DUP1 PUSH3 0x3DC1 DUP4 CODECOPY DUP2 DUP2 ADD PUSH1 0x40 MSTORE DUP2 ADD SWAP1 PUSH3 0x37 SWAP2 SWAP1 PUSH3 0x33C JUMP JUMPDEST DUP7 PUSH1 0x0 SWAP1 DUP2 PUSH3 0x48 SWAP2 SWAP1 PUSH3 0x6AC JUMP JUMPDEST POP DUP6 PUSH1 0x1 SWAP1 DUP2 PUSH3 0x5A SWAP2 SWAP1 PUSH3 0x6AC JUMP JUMPDEST POP DUP5 PUSH1 0x2 SWAP1 DUP2 PUSH3 0x6C SWAP2 SWAP1 PUSH3 0x6AC JUMP JUMPDEST POP DUP4 PUSH1 0x3 SWAP1 DUP2 PUSH3 0x7E SWAP2 SWAP1 PUSH3 0x6AC JUMP JUMPDEST POP DUP3 PUSH1 0x4 DUP2 SWAP1 SSTORE POP DUP2 PUSH1 0x5 DUP2 SWAP1 SSTORE POP DUP1 PUSH1 0x6 PUSH1 0x1 PUSH2 0x100 EXP DUP2 SLOAD DUP2 PUSH20 0xFFFFFFFFFFFFFFFFFFFFFFFFFFFFFFFFFFFFFFFF MUL NOT AND SWAP1 DUP4 PUSH20 0xFFFFFFFFFFFFFFFFFFFFFFFFFFFFFFFFFFFFFFFF AND MUL OR SWAP1 SSTORE POP PUSH1 0x0 PUSH1 0x6 PUSH1 0x0 PUSH2 0x100 EXP DUP2 SLOAD DUP2 PUSH1 0xFF MUL NOT AND SWAP1 DUP4 PUSH1 0x2 DUP2 GT ISZERO PUSH3 0xF7 JUMPI PUSH3 0xF6 PUSH3 0x793 JUMP JUMPDEST JUMPDEST MUL OR SWAP1 SSTORE POP POP POP POP POP POP POP POP PUSH3 0x7C2 JUMP JUMPDEST PUSH1 0x0 PUSH1 0x40 MLOAD SWAP1 POP SWAP1 JUMP JUMPDEST PUSH1 0x0 DUP1 REVERT JUMPDEST PUSH1 0x0 DUP1 REVERT JUMPDEST PUSH1 0x0 DUP1 REVERT JUMPDEST PUSH1 0x0 DUP1 REVERT JUMPDEST PUSH1 0x0 PUSH1 0x1F NOT PUSH1 0x1F DUP4 ADD AND SWAP1 POP SWAP2 SWAP1 POP JUMP JUMPDEST PUSH32 0x4E487B7100000000000000000000000000000000000000000000000000000000 PUSH1 0x0 MSTORE PUSH1 0x41 PUSH1 0x4 MSTORE PUSH1 0x24 PUSH1 0x0 REVERT JUMPDEST PUSH3 0x172 DUP3 PUSH3 0x127 JUMP JUMPDEST DUP2 ADD DUP2 DUP2 LT PUSH8 0xFFFFFFFFFFFFFFFF DUP3 GT OR ISZERO PUSH3 0x194 JUMPI PUSH3 0x193 PUSH3 0x138 JUMP JUMPDEST JUMPDEST DUP1 PUSH1 0x40 MSTORE POP POP POP JUMP JUMPDEST PUSH1 0x0 PUSH3 0x1A9 PUSH3 0x109 JUMP JUMPDEST SWAP1 POP PUSH3 0x1B7 DUP3 DUP3 PUSH3 0x167 JUMP JUMPDEST SWAP2 SWAP1 POP JUMP JUMPDEST PUSH1 0x0 PUSH8 0xFFFFFFFFFFFFFFFF DUP3 GT ISZERO PUSH3 0x1DA JUMPI PUSH3 0x1D9 PUSH3 0x138 JUMP JUMPDEST JUMPDEST PUSH3 0x1E5 DUP3 PUSH3 0x127 JUMP JUMPDEST SWAP1 POP PUSH1 0x20 DUP2 ADD SWAP1 POP SWAP2 SWAP1 POP JUMP JUMPDEST PUSH1 0x0 JUMPDEST DUP4 DUP2 LT ISZERO PUSH3 0x212 JUMPI DUP1 DUP3 ADD MLOAD DUP2 DUP5 ADD MSTORE PUSH1 0x20 DUP2 ADD SWAP1 POP PUSH3 0x1F5 JUMP JUMPDEST PUSH1 0x0 DUP5 DUP5 ADD MSTORE POP POP POP POP JUMP JUMPDEST PUSH1 0x0 PUSH3 0x235 PUSH3 0x22F DUP5 PUSH3 0x1BC JUMP JUMPDEST PUSH3 0x19D JUMP JUMPDEST SWAP1 POP DUP3 DUP2 MSTORE PUSH1 0x20 DUP2 ADD DUP5 DUP5 DUP5 ADD GT ISZERO PUSH3 0x254 JUMPI PUSH3 0x253 PUSH3 0x122 JUMP JUMPDEST JUMPDEST PUSH3 0x261 DUP5 DUP3 DUP6 PUSH3 0x1F2 JUMP JUMPDEST POP SWAP4 SWAP3 POP POP POP JUMP JUMPDEST PUSH1 0x0 DUP3 PUSH1 0x1F DUP4 ADD SLT PUSH3 0x281 JUMPI PUSH3 0x280 PUSH3 0x11D JUMP JUMPDEST JUMPDEST DUP2 MLOAD PUSH3 0x293 DUP5 DUP3 PUSH1 0x20 DUP7 ADD PUSH3 0x21E JUMP JUMPDEST SWAP2 POP POP SWAP3 SWAP2 POP POP JUMP JUMPDEST PUSH1 0x0 DUP2 SWAP1 POP SWAP2 SWAP1 POP JUMP JUMPDEST PUSH3 0x2B1 DUP2 PUSH3 0x29C JUMP JUMPDEST DUP2 EQ PUSH3 0x2BD JUMPI PUSH1 0x0 DUP1 REVERT JUMPDEST POP JUMP JUMPDEST PUSH1 0x0 DUP2 MLOAD SWAP1 POP PUSH3 0x2D1 DUP2 PUSH3 0x2A6 JUMP JUMPDEST SWAP3 SWAP2 POP POP JUMP JUMPDEST PUSH1 0x0 PUSH20 0xFFFFFFFFFFFFFFFFFFFFFFFFFFFFFFFFFFFFFFFF DUP3 AND SWAP1 POP SWAP2 SWAP1 POP JUMP JUMPDEST PUSH1 0x0 PUSH3 0x304 DUP3 PUSH3 0x2D7 JUMP JUMPDEST SWAP1 POP SWAP2 SWAP1 POP JUMP JUMPDEST PUSH3 0x316 DUP2 PUSH3 0x2F7 JUMP JUMPDEST DUP2 EQ PUSH3 0x322 JUMPI PUSH1 0x0 DUP1 REVERT JUMPDEST POP JUMP JUMPDEST PUSH1 0x0 DUP2 MLOAD SWAP1 POP PUSH3 0x336 DUP2 PUSH3 0x30B JUMP JUMPDEST SWAP3 SWAP2 POP POP JUMP JUMPDEST PUSH1 0x0 DUP1 PUSH1 0x0 DUP1 PUSH1 0x0 DUP1 PUSH1 0x0 PUSH1 0xE0 DUP9 DUP11 SUB SLT ISZERO PUSH3 0x35E JUMPI PUSH3 0x35D PUSH3 0x113 JUMP JUMPDEST JUMPDEST PUSH1 0x0 DUP9 ADD MLOAD PUSH8 0xFFFFFFFFFFFFFFFF DUP2 GT ISZERO PUSH3 0x37F JUMPI PUSH3 0x37E PUSH3 0x118 JUMP JUMPDEST JUMPDEST PUSH3 0x38D DUP11 DUP3 DUP12 ADD PUSH3 0x269 JUMP JUMPDEST SWAP8 POP POP PUSH1 0x20 DUP9 ADD MLOAD PUSH8 0xFFFFFFFFFFFFFFFF DUP2 GT ISZERO PUSH3 0x3B1 JUMPI PUSH3 0x3B0 PUSH3 0x118 JUMP JUMPDEST JUMPDEST PUSH3 0x3BF DUP11 DUP3 DUP12 ADD PUSH3 0x269 JUMP JUMPDEST SWAP7 POP POP PUSH1 0x40 DUP9 ADD MLOAD PUSH8 0xFFFFFFFFFFFFFFFF DUP2 GT ISZERO PUSH3 0x3E3 JUMPI PUSH3 0x3E2 PUSH3 0x118 JUMP JUMPDEST JUMPDEST PUSH3 0x3F1 DUP11 DUP3 DUP12 ADD PUSH3 0x269 JUMP JUMPDEST SWAP6 POP POP PUSH1 0x60 DUP9 ADD MLOAD PUSH8 0xFFFFFFFFFFFFFFFF DUP2 GT ISZERO PUSH3 0x415 JUMPI PUSH3 0x414 PUSH3 0x118 JUMP JUMPDEST JUMPDEST PUSH3 0x423 DUP11 DUP3 DUP12 ADD PUSH3 0x269 JUMP JUMPDEST SWAP5 POP POP PUSH1 0x80 PUSH3 0x436 DUP11 DUP3 DUP12 ADD PUSH3 0x2C0 JUMP JUMPDEST SWAP4 POP POP PUSH1 0xA0 PUSH3 0x449 DUP11 DUP3 DUP12 ADD PUSH3 0x2C0 JUMP JUMPDEST SWAP3 POP POP PUSH1 0xC0 PUSH3 0x45C DUP11 DUP3 DUP12 ADD PUSH3 0x325 JUMP JUMPDEST SWAP2 POP POP SWAP3 SWAP6 SWAP9 SWAP2 SWAP5 SWAP8 POP SWAP3 SWAP6 POP JUMP JUMPDEST PUSH1 0x0 DUP2 MLOAD SWAP1 POP SWAP2 SWAP1 POP JUMP JUMPDEST PUSH32 0x4E487B7100000000000000000000000000000000000000000000000000000000 PUSH1 0x0 MSTORE PUSH1 0x22 PUSH1 0x4 MSTORE PUSH1 0x24 PUSH1 0x0 REVERT JUMPDEST PUSH1 0x0 PUSH1 0x2 DUP3 DIV SWAP1 POP PUSH1 0x1 DUP3 AND DUP1 PUSH3 0x4BE JUMPI PUSH1 0x7F DUP3 AND SWAP2 POP JUMPDEST PUSH1 0x20 DUP3 LT DUP2 SUB PUSH3 0x4D4 JUMPI PUSH3 0x4D3 PUSH3 0x476 JUMP JUMPDEST JUMPDEST POP SWAP2 SWAP1 POP JUMP JUMPDEST PUSH1 0x0 DUP2 SWAP1 POP DUP2 PUSH1 0x0 MSTORE PUSH1 0x20 PUSH1 0x0 KECCAK256 SWAP1 POP SWAP2 SWAP1 POP JUMP JUMPDEST PUSH1 0x0 PUSH1 0x20 PUSH1 0x1F DUP4 ADD DIV SWAP1 POP SWAP2 SWAP1 POP JUMP JUMPDEST PUSH1 0x0 DUP3 DUP3 SHL SWAP1 POP SWAP3 SWAP2 POP POP JUMP JUMPDEST PUSH1 0x0 PUSH1 0x8 DUP4 MUL PUSH3 0x53E PUSH32 0xFFFFFFFFFFFFFFFFFFFFFFFFFFFFFFFFFFFFFFFFFFFFFFFFFFFFFFFFFFFFFFFF DUP3 PUSH3 0x4FF JUMP JUMPDEST PUSH3 0x54A DUP7 DUP4 PUSH3 0x4FF JUMP JUMPDEST SWAP6 POP DUP1 NOT DUP5 AND SWAP4 POP DUP1 DUP7 AND DUP5 OR SWAP3 POP POP POP SWAP4 SWAP3 POP POP POP JUMP JUMPDEST PUSH1 0x0 DUP2 SWAP1 POP SWAP2 SWAP1 POP JUMP JUMPDEST PUSH1 0x0 PUSH3 0x58D PUSH3 0x587 PUSH3 0x581 DUP5 PUSH3 0x29C JUMP JUMPDEST PUSH3 0x562 JUMP JUMPDEST PUSH3 0x29C JUMP JUMPDEST SWAP1 POP SWAP2 SWAP1 POP JUMP JUMPDEST PUSH1 0x0 DUP2 SWAP1 POP SWAP2 SWAP1 POP JUMP JUMPDEST PUSH3 0x5A9 DUP4 PUSH3 0x56C JUMP JUMPDEST PUSH3 0x5C1 PUSH3 0x5B8 DUP3 PUSH3 0x594 JUMP JUMPDEST DUP5 DUP5 SLOAD PUSH3 0x50C JUMP JUMPDEST DUP3 SSTORE POP POP POP POP JUMP JUMPDEST PUSH1 0x0 SWAP1 JUMP JUMPDEST PUSH3 0x5D8 PUSH3 0x5C9 JUMP JUMPDEST PUSH3 0x5E5 DUP2 DUP5 DUP5 PUSH3 0x59E JUMP JUMPDEST POP POP POP JUMP JUMPDEST JUMPDEST DUP2 DUP2 LT ISZERO PUSH3 0x60D JUMPI PUSH3 0x601 PUSH1 0x0 DUP3 PUSH3 0x5CE JUMP JUMPDEST PUSH1 0x1 DUP2 ADD SWAP1 POP PUSH3 0x5EB JUMP JUMPDEST POP POP JUMP JUMPDEST PUSH1 0x1F DUP3 GT ISZERO PUSH3 0x65C JUMPI PUSH3 0x626 DUP2 PUSH3 0x4DA JUMP JUMPDEST PUSH3 0x631 DUP5 PUSH3 0x4EF JUMP JUMPDEST DUP2 ADD PUSH1 0x20 DUP6 LT ISZERO PUSH3 0x641 JUMPI DUP2 SWAP1 POP JUMPDEST PUSH3 0x659 PUSH3 0x650 DUP6 PUSH3 0x4EF JUMP JUMPDEST DUP4 ADD DUP3 PUSH3 0x5EA JUMP JUMPDEST POP POP JUMPDEST POP POP POP JUMP JUMPDEST PUSH1 0x0 DUP3 DUP3 SHR SWAP1 POP SWAP3 SWAP2 POP POP JUMP JUMPDEST PUSH1 0x0 PUSH3 0x681 PUSH1 0x0 NOT DUP5 PUSH1 0x8 MUL PUSH3 0x661 JUMP JUMPDEST NOT DUP1 DUP4 AND SWAP2 POP POP SWAP3 SWAP2 POP POP JUMP JUMPDEST PUSH1 0x0 PUSH3 0x69C DUP4 DUP4 PUSH3 0x66E JUMP JUMPDEST SWAP2 POP DUP3 PUSH1 0x2 MUL DUP3 OR SWAP1 POP SWAP3 SWAP2 POP POP JUMP JUMPDEST PUSH3 0x6B7 DUP3 PUSH3 0x46B JUMP JUMPDEST PUSH8 0xFFFFFFFFFFFFFFFF DUP2 GT ISZERO PUSH3 0x6D3 JUMPI PUSH3 0x6D2 PUSH3 0x138 JUMP JUMPDEST JUMPDEST PUSH3 0x6DF DUP3 SLOAD PUSH3 0x4A5 JUMP JUMPDEST PUSH3 0x6EC DUP3 DUP3 DUP6 PUSH3 0x611 JUMP JUMPDEST PUSH1 0x0 PUSH1 0x20 SWAP1 POP PUSH1 0x1F DUP4 GT PUSH1 0x1 DUP2 EQ PUSH3 0x724 JUMPI PUSH1 0x0 DUP5 ISZERO PUSH3 0x70F JUMPI DUP3 DUP8 ADD MLOAD SWAP1 POP JUMPDEST PUSH3 0x71B DUP6 DUP3 PUSH3 0x68E JUMP JUMPDEST DUP7 SSTORE POP PUSH3 0x78B JUMP JUMPDEST PUSH1 0x1F NOT DUP5 AND PUSH3 0x734 DUP7 PUSH3 0x4DA JUMP JUMPDEST PUSH1 0x0 JUMPDEST DUP3 DUP2 LT ISZERO PUSH3 0x75E JUMPI DUP5 DUP10 ADD MLOAD DUP3 SSTORE PUSH1 0x1 DUP3 ADD SWAP2 POP PUSH1 0x20 DUP6 ADD SWAP5 POP PUSH1 0x20 DUP2 ADD SWAP1 POP PUSH3 0x737 JUMP JUMPDEST DUP7 DUP4 LT ISZERO PUSH3 0x77E JUMPI DUP5 DUP10 ADD MLOAD PUSH3 0x77A PUSH1 0x1F DUP10 AND DUP3 PUSH3 0x66E JUMP JUMPDEST DUP4 SSTORE POP JUMPDEST PUSH1 0x1 PUSH1 0x2 DUP9 MUL ADD DUP9 SSTORE POP POP POP JUMPDEST POP POP POP POP POP POP JUMP JUMPDEST PUSH32 0x4E487B7100000000000000000000000000000000000000000000000000000000 PUSH1 0x0 MSTORE PUSH1 0x21 PUSH1 0x4 MSTORE PUSH1 0x24 PUSH1 0x0 REVERT JUMPDEST PUSH2 0x35EF DUP1 PUSH3 0x7D2 PUSH1 0x0 CODECOPY PUSH1 0x0 RETURN INVALID PUSH1 0x80 PUSH1 0x40 MSTORE CALLVALUE DUP1 ISZERO PUSH3 0x11 JUMPI PUSH1 0x0 DUP1 REVERT JUMPDEST POP PUSH1 0x4 CALLDATASIZE LT PUSH3 0xFF JUMPI PUSH1 0x0 CALLDATALOAD PUSH1 0xE0 SHR DUP1 PUSH4 0x7284E416 GT PUSH3 0x99 JUMPI DUP1 PUSH4 0x8DA5CB5B GT PUSH3 0x6F JUMPI DUP1 PUSH4 0x8DA5CB5B EQ PUSH3 0x22A JUMPI DUP1 PUSH4 0x973F3D65 EQ PUSH3 0x24C JUMPI DUP1 PUSH4 0xD8B0B499 EQ PUSH3 0x282 JUMPI DUP1 PUSH4 0xDC15F9C2 EQ PUSH3 0x2A4 JUMPI PUSH3 0xFF JUMP JUMPDEST DUP1 PUSH4 0x7284E416 EQ PUSH3 0x1DA JUMPI DUP1 PUSH4 0x78E97925 EQ PUSH3 0x1FC JUMPI DUP1 PUSH4 0x805706BA EQ PUSH3 0x21E JUMPI PUSH3 0xFF JUMP JUMPDEST DUP1 PUSH4 0x3197CBB6 GT PUSH3 0xDB JUMPI DUP1 PUSH4 0x3197CBB6 EQ PUSH3 0x152 JUMPI DUP1 PUSH4 0x4A79D50C EQ PUSH3 0x174 JUMPI DUP1 PUSH4 0x61503E45 EQ PUSH3 0x196 JUMPI DUP1 PUSH4 0x6E62D0A8 EQ PUSH3 0x1B8 JUMPI PUSH3 0xFF JUMP JUMPDEST DUP1 PUSH3 0x3CD550 EQ PUSH3 0x104 JUMPI DUP1 PUSH4 0x5BEB80C EQ PUSH3 0x110 JUMPI DUP1 PUSH4 0x200D2ED2 EQ PUSH3 0x130 JUMPI JUMPDEST PUSH1 0x0 DUP1 REVERT JUMPDEST PUSH3 0x10E PUSH3 0x2DA JUMP JUMPDEST STOP JUMPDEST PUSH3 0x12E PUSH1 0x4 DUP1 CALLDATASIZE SUB DUP2 ADD SWAP1 PUSH3 0x128 SWAP2 SWAP1 PUSH3 0xE55 JUMP JUMPDEST PUSH3 0x464 JUMP JUMPDEST STOP JUMPDEST PUSH3 0x13A PUSH3 0x63F JUMP JUMPDEST PUSH1 0x40 MLOAD PUSH3 0x149 SWAP2 SWAP1 PUSH3 0xFA4 JUMP JUMPDEST PUSH1 0x40 MLOAD DUP1 SWAP2 SUB SWAP1 RETURN JUMPDEST PUSH3 0x15C PUSH3 0x652 JUMP JUMPDEST PUSH1 0x40 MLOAD PUSH3 0x16B SWAP2 SWAP1 PUSH3 0xFD2 JUMP JUMPDEST PUSH1 0x40 MLOAD DUP1 SWAP2 SUB SWAP1 RETURN JUMPDEST PUSH3 0x17E PUSH3 0x658 JUMP JUMPDEST PUSH1 0x40 MLOAD PUSH3 0x18D SWAP2 SWAP1 PUSH3 0x1078 JUMP JUMPDEST PUSH1 0x40 MLOAD DUP1 SWAP2 SUB SWAP1 RETURN JUMPDEST PUSH3 0x1A0 PUSH3 0x6EE JUMP JUMPDEST PUSH1 0x40 MLOAD PUSH3 0x1AF SWAP2 SWAP1 PUSH3 0x116A JUMP JUMPDEST PUSH1 0x40 MLOAD DUP1 SWAP2 SUB SWAP1 RETURN JUMPDEST PUSH3 0x1C2 PUSH3 0x77E JUMP JUMPDEST PUSH1 0x40 MLOAD PUSH3 0x1D1 SWAP2 SWAP1 PUSH3 0x1078 JUMP JUMPDEST PUSH1 0x40 MLOAD DUP1 SWAP2 SUB SWAP1 RETURN JUMPDEST PUSH3 0x1E4 PUSH3 0x814 JUMP JUMPDEST PUSH1 0x40 MLOAD PUSH3 0x1F3 SWAP2 SWAP1 PUSH3 0x1078 JUMP JUMPDEST PUSH1 0x40 MLOAD DUP1 SWAP2 SUB SWAP1 RETURN JUMPDEST PUSH3 0x206 PUSH3 0x8AA JUMP JUMPDEST PUSH1 0x40 MLOAD PUSH3 0x215 SWAP2 SWAP1 PUSH3 0xFD2 JUMP JUMPDEST PUSH1 0x40 MLOAD DUP1 SWAP2 SUB SWAP1 RETURN JUMPDEST PUSH3 0x228 PUSH3 0x8B0 JUMP JUMPDEST STOP JUMPDEST PUSH3 0x234 PUSH3 0xA3A JUMP JUMPDEST PUSH1 0x40 MLOAD PUSH3 0x243 SWAP2 SWAP1 PUSH3 0x119F JUMP JUMPDEST PUSH1 0x40 MLOAD DUP1 SWAP2 SUB SWAP1 RETURN JUMPDEST PUSH3 0x26A PUSH1 0x4 DUP1 CALLDATASIZE SUB DUP2 ADD SWAP1 PUSH3 0x264 SWAP2 SWAP1 PUSH3 0x11BC JUMP JUMPDEST PUSH3 0xA60 JUMP JUMPDEST PUSH1 0x40 MLOAD PUSH3 0x279 SWAP2 SWAP1 PUSH3 0x119F JUMP JUMPDEST PUSH1 0x40 MLOAD DUP1 SWAP2 SUB SWAP1 RETURN JUMPDEST PUSH3 0x28C PUSH3 0xAA0 JUMP JUMPDEST PUSH1 0x40 MLOAD PUSH3 0x29B SWAP2 SWAP1 PUSH3 0x1078 JUMP JUMPDEST PUSH1 0x40 MLOAD DUP1 SWAP2 SUB SWAP1 RETURN JUMPDEST PUSH3 0x2C2 PUSH1 0x4 DUP1 CALLDATASIZE SUB DUP2 ADD SWAP1 PUSH3 0x2BC SWAP2 SWAP1 PUSH3 0x11EE JUMP JUMPDEST PUSH3 0xB36 JUMP JUMPDEST PUSH1 0x40 MLOAD PUSH3 0x2D1 SWAP2 SWAP1 PUSH3 0x123D JUMP JUMPDEST PUSH1 0x40 MLOAD DUP1 SWAP2 SUB SWAP1 RETURN JUMPDEST PUSH1 0x6 PUSH1 0x1 SWAP1 SLOAD SWAP1 PUSH2 0x100 EXP SWAP1 DIV PUSH20 0xFFFFFFFFFFFFFFFFFFFFFFFFFFFFFFFFFFFFFFFF AND PUSH20 0xFFFFFFFFFFFFFFFFFFFFFFFFFFFFFFFFFFFFFFFF AND CALLER PUSH20 0xFFFFFFFFFFFFFFFFFFFFFFFFFFFFFFFFFFFFFFFF AND EQ PUSH3 0x36D JUMPI PUSH1 0x40 MLOAD PUSH32 0x8C379A000000000000000000000000000000000000000000000000000000000 DUP2 MSTORE PUSH1 0x4 ADD PUSH3 0x364 SWAP1 PUSH3 0x12AA JUMP JUMPDEST PUSH1 0x40 MLOAD DUP1 SWAP2 SUB SWAP1 REVERT JUMPDEST PUSH1 0x1 PUSH1 0x2 DUP2 GT ISZERO PUSH3 0x384 JUMPI PUSH3 0x383 PUSH3 0xF24 JUMP JUMPDEST JUMPDEST PUSH1 0x6 PUSH1 0x0 SWAP1 SLOAD SWAP1 PUSH2 0x100 EXP SWAP1 DIV PUSH1 0xFF AND PUSH1 0x2 DUP2 GT ISZERO PUSH3 0x3A9 JUMPI PUSH3 0x3A8 PUSH3 0xF24 JUMP JUMPDEST JUMPDEST EQ PUSH3 0x3EC JUMPI PUSH1 0x40 MLOAD PUSH32 0x8C379A000000000000000000000000000000000000000000000000000000000 DUP2 MSTORE PUSH1 0x4 ADD PUSH3 0x3E3 SWAP1 PUSH3 0x131C JUMP JUMPDEST PUSH1 0x40 MLOAD DUP1 SWAP2 SUB SWAP1 REVERT JUMPDEST PUSH1 0x2 PUSH1 0x6 PUSH1 0x0 PUSH2 0x100 EXP DUP2 SLOAD DUP2 PUSH1 0xFF MUL NOT AND SWAP1 DUP4 PUSH1 0x2 DUP2 GT ISZERO PUSH3 0x415 JUMPI PUSH3 0x414 PUSH3 0xF24 JUMP JUMPDEST JUMPDEST MUL OR SWAP1 SSTORE POP PUSH32 0xAAB0E4AD695EE66D28241F1997BB3650C4A310038AA61D751FAA810D59403C2C PUSH1 0x6 PUSH1 0x0 SWAP1 SLOAD SWAP1 PUSH2 0x100 EXP SWAP1 DIV PUSH1 0xFF AND PUSH1 0x40 MLOAD PUSH3 0x45A SWAP2 SWAP1 PUSH3 0xFA4 JUMP JUMPDEST PUSH1 0x40 MLOAD DUP1 SWAP2 SUB SWAP1 LOG1 JUMP JUMPDEST PUSH1 0x6 PUSH1 0x1 SWAP1 SLOAD SWAP1 PUSH2 0x100 EXP SWAP1 DIV PUSH20 0xFFFFFFFFFFFFFFFFFFFFFFFFFFFFFFFFFFFFFFFF AND PUSH20 0xFFFFFFFFFFFFFFFFFFFFFFFFFFFFFFFFFFFFFFFF AND CALLER PUSH20 0xFFFFFFFFFFFFFFFFFFFFFFFFFFFFFFFFFFFFFFFF AND EQ PUSH3 0x4F7 JUMPI PUSH1 0x40 MLOAD PUSH32 0x8C379A000000000000000000000000000000000000000000000000000000000 DUP2 MSTORE PUSH1 0x4 ADD PUSH3 0x4EE SWAP1 PUSH3 0x12AA JUMP JUMPDEST PUSH1 0x40 MLOAD DUP1 SWAP2 SUB SWAP1 REVERT JUMPDEST PUSH1 0x0 DUP5 DUP5 DUP5 DUP5 ADDRESS PUSH1 0x40 MLOAD PUSH3 0x50C SWAP1 PUSH3 0xB56 JUMP JUMPDEST PUSH3 0x51C SWAP6 SWAP5 SWAP4 SWAP3 SWAP2 SWAP1 PUSH3 0x133E JUMP JUMPDEST PUSH1 0x40 MLOAD DUP1 SWAP2 SUB SWAP1 PUSH1 0x0 CREATE DUP1 ISZERO DUP1 ISZERO PUSH3 0x539 JUMPI RETURNDATASIZE PUSH1 0x0 DUP1 RETURNDATACOPY RETURNDATASIZE PUSH1 0x0 REVERT JUMPDEST POP SWAP1 POP PUSH1 0x0 DUP2 SWAP1 POP PUSH1 0x7 DUP2 SWAP1 DUP1 PUSH1 0x1 DUP2 SLOAD ADD DUP1 DUP3 SSTORE DUP1 SWAP2 POP POP PUSH1 0x1 SWAP1 SUB SWAP1 PUSH1 0x0 MSTORE PUSH1 0x20 PUSH1 0x0 KECCAK256 ADD PUSH1 0x0 SWAP1 SWAP2 SWAP1 SWAP2 SWAP1 SWAP2 PUSH2 0x100 EXP DUP2 SLOAD DUP2 PUSH20 0xFFFFFFFFFFFFFFFFFFFFFFFFFFFFFFFFFFFFFFFF MUL NOT AND SWAP1 DUP4 PUSH20 0xFFFFFFFFFFFFFFFFFFFFFFFFFFFFFFFFFFFFFFFF AND MUL OR SWAP1 SSTORE POP PUSH1 0x1 PUSH1 0x8 PUSH1 0x0 DUP4 PUSH20 0xFFFFFFFFFFFFFFFFFFFFFFFFFFFFFFFFFFFFFFFF AND PUSH20 0xFFFFFFFFFFFFFFFFFFFFFFFFFFFFFFFFFFFFFFFF AND DUP2 MSTORE PUSH1 0x20 ADD SWAP1 DUP2 MSTORE PUSH1 0x20 ADD PUSH1 0x0 KECCAK256 PUSH1 0x0 PUSH2 0x100 EXP DUP2 SLOAD DUP2 PUSH1 0xFF MUL NOT AND SWAP1 DUP4 ISZERO ISZERO MUL OR SWAP1 SSTORE POP PUSH32 0xDF31D9CB78D4981AECCE2B3DF80121E9EEB2D6269E07076EFC30E0A2B0263B0B DUP2 DUP8 PUSH1 0x40 MLOAD PUSH3 0x62F SWAP3 SWAP2 SWAP1 PUSH3 0x13B0 JUMP JUMPDEST PUSH1 0x40 MLOAD DUP1 SWAP2 SUB SWAP1 LOG1 POP POP POP POP POP POP JUMP JUMPDEST PUSH1 0x6 PUSH1 0x0 SWAP1 SLOAD SWAP1 PUSH2 0x100 EXP SWAP1 DIV PUSH1 0xFF AND DUP2 JUMP JUMPDEST PUSH1 0x5 SLOAD DUP2 JUMP JUMPDEST PUSH1 0x0 DUP1 SLOAD PUSH3 0x667 SWAP1 PUSH3 0x1413 JUMP JUMPDEST DUP1 PUSH1 0x1F ADD PUSH1 0x20 DUP1 SWAP2 DIV MUL PUSH1 0x20 ADD PUSH1 0x40 MLOAD SWAP1 DUP2 ADD PUSH1 0x40 MSTORE DUP1 SWAP3 SWAP2 SWAP1 DUP2 DUP2 MSTORE PUSH1 0x20 ADD DUP3 DUP1 SLOAD PUSH3 0x695 SWAP1 PUSH3 0x1413 JUMP JUMPDEST DUP1 ISZERO PUSH3 0x6E6 JUMPI DUP1 PUSH1 0x1F LT PUSH3 0x6BA JUMPI PUSH2 0x100 DUP1 DUP4 SLOAD DIV MUL DUP4 MSTORE SWAP2 PUSH1 0x20 ADD SWAP2 PUSH3 0x6E6 JUMP JUMPDEST DUP3 ADD SWAP2 SWAP1 PUSH1 0x0 MSTORE PUSH1 0x20 PUSH1 0x0 KECCAK256 SWAP1 JUMPDEST DUP2 SLOAD DUP2 MSTORE SWAP1 PUSH1 0x1 ADD SWAP1 PUSH1 0x20 ADD DUP1 DUP4 GT PUSH3 0x6C8 JUMPI DUP3 SWAP1 SUB PUSH1 0x1F AND DUP3 ADD SWAP2 JUMPDEST POP POP POP POP POP DUP2 JUMP JUMPDEST PUSH1 0x60 PUSH1 0x7 DUP1 SLOAD DUP1 PUSH1 0x20 MUL PUSH1 0x20 ADD PUSH1 0x40 MLOAD SWAP1 DUP2 ADD PUSH1 0x40 MSTORE DUP1 SWAP3 SWAP2 SWAP1 DUP2 DUP2 MSTORE PUSH1 0x20 ADD DUP3 DUP1 SLOAD DUP1 ISZERO PUSH3 0x774 JUMPI PUSH1 0x20 MUL DUP3 ADD SWAP2 SWAP1 PUSH1 0x0 MSTORE PUSH1 0x20 PUSH1 0x0 KECCAK256 SWAP1 JUMPDEST DUP2 PUSH1 0x0 SWAP1 SLOAD SWAP1 PUSH2 0x100 EXP SWAP1 DIV PUSH20 0xFFFFFFFFFFFFFFFFFFFFFFFFFFFFFFFFFFFFFFFF AND PUSH20 0xFFFFFFFFFFFFFFFFFFFFFFFFFFFFFFFFFFFFFFFF AND DUP2 MSTORE PUSH1 0x20 ADD SWAP1 PUSH1 0x1 ADD SWAP1 DUP1 DUP4 GT PUSH3 0x729 JUMPI JUMPDEST POP POP POP POP POP SWAP1 POP SWAP1 JUMP JUMPDEST PUSH1 0x2 DUP1 SLOAD PUSH3 0x78D SWAP1 PUSH3 0x1413 JUMP JUMPDEST DUP1 PUSH1 0x1F ADD PUSH1 0x20 DUP1 SWAP2 DIV MUL PUSH1 0x20 ADD PUSH1 0x40 MLOAD SWAP1 DUP2 ADD PUSH1 0x40 MSTORE DUP1 SWAP3 SWAP2 SWAP1 DUP2 DUP2 MSTORE PUSH1 0x20 ADD DUP3 DUP1 SLOAD PUSH3 0x7BB SWAP1 PUSH3 0x1413 JUMP JUMPDEST DUP1 ISZERO PUSH3 0x80C JUMPI DUP1 PUSH1 0x1F LT PUSH3 0x7E0 JUMPI PUSH2 0x100 DUP1 DUP4 SLOAD DIV MUL DUP4 MSTORE SWAP2 PUSH1 0x20 ADD SWAP2 PUSH3 0x80C JUMP JUMPDEST DUP3 ADD SWAP2 SWAP1 PUSH1 0x0 MSTORE PUSH1 0x20 PUSH1 0x0 KECCAK256 SWAP1 JUMPDEST DUP2 SLOAD DUP2 MSTORE SWAP1 PUSH1 0x1 ADD SWAP1 PUSH1 0x20 ADD DUP1 DUP4 GT PUSH3 0x7EE JUMPI DUP3 SWAP1 SUB PUSH1 0x1F AND DUP3 ADD SWAP2 JUMPDEST POP POP POP POP POP DUP2 JUMP JUMPDEST PUSH1 0x1 DUP1 SLOAD PUSH3 0x823 SWAP1 PUSH3 0x1413 JUMP JUMPDEST DUP1 PUSH1 0x1F ADD PUSH1 0x20 DUP1 SWAP2 DIV MUL PUSH1 0x20 ADD PUSH1 0x40 MLOAD SWAP1 DUP2 ADD PUSH1 0x40 MSTORE DUP1 SWAP3 SWAP2 SWAP1 DUP2 DUP2 MSTORE PUSH1 0x20 ADD DUP3 DUP1 SLOAD PUSH3 0x851 SWAP1 PUSH3 0x1413 JUMP JUMPDEST DUP1 ISZERO PUSH3 0x8A2 JUMPI DUP1 PUSH1 0x1F LT PUSH3 0x876 JUMPI PUSH2 0x100 DUP1 DUP4 SLOAD DIV MUL DUP4 MSTORE SWAP2 PUSH1 0x20 ADD SWAP2 PUSH3 0x8A2 JUMP JUMPDEST DUP3 ADD SWAP2 SWAP1 PUSH1 0x0 MSTORE PUSH1 0x20 PUSH1 0x0 KECCAK256 SWAP1 JUMPDEST DUP2 SLOAD DUP2 MSTORE SWAP1 PUSH1 0x1 ADD SWAP1 PUSH1 0x20 ADD DUP1 DUP4 GT PUSH3 0x884 JUMPI DUP3 SWAP1 SUB PUSH1 0x1F AND DUP3 ADD SWAP2 JUMPDEST POP POP POP POP POP DUP2 JUMP JUMPDEST PUSH1 0x4 SLOAD DUP2 JUMP JUMPDEST PUSH1 0x6 PUSH1 0x1 SWAP1 SLOAD SWAP1 PUSH2 0x100 EXP SWAP1 DIV PUSH20 0xFFFFFFFFFFFFFFFFFFFFFFFFFFFFFFFFFFFFFFFF AND PUSH20 0xFFFFFFFFFFFFFFFFFFFFFFFFFFFFFFFFFFFFFFFF AND CALLER PUSH20 0xFFFFFFFFFFFFFFFFFFFFFFFFFFFFFFFFFFFFFFFF AND EQ PUSH3 0x943 JUMPI PUSH1 0x40 MLOAD PUSH32 0x8C379A000000000000000000000000000000000000000000000000000000000 DUP2 MSTORE PUSH1 0x4 ADD PUSH3 0x93A SWAP1 PUSH3 0x12AA JUMP JUMPDEST PUSH1 0x40 MLOAD DUP1 SWAP2 SUB SWAP1 REVERT JUMPDEST PUSH1 0x0 PUSH1 0x2 DUP2 GT ISZERO PUSH3 0x95A JUMPI PUSH3 0x959 PUSH3 0xF24 JUMP JUMPDEST JUMPDEST PUSH1 0x6 PUSH1 0x0 SWAP1 SLOAD SWAP1 PUSH2 0x100 EXP SWAP1 DIV PUSH1 0xFF AND PUSH1 0x2 DUP2 GT ISZERO PUSH3 0x97F JUMPI PUSH3 0x97E PUSH3 0xF24 JUMP JUMPDEST JUMPDEST EQ PUSH3 0x9C2 JUMPI PUSH1 0x40 MLOAD PUSH32 0x8C379A000000000000000000000000000000000000000000000000000000000 DUP2 MSTORE PUSH1 0x4 ADD PUSH3 0x9B9 SWAP1 PUSH3 0x1498 JUMP JUMPDEST PUSH1 0x40 MLOAD DUP1 SWAP2 SUB SWAP1 REVERT JUMPDEST PUSH1 0x1 PUSH1 0x6 PUSH1 0x0 PUSH2 0x100 EXP DUP2 SLOAD DUP2 PUSH1 0xFF MUL NOT AND SWAP1 DUP4 PUSH1 0x2 DUP2 GT ISZERO PUSH3 0x9EB JUMPI PUSH3 0x9EA PUSH3 0xF24 JUMP JUMPDEST JUMPDEST MUL OR SWAP1 SSTORE POP PUSH32 0xAAB0E4AD695EE66D28241F1997BB3650C4A310038AA61D751FAA810D59403C2C PUSH1 0x6 PUSH1 0x0 SWAP1 SLOAD SWAP1 PUSH2 0x100 EXP SWAP1 DIV PUSH1 0xFF AND PUSH1 0x40 MLOAD PUSH3 0xA30 SWAP2 SWAP1 PUSH3 0xFA4 JUMP JUMPDEST PUSH1 0x40 MLOAD DUP1 SWAP2 SUB SWAP1 LOG1 JUMP JUMPDEST PUSH1 0x6 PUSH1 0x1 SWAP1 SLOAD SWAP1 PUSH2 0x100 EXP SWAP1 DIV PUSH20 0xFFFFFFFFFFFFFFFFFFFFFFFFFFFFFFFFFFFFFFFF AND DUP2 JUMP JUMPDEST PUSH1 0x7 DUP2 DUP2 SLOAD DUP2 LT PUSH3 0xA71 JUMPI PUSH1 0x0 DUP1 REVERT JUMPDEST SWAP1 PUSH1 0x0 MSTORE PUSH1 0x20 PUSH1 0x0 KECCAK256 ADD PUSH1 0x0 SWAP2 POP SLOAD SWAP1 PUSH2 0x100 EXP SWAP1 DIV PUSH20 0xFFFFFFFFFFFFFFFFFFFFFFFFFFFFFFFFFFFFFFFF AND DUP2 JUMP JUMPDEST PUSH1 0x3 DUP1 SLOAD PUSH3 0xAAF SWAP1 PUSH3 0x1413 JUMP JUMPDEST DUP1 PUSH1 0x1F ADD PUSH1 0x20 DUP1 SWAP2 DIV MUL PUSH1 0x20 ADD PUSH1 0x40 MLOAD SWAP1 DUP2 ADD PUSH1 0x40 MSTORE DUP1 SWAP3 SWAP2 SWAP1 DUP2 DUP2 MSTORE PUSH1 0x20 ADD DUP3 DUP1 SLOAD PUSH3 0xADD SWAP1 PUSH3 0x1413 JUMP JUMPDEST DUP1 ISZERO PUSH3 0xB2E JUMPI DUP1 PUSH1 0x1F LT PUSH3 0xB02 JUMPI PUSH2 0x100 DUP1 DUP4 SLOAD DIV MUL DUP4 MSTORE SWAP2 PUSH1 0x20 ADD SWAP2 PUSH3 0xB2E JUMP JUMPDEST DUP3 ADD SWAP2 SWAP1 PUSH1 0x0 MSTORE PUSH1 0x20 PUSH1 0x0 KECCAK256 SWAP1 JUMPDEST DUP2 SLOAD DUP2 MSTORE SWAP1 PUSH1 0x1 ADD SWAP1 PUSH1 0x20 ADD DUP1 DUP4 GT PUSH3 0xB10 JUMPI DUP3 SWAP1 SUB PUSH1 0x1F AND DUP3 ADD SWAP2 JUMPDEST POP POP POP POP POP DUP2 JUMP JUMPDEST PUSH1 0x8 PUSH1 0x20 MSTORE DUP1 PUSH1 0x0 MSTORE PUSH1 0x40 PUSH1 0x0 KECCAK256 PUSH1 0x0 SWAP2 POP SLOAD SWAP1 PUSH2 0x100 EXP SWAP1 DIV PUSH1 0xFF AND DUP2 JUMP JUMPDEST PUSH2 0x20FF DUP1 PUSH3 0x14BB DUP4 CODECOPY ADD SWAP1 JUMP JUMPDEST PUSH1 0x0 PUSH1 0x40 MLOAD SWAP1 POP SWAP1 JUMP JUMPDEST PUSH1 0x0 DUP1 REVERT JUMPDEST PUSH1 0x0 DUP1 REVERT JUMPDEST PUSH1 0x0 DUP1 REVERT JUMPDEST PUSH1 0x0 DUP1 REVERT JUMPDEST PUSH1 0x0 PUSH1 0x1F NOT PUSH1 0x1F DUP4 ADD AND SWAP1 POP SWAP2 SWAP1 POP JUMP JUMPDEST PUSH32 0x4E487B7100000000000000000000000000000000000000000000000000000000 PUSH1 0x0 MSTORE PUSH1 0x41 PUSH1 0x4 MSTORE PUSH1 0x24 PUSH1 0x0 REVERT JUMPDEST PUSH3 0xBCD DUP3 PUSH3 0xB82 JUMP JUMPDEST DUP2 ADD DUP2 DUP2 LT PUSH8 0xFFFFFFFFFFFFFFFF DUP3 GT OR ISZERO PUSH3 0xBEF JUMPI PUSH3 0xBEE PUSH3 0xB93 JUMP JUMPDEST JUMPDEST DUP1 PUSH1 0x40 MSTORE POP POP POP JUMP JUMPDEST PUSH1 0x0 PUSH3 0xC04 PUSH3 0xB64 JUMP JUMPDEST SWAP1 POP PUSH3 0xC12 DUP3 DUP3 PUSH3 0xBC2 JUMP JUMPDEST SWAP2 SWAP1 POP JUMP JUMPDEST PUSH1 0x0 PUSH8 0xFFFFFFFFFFFFFFFF DUP3 GT ISZERO PUSH3 0xC35 JUMPI PUSH3 0xC34 PUSH3 0xB93 JUMP JUMPDEST JUMPDEST PUSH3 0xC40 DUP3 PUSH3 0xB82 JUMP JUMPDEST SWAP1 POP PUSH1 0x20 DUP2 ADD SWAP1 POP SWAP2 SWAP1 POP JUMP JUMPDEST DUP3 DUP2 DUP4 CALLDATACOPY PUSH1 0x0 DUP4 DUP4 ADD MSTORE POP POP POP JUMP JUMPDEST PUSH1 0x0 PUSH3 0xC73 PUSH3 0xC6D DUP5 PUSH3 0xC17 JUMP JUMPDEST PUSH3 0xBF8 JUMP JUMPDEST SWAP1 POP DUP3 DUP2 MSTORE PUSH1 0x20 DUP2 ADD DUP5 DUP5 DUP5 ADD GT ISZERO PUSH3 0xC92 JUMPI PUSH3 0xC91 PUSH3 0xB7D JUMP JUMPDEST JUMPDEST PUSH3 0xC9F DUP5 DUP3 DUP6 PUSH3 0xC4D JUMP JUMPDEST POP SWAP4 SWAP3 POP POP POP JUMP JUMPDEST PUSH1 0x0 DUP3 PUSH1 0x1F DUP4 ADD SLT PUSH3 0xCBF JUMPI PUSH3 0xCBE PUSH3 0xB78 JUMP JUMPDEST JUMPDEST DUP2 CALLDATALOAD PUSH3 0xCD1 DUP5 DUP3 PUSH1 0x20 DUP7 ADD PUSH3 0xC5C JUMP JUMPDEST SWAP2 POP POP SWAP3 SWAP2 POP POP JUMP JUMPDEST PUSH1 0x0 DUP2 SWAP1 POP SWAP2 SWAP1 POP JUMP JUMPDEST PUSH3 0xCEF DUP2 PUSH3 0xCDA JUMP JUMPDEST DUP2 EQ PUSH3 0xCFB JUMPI PUSH1 0x0 DUP1 REVERT JUMPDEST POP JUMP JUMPDEST PUSH1 0x0 DUP2 CALLDATALOAD SWAP1 POP PUSH3 0xD0F DUP2 PUSH3 0xCE4 JUMP JUMPDEST SWAP3 SWAP2 POP POP JUMP JUMPDEST PUSH1 0x0 PUSH8 0xFFFFFFFFFFFFFFFF DUP3 GT ISZERO PUSH3 0xD33 JUMPI PUSH3 0xD32 PUSH3 0xB93 JUMP JUMPDEST JUMPDEST PUSH1 0x20 DUP3 MUL SWAP1 POP PUSH1 0x20 DUP2 ADD SWAP1 POP SWAP2 SWAP1 POP JUMP JUMPDEST PUSH1 0x0 DUP1 REVERT JUMPDEST PUSH1 0x0 PUSH20 0xFFFFFFFFFFFFFFFFFFFFFFFFFFFFFFFFFFFFFFFF DUP3 AND SWAP1 POP SWAP2 SWAP1 POP JUMP JUMPDEST PUSH1 0x0 PUSH3 0xD76 DUP3 PUSH3 0xD49 JUMP JUMPDEST SWAP1 POP SWAP2 SWAP1 POP JUMP JUMPDEST PUSH3 0xD88 DUP2 PUSH3 0xD69 JUMP JUMPDEST DUP2 EQ PUSH3 0xD94 JUMPI PUSH1 0x0 DUP1 REVERT JUMPDEST POP JUMP JUMPDEST PUSH1 0x0 DUP2 CALLDATALOAD SWAP1 POP PUSH3 0xDA8 DUP2 PUSH3 0xD7D JUMP JUMPDEST SWAP3 SWAP2 POP POP JUMP JUMPDEST PUSH1 0x0 PUSH3 0xDC5 PUSH3 0xDBF DUP5 PUSH3 0xD15 JUMP JUMPDEST PUSH3 0xBF8 JUMP JUMPDEST SWAP1 POP DUP1 DUP4 DUP3 MSTORE PUSH1 0x20 DUP3 ADD SWAP1 POP PUSH1 0x20 DUP5 MUL DUP4 ADD DUP6 DUP2 GT ISZERO PUSH3 0xDEB JUMPI PUSH3 0xDEA PUSH3 0xD44 JUMP JUMPDEST JUMPDEST DUP4 JUMPDEST DUP2 DUP2 LT ISZERO PUSH3 0xE18 JUMPI DUP1 PUSH3 0xE03 DUP9 DUP3 PUSH3 0xD97 JUMP JUMPDEST DUP5 MSTORE PUSH1 0x20 DUP5 ADD SWAP4 POP POP PUSH1 0x20 DUP2 ADD SWAP1 POP PUSH3 0xDED JUMP JUMPDEST POP POP POP SWAP4 SWAP3 POP POP POP JUMP JUMPDEST PUSH1 0x0 DUP3 PUSH1 0x1F DUP4 ADD SLT PUSH3 0xE3A JUMPI PUSH3 0xE39 PUSH3 0xB78 JUMP JUMPDEST JUMPDEST DUP2 CALLDATALOAD PUSH3 0xE4C DUP5 DUP3 PUSH1 0x20 DUP7 ADD PUSH3 0xDAE JUMP JUMPDEST SWAP2 POP POP SWAP3 SWAP2 POP POP JUMP JUMPDEST PUSH1 0x0 DUP1 PUSH1 0x0 DUP1 PUSH1 0x80 DUP6 DUP8 SUB SLT ISZERO PUSH3 0xE72 JUMPI PUSH3 0xE71 PUSH3 0xB6E JUMP JUMPDEST JUMPDEST PUSH1 0x0 DUP6 ADD CALLDATALOAD PUSH8 0xFFFFFFFFFFFFFFFF DUP2 GT ISZERO PUSH3 0xE93 JUMPI PUSH3 0xE92 PUSH3 0xB73 JUMP JUMPDEST JUMPDEST PUSH3 0xEA1 DUP8 DUP3 DUP9 ADD PUSH3 0xCA7 JUMP JUMPDEST SWAP5 POP POP PUSH1 0x20 DUP6 ADD CALLDATALOAD PUSH8 0xFFFFFFFFFFFFFFFF DUP2 GT ISZERO PUSH3 0xEC5 JUMPI PUSH3 0xEC4 PUSH3 0xB73 JUMP JUMPDEST JUMPDEST PUSH3 0xED3 DUP8 DUP3 DUP9 ADD PUSH3 0xCA7 JUMP JUMPDEST SWAP4 POP POP PUSH1 0x40 PUSH3 0xEE6 DUP8 DUP3 DUP9 ADD PUSH3 0xCFE JUMP JUMPDEST SWAP3 POP POP PUSH1 0x60 DUP6 ADD CALLDATALOAD PUSH8 0xFFFFFFFFFFFFFFFF DUP2 GT ISZERO PUSH3 0xF0A JUMPI PUSH3 0xF09 PUSH3 0xB73 JUMP JUMPDEST JUMPDEST PUSH3 0xF18 DUP8 DUP3 DUP9 ADD PUSH3 0xE22 JUMP JUMPDEST SWAP2 POP POP SWAP3 SWAP6 SWAP2 SWAP5 POP SWAP3 POP JUMP JUMPDEST PUSH32 0x4E487B7100000000000000000000000000000000000000000000000000000000 PUSH1 0x0 MSTORE PUSH1 0x21 PUSH1 0x4 MSTORE PUSH1 0x24 PUSH1 0x0 REVERT JUMPDEST PUSH1 0x3 DUP2 LT PUSH3 0xF67 JUMPI PUSH3 0xF66 PUSH3 0xF24 JUMP JUMPDEST JUMPDEST POP JUMP JUMPDEST PUSH1 0x0 DUP2 SWAP1 POP PUSH3 0xF7A DUP3 PUSH3 0xF53 JUMP JUMPDEST SWAP2 SWAP1 POP JUMP JUMPDEST PUSH1 0x0 PUSH3 0xF8C DUP3 PUSH3 0xF6A JUMP JUMPDEST SWAP1 POP SWAP2 SWAP1 POP JUMP JUMPDEST PUSH3 0xF9E DUP2 PUSH3 0xF7F JUMP JUMPDEST DUP3 MSTORE POP POP JUMP JUMPDEST PUSH1 0x0 PUSH1 0x20 DUP3 ADD SWAP1 POP PUSH3 0xFBB PUSH1 0x0 DUP4 ADD DUP5 PUSH3 0xF93 JUMP JUMPDEST SWAP3 SWAP2 POP POP JUMP JUMPDEST PUSH3 0xFCC DUP2 PUSH3 0xCDA JUMP JUMPDEST DUP3 MSTORE POP POP JUMP JUMPDEST PUSH1 0x0 PUSH1 0x20 DUP3 ADD SWAP1 POP PUSH3 0xFE9 PUSH1 0x0 DUP4 ADD DUP5 PUSH3 0xFC1 JUMP JUMPDEST SWAP3 SWAP2 POP POP JUMP JUMPDEST PUSH1 0x0 DUP2 MLOAD SWAP1 POP SWAP2 SWAP1 POP JUMP JUMPDEST PUSH1 0x0 DUP3 DUP3 MSTORE PUSH1 0x20 DUP3 ADD SWAP1 POP SWAP3 SWAP2 POP POP JUMP JUMPDEST PUSH1 0x0 JUMPDEST DUP4 DUP2 LT ISZERO PUSH3 0x102B JUMPI DUP1 DUP3 ADD MLOAD DUP2 DUP5 ADD MSTORE PUSH1 0x20 DUP2 ADD SWAP1 POP PUSH3 0x100E JUMP JUMPDEST PUSH1 0x0 DUP5 DUP5 ADD MSTORE POP POP POP POP JUMP JUMPDEST PUSH1 0x0 PUSH3 0x1044 DUP3 PUSH3 0xFEF JUMP JUMPDEST PUSH3 0x1050 DUP2 DUP6 PUSH3 0xFFA JUMP JUMPDEST SWAP4 POP PUSH3 0x1062 DUP2 DUP6 PUSH1 0x20 DUP7 ADD PUSH3 0x100B JUMP JUMPDEST PUSH3 0x106D DUP2 PUSH3 0xB82 JUMP JUMPDEST DUP5 ADD SWAP2 POP POP SWAP3 SWAP2 POP POP JUMP JUMPDEST PUSH1 0x0 PUSH1 0x20 DUP3 ADD SWAP1 POP DUP2 DUP2 SUB PUSH1 0x0 DUP4 ADD MSTORE PUSH3 0x1094 DUP2 DUP5 PUSH3 0x1037 JUMP JUMPDEST SWAP1 POP SWAP3 SWAP2 POP POP JUMP JUMPDEST PUSH1 0x0 DUP2 MLOAD SWAP1 POP SWAP2 SWAP1 POP JUMP JUMPDEST PUSH1 0x0 DUP3 DUP3 MSTORE PUSH1 0x20 DUP3 ADD SWAP1 POP SWAP3 SWAP2 POP POP JUMP JUMPDEST PUSH1 0x0 DUP2 SWAP1 POP PUSH1 0x20 DUP3 ADD SWAP1 POP SWAP2 SWAP1 POP JUMP JUMPDEST PUSH3 0x10D3 DUP2 PUSH3 0xD69 JUMP JUMPDEST DUP3 MSTORE POP POP JUMP JUMPDEST PUSH1 0x0 PUSH3 0x10E7 DUP4 DUP4 PUSH3 0x10C8 JUMP JUMPDEST PUSH1 0x20 DUP4 ADD SWAP1 POP SWAP3 SWAP2 POP POP JUMP JUMPDEST PUSH1 0x0 PUSH1 0x20 DUP3 ADD SWAP1 POP SWAP2 SWAP1 POP JUMP JUMPDEST PUSH1 0x0 PUSH3 0x110D DUP3 PUSH3 0x109C JUMP JUMPDEST PUSH3 0x1119 DUP2 DUP6 PUSH3 0x10A7 JUMP JUMPDEST SWAP4 POP PUSH3 0x1126 DUP4 PUSH3 0x10B8 JUMP JUMPDEST DUP1 PUSH1 0x0 JUMPDEST DUP4 DUP2 LT ISZERO PUSH3 0x115D JUMPI DUP2 MLOAD PUSH3 0x1141 DUP9 DUP3 PUSH3 0x10D9 JUMP JUMPDEST SWAP8 POP PUSH3 0x114E DUP4 PUSH3 0x10F3 JUMP JUMPDEST SWAP3 POP POP PUSH1 0x1 DUP2 ADD SWAP1 POP PUSH3 0x112A JUMP JUMPDEST POP DUP6 SWAP4 POP POP POP POP SWAP3 SWAP2 POP POP JUMP JUMPDEST PUSH1 0x0 PUSH1 0x20 DUP3 ADD SWAP1 POP DUP2 DUP2 SUB PUSH1 0x0 DUP4 ADD MSTORE PUSH3 0x1186 DUP2 DUP5 PUSH3 0x1100 JUMP JUMPDEST SWAP1 POP SWAP3 SWAP2 POP POP JUMP JUMPDEST PUSH3 0x1199 DUP2 PUSH3 0xD69 JUMP JUMPDEST DUP3 MSTORE POP POP JUMP JUMPDEST PUSH1 0x0 PUSH1 0x20 DUP3 ADD SWAP1 POP PUSH3 0x11B6 PUSH1 0x0 DUP4 ADD DUP5 PUSH3 0x118E JUMP JUMPDEST SWAP3 SWAP2 POP POP JUMP JUMPDEST PUSH1 0x0 PUSH1 0x20 DUP3 DUP5 SUB SLT ISZERO PUSH3 0x11D5 JUMPI PUSH3 0x11D4 PUSH3 0xB6E JUMP JUMPDEST JUMPDEST PUSH1 0x0 PUSH3 0x11E5 DUP5 DUP3 DUP6 ADD PUSH3 0xCFE JUMP JUMPDEST SWAP2 POP POP SWAP3 SWAP2 POP POP JUMP JUMPDEST PUSH1 0x0 PUSH1 0x20 DUP3 DUP5 SUB SLT ISZERO PUSH3 0x1207 JUMPI PUSH3 0x1206 PUSH3 0xB6E JUMP JUMPDEST JUMPDEST PUSH1 0x0 PUSH3 0x1217 DUP5 DUP3 DUP6 ADD PUSH3 0xD97 JUMP JUMPDEST SWAP2 POP POP SWAP3 SWAP2 POP POP JUMP JUMPDEST PUSH1 0x0 DUP2 ISZERO ISZERO SWAP1 POP SWAP2 SWAP1 POP JUMP JUMPDEST PUSH3 0x1237 DUP2 PUSH3 0x1220 JUMP JUMPDEST DUP3 MSTORE POP POP JUMP JUMPDEST PUSH1 0x0 PUSH1 0x20 DUP3 ADD SWAP1 POP PUSH3 0x1254 PUSH1 0x0 DUP4 ADD DUP5 PUSH3 0x122C JUMP JUMPDEST SWAP3 SWAP2 POP POP JUMP JUMPDEST PUSH32 0x4E6F74206F776E65720000000000000000000000000000000000000000000000 PUSH1 0x0 DUP3 ADD MSTORE POP JUMP JUMPDEST PUSH1 0x0 PUSH3 0x1292 PUSH1 0x9 DUP4 PUSH3 0xFFA JUMP JUMPDEST SWAP2 POP PUSH3 0x129F DUP3 PUSH3 0x125A JUMP JUMPDEST PUSH1 0x20 DUP3 ADD SWAP1 POP SWAP2 SWAP1 POP JUMP JUMPDEST PUSH1 0x0 PUSH1 0x20 DUP3 ADD SWAP1 POP DUP2 DUP2 SUB PUSH1 0x0 DUP4 ADD MSTORE PUSH3 0x12C5 DUP2 PUSH3 0x1283 JUMP JUMPDEST SWAP1 POP SWAP2 SWAP1 POP JUMP JUMPDEST PUSH32 0x4E6F742061637469766500000000000000000000000000000000000000000000 PUSH1 0x0 DUP3 ADD MSTORE POP JUMP JUMPDEST PUSH1 0x0 PUSH3 0x1304 PUSH1 0xA DUP4 PUSH3 0xFFA JUMP JUMPDEST SWAP2 POP PUSH3 0x1311 DUP3 PUSH3 0x12CC JUMP JUMPDEST PUSH1 0x20 DUP3 ADD SWAP1 POP SWAP2 SWAP1 POP JUMP JUMPDEST PUSH1 0x0 PUSH1 0x20 DUP3 ADD SWAP1 POP DUP2 DUP2 SUB PUSH1 0x0 DUP4 ADD MSTORE PUSH3 0x1337 DUP2 PUSH3 0x12F5 JUMP JUMPDEST SWAP1 POP SWAP2 SWAP1 POP JUMP JUMPDEST PUSH1 0x0 PUSH1 0xA0 DUP3 ADD SWAP1 POP DUP2 DUP2 SUB PUSH1 0x0 DUP4 ADD MSTORE PUSH3 0x135A DUP2 DUP9 PUSH3 0x1037 JUMP JUMPDEST SWAP1 POP DUP2 DUP2 SUB PUSH1 0x20 DUP4 ADD MSTORE PUSH3 0x1370 DUP2 DUP8 PUSH3 0x1037 JUMP JUMPDEST SWAP1 POP PUSH3 0x1381 PUSH1 0x40 DUP4 ADD DUP7 PUSH3 0xFC1 JUMP JUMPDEST DUP2 DUP2 SUB PUSH1 0x60 DUP4 ADD MSTORE PUSH3 0x1395 DUP2 DUP6 PUSH3 0x1100 JUMP JUMPDEST SWAP1 POP PUSH3 0x13A6 PUSH1 0x80 DUP4 ADD DUP5 PUSH3 0x118E JUMP JUMPDEST SWAP7 SWAP6 POP POP POP POP POP POP JUMP JUMPDEST PUSH1 0x0 PUSH1 0x40 DUP3 ADD SWAP1 POP PUSH3 0x13C7 PUSH1 0x0 DUP4 ADD DUP6 PUSH3 0x118E JUMP JUMPDEST DUP2 DUP2 SUB PUSH1 0x20 DUP4 ADD MSTORE PUSH3 0x13DB DUP2 DUP5 PUSH3 0x1037 JUMP JUMPDEST SWAP1 POP SWAP4 SWAP3 POP POP POP JUMP JUMPDEST PUSH32 0x4E487B7100000000000000000000000000000000000000000000000000000000 PUSH1 0x0 MSTORE PUSH1 0x22 PUSH1 0x4 MSTORE PUSH1 0x24 PUSH1 0x0 REVERT JUMPDEST PUSH1 0x0 PUSH1 0x2 DUP3 DIV SWAP1 POP PUSH1 0x1 DUP3 AND DUP1 PUSH3 0x142C JUMPI PUSH1 0x7F DUP3 AND SWAP2 POP JUMPDEST PUSH1 0x20 DUP3 LT DUP2 SUB PUSH3 0x1442 JUMPI PUSH3 0x1441 PUSH3 0x13E4 JUMP JUMPDEST JUMPDEST POP SWAP2 SWAP1 POP JUMP JUMPDEST PUSH32 0x416C72656164792073746172746564206F7220636C6F73656400000000000000 PUSH1 0x0 DUP3 ADD MSTORE POP JUMP JUMPDEST PUSH1 0x0 PUSH3 0x1480 PUSH1 0x19 DUP4 PUSH3 0xFFA JUMP JUMPDEST SWAP2 POP PUSH3 0x148D DUP3 PUSH3 0x1448 JUMP JUMPDEST PUSH1 0x20 DUP3 ADD SWAP1 POP SWAP2 SWAP1 POP JUMP JUMPDEST PUSH1 0x0 PUSH1 0x20 DUP3 ADD SWAP1 POP DUP2 DUP2 SUB PUSH1 0x0 DUP4 ADD MSTORE PUSH3 0x14B3 DUP2 PUSH3 0x1471 JUMP JUMPDEST SWAP1 POP SWAP2 SWAP1 POP JUMP INVALID PUSH1 0x80 PUSH1 0x40 MSTORE CALLVALUE DUP1 ISZERO PUSH3 0x11 JUMPI PUSH1 0x0 DUP1 REVERT JUMPDEST POP PUSH1 0x40 MLOAD PUSH3 0x20FF CODESIZE SUB DUP1 PUSH3 0x20FF DUP4 CODECOPY DUP2 DUP2 ADD PUSH1 0x40 MSTORE DUP2 ADD SWAP1 PUSH3 0x37 SWAP2 SWAP1 PUSH3 0x51C JUMP JUMPDEST DUP5 PUSH1 0x0 SWAP1 DUP2 PUSH3 0x48 SWAP2 SWAP1 PUSH3 0x842 JUMP JUMPDEST POP DUP4 PUSH1 0x1 SWAP1 DUP2 PUSH3 0x5A SWAP2 SWAP1 PUSH3 0x842 JUMP JUMPDEST POP DUP3 PUSH1 0x2 DUP2 SWAP1 SSTORE POP DUP1 PUSH1 0x3 PUSH1 0x0 PUSH2 0x100 EXP DUP2 SLOAD DUP2 PUSH20 0xFFFFFFFFFFFFFFFFFFFFFFFFFFFFFFFFFFFFFFFF MUL NOT AND SWAP1 DUP4 PUSH20 0xFFFFFFFFFFFFFFFFFFFFFFFFFFFFFFFFFFFFFFFF AND MUL OR SWAP1 SSTORE POP DUP2 PUSH1 0x4 SWAP1 DUP1 MLOAD SWAP1 PUSH1 0x20 ADD SWAP1 PUSH3 0xBB SWAP3 SWAP2 SWAP1 PUSH3 0x160 JUMP JUMPDEST POP PUSH1 0x0 JUMPDEST DUP3 MLOAD DUP2 LT ISZERO PUSH3 0x154 JUMPI PUSH1 0x1 PUSH1 0x6 PUSH1 0x0 DUP6 DUP5 DUP2 MLOAD DUP2 LT PUSH3 0xE5 JUMPI PUSH3 0xE4 PUSH3 0x929 JUMP JUMPDEST JUMPDEST PUSH1 0x20 MUL PUSH1 0x20 ADD ADD MLOAD PUSH20 0xFFFFFFFFFFFFFFFFFFFFFFFFFFFFFFFFFFFFFFFF AND PUSH20 0xFFFFFFFFFFFFFFFFFFFFFFFFFFFFFFFFFFFFFFFF AND DUP2 MSTORE PUSH1 0x20 ADD SWAP1 DUP2 MSTORE PUSH1 0x20 ADD PUSH1 0x0 KECCAK256 PUSH1 0x0 PUSH2 0x100 EXP DUP2 SLOAD DUP2 PUSH1 0xFF MUL NOT AND SWAP1 DUP4 ISZERO ISZERO MUL OR SWAP1 SSTORE POP DUP1 DUP1 PUSH3 0x14B SWAP1 PUSH3 0x987 JUMP JUMPDEST SWAP2 POP POP PUSH3 0xBF JUMP JUMPDEST POP POP POP POP POP POP PUSH3 0x9D4 JUMP JUMPDEST DUP3 DUP1 SLOAD DUP3 DUP3 SSTORE SWAP1 PUSH1 0x0 MSTORE PUSH1 0x20 PUSH1 0x0 KECCAK256 SWAP1 DUP2 ADD SWAP3 DUP3 ISZERO PUSH3 0x1DC JUMPI SWAP2 PUSH1 0x20 MUL DUP3 ADD JUMPDEST DUP3 DUP2 GT ISZERO PUSH3 0x1DB JUMPI DUP3 MLOAD DUP3 PUSH1 0x0 PUSH2 0x100 EXP DUP2 SLOAD DUP2 PUSH20 0xFFFFFFFFFFFFFFFFFFFFFFFFFFFFFFFFFFFFFFFF MUL NOT AND SWAP1 DUP4 PUSH20 0xFFFFFFFFFFFFFFFFFFFFFFFFFFFFFFFFFFFFFFFF AND MUL OR SWAP1 SSTORE POP SWAP2 PUSH1 0x20 ADD SWAP2 SWAP1 PUSH1 0x1 ADD SWAP1 PUSH3 0x181 JUMP JUMPDEST JUMPDEST POP SWAP1 POP PUSH3 0x1EB SWAP2 SWAP1 PUSH3 0x1EF JUMP JUMPDEST POP SWAP1 JUMP JUMPDEST JUMPDEST DUP1 DUP3 GT ISZERO PUSH3 0x20A JUMPI PUSH1 0x0 DUP2 PUSH1 0x0 SWAP1 SSTORE POP PUSH1 0x1 ADD PUSH3 0x1F0 JUMP JUMPDEST POP SWAP1 JUMP JUMPDEST PUSH1 0x0 PUSH1 0x40 MLOAD SWAP1 POP SWAP1 JUMP JUMPDEST PUSH1 0x0 DUP1 REVERT JUMPDEST PUSH1 0x0 DUP1 REVERT JUMPDEST PUSH1 0x0 DUP1 REVERT JUMPDEST PUSH1 0x0 DUP1 REVERT JUMPDEST PUSH1 0x0 PUSH1 0x1F NOT PUSH1 0x1F DUP4 ADD AND SWAP1 POP SWAP2 SWAP1 POP JUMP JUMPDEST PUSH32 0x4E487B7100000000000000000000000000000000000000000000000000000000 PUSH1 0x0 MSTORE PUSH1 0x41 PUSH1 0x4 MSTORE PUSH1 0x24 PUSH1 0x0 REVERT JUMPDEST PUSH3 0x277 DUP3 PUSH3 0x22C JUMP JUMPDEST DUP2 ADD DUP2 DUP2 LT PUSH8 0xFFFFFFFFFFFFFFFF DUP3 GT OR ISZERO PUSH3 0x299 JUMPI PUSH3 0x298 PUSH3 0x23D JUMP JUMPDEST JUMPDEST DUP1 PUSH1 0x40 MSTORE POP POP POP JUMP JUMPDEST PUSH1 0x0 PUSH3 0x2AE PUSH3 0x20E JUMP JUMPDEST SWAP1 POP PUSH3 0x2BC DUP3 DUP3 PUSH3 0x26C JUMP JUMPDEST SWAP2 SWAP1 POP JUMP JUMPDEST PUSH1 0x0 PUSH8 0xFFFFFFFFFFFFFFFF DUP3 GT ISZERO PUSH3 0x2DF JUMPI PUSH3 0x2DE PUSH3 0x23D JUMP JUMPDEST JUMPDEST PUSH3 0x2EA DUP3 PUSH3 0x22C JUMP JUMPDEST SWAP1 POP PUSH1 0x20 DUP2 ADD SWAP1 POP SWAP2 SWAP1 POP JUMP JUMPDEST PUSH1 0x0 JUMPDEST DUP4 DUP2 LT ISZERO PUSH3 0x317 JUMPI DUP1 DUP3 ADD MLOAD DUP2 DUP5 ADD MSTORE PUSH1 0x20 DUP2 ADD SWAP1 POP PUSH3 0x2FA JUMP JUMPDEST PUSH1 0x0 DUP5 DUP5 ADD MSTORE POP POP POP POP JUMP JUMPDEST PUSH1 0x0 PUSH3 0x33A PUSH3 0x334 DUP5 PUSH3 0x2C1 JUMP JUMPDEST PUSH3 0x2A2 JUMP JUMPDEST SWAP1 POP DUP3 DUP2 MSTORE PUSH1 0x20 DUP2 ADD DUP5 DUP5 DUP5 ADD GT ISZERO PUSH3 0x359 JUMPI PUSH3 0x358 PUSH3 0x227 JUMP JUMPDEST JUMPDEST PUSH3 0x366 DUP5 DUP3 DUP6 PUSH3 0x2F7 JUMP JUMPDEST POP SWAP4 SWAP3 POP POP POP JUMP JUMPDEST PUSH1 0x0 DUP3 PUSH1 0x1F DUP4 ADD SLT PUSH3 0x386 JUMPI PUSH3 0x385 PUSH3 0x222 JUMP JUMPDEST JUMPDEST DUP2 MLOAD PUSH3 0x398 DUP5 DUP3 PUSH1 0x20 DUP7 ADD PUSH3 0x323 JUMP JUMPDEST SWAP2 POP POP SWAP3 SWAP2 POP POP JUMP JUMPDEST PUSH1 0x0 DUP2 SWAP1 POP SWAP2 SWAP1 POP JUMP JUMPDEST PUSH3 0x3B6 DUP2 PUSH3 0x3A1 JUMP JUMPDEST DUP2 EQ PUSH3 0x3C2 JUMPI PUSH1 0x0 DUP1 REVERT JUMPDEST POP JUMP JUMPDEST PUSH1 0x0 DUP2 MLOAD SWAP1 POP PUSH3 0x3D6 DUP2 PUSH3 0x3AB JUMP JUMPDEST SWAP3 SWAP2 POP POP JUMP JUMPDEST PUSH1 0x0 PUSH8 0xFFFFFFFFFFFFFFFF DUP3 GT ISZERO PUSH3 0x3FA JUMPI PUSH3 0x3F9 PUSH3 0x23D JUMP JUMPDEST JUMPDEST PUSH1 0x20 DUP3 MUL SWAP1 POP PUSH1 0x20 DUP2 ADD SWAP1 POP SWAP2 SWAP1 POP JUMP JUMPDEST PUSH1 0x0 DUP1 REVERT JUMPDEST PUSH1 0x0 PUSH20 0xFFFFFFFFFFFFFFFFFFFFFFFFFFFFFFFFFFFFFFFF DUP3 AND SWAP1 POP SWAP2 SWAP1 POP JUMP JUMPDEST PUSH1 0x0 PUSH3 0x43D DUP3 PUSH3 0x410 JUMP JUMPDEST SWAP1 POP SWAP2 SWAP1 POP JUMP JUMPDEST PUSH3 0x44F DUP2 PUSH3 0x430 JUMP JUMPDEST DUP2 EQ PUSH3 0x45B JUMPI PUSH1 0x0 DUP1 REVERT JUMPDEST POP JUMP JUMPDEST PUSH1 0x0 DUP2 MLOAD SWAP1 POP PUSH3 0x46F DUP2 PUSH3 0x444 JUMP JUMPDEST SWAP3 SWAP2 POP POP JUMP JUMPDEST PUSH1 0x0 PUSH3 0x48C PUSH3 0x486 DUP5 PUSH3 0x3DC JUMP JUMPDEST PUSH3 0x2A2 JUMP JUMPDEST SWAP1 POP DUP1 DUP4 DUP3 MSTORE PUSH1 0x20 DUP3 ADD SWAP1 POP PUSH1 0x20 DUP5 MUL DUP4 ADD DUP6 DUP2 GT ISZERO PUSH3 0x4B2 JUMPI PUSH3 0x4B1 PUSH3 0x40B JUMP JUMPDEST JUMPDEST DUP4 JUMPDEST DUP2 DUP2 LT ISZERO PUSH3 0x4DF JUMPI DUP1 PUSH3 0x4CA DUP9 DUP3 PUSH3 0x45E JUMP JUMPDEST DUP5 MSTORE PUSH1 0x20 DUP5 ADD SWAP4 POP POP PUSH1 0x20 DUP2 ADD SWAP1 POP PUSH3 0x4B4 JUMP JUMPDEST POP POP POP SWAP4 SWAP3 POP POP POP JUMP JUMPDEST PUSH1 0x0 DUP3 PUSH1 0x1F DUP4 ADD SLT PUSH3 0x501 JUMPI PUSH3 0x500 PUSH3 0x222 JUMP JUMPDEST JUMPDEST DUP2 MLOAD PUSH3 0x513 DUP5 DUP3 PUSH1 0x20 DUP7 ADD PUSH3 0x475 JUMP JUMPDEST SWAP2 POP POP SWAP3 SWAP2 POP POP JUMP JUMPDEST PUSH1 0x0 DUP1 PUSH1 0x0 DUP1 PUSH1 0x0 PUSH1 0xA0 DUP7 DUP9 SUB SLT ISZERO PUSH3 0x53B JUMPI PUSH3 0x53A PUSH3 0x218 JUMP JUMPDEST JUMPDEST PUSH1 0x0 DUP7 ADD MLOAD PUSH8 0xFFFFFFFFFFFFFFFF DUP2 GT ISZERO PUSH3 0x55C JUMPI PUSH3 0x55B PUSH3 0x21D JUMP JUMPDEST JUMPDEST PUSH3 0x56A DUP9 DUP3 DUP10 ADD PUSH3 0x36E JUMP JUMPDEST SWAP6 POP POP PUSH1 0x20 DUP7 ADD MLOAD PUSH8 0xFFFFFFFFFFFFFFFF DUP2 GT ISZERO PUSH3 0x58E JUMPI PUSH3 0x58D PUSH3 0x21D JUMP JUMPDEST JUMPDEST PUSH3 0x59C DUP9 DUP3 DUP10 ADD PUSH3 0x36E JUMP JUMPDEST SWAP5 POP POP PUSH1 0x40 PUSH3 0x5AF DUP9 DUP3 DUP10 ADD PUSH3 0x3C5 JUMP JUMPDEST SWAP4 POP POP PUSH1 0x60 DUP7 ADD MLOAD PUSH8 0xFFFFFFFFFFFFFFFF DUP2 GT ISZERO PUSH3 0x5D3 JUMPI PUSH3 0x5D2 PUSH3 0x21D JUMP JUMPDEST JUMPDEST PUSH3 0x5E1 DUP9 DUP3 DUP10 ADD PUSH3 0x4E9 JUMP JUMPDEST SWAP3 POP POP PUSH1 0x80 PUSH3 0x5F4 DUP9 DUP3 DUP10 ADD PUSH3 0x45E JUMP JUMPDEST SWAP2 POP POP SWAP3 SWAP6 POP SWAP3 SWAP6 SWAP1 SWAP4 POP JUMP JUMPDEST PUSH1 0x0 DUP2 MLOAD SWAP1 POP SWAP2 SWAP1 POP JUMP JUMPDEST PUSH32 0x4E487B7100000000000000000000000000000000000000000000000000000000 PUSH1 0x0 MSTORE PUSH1 0x22 PUSH1 0x4 MSTORE PUSH1 0x24 PUSH1 0x0 REVERT JUMPDEST PUSH1 0x0 PUSH1 0x2 DUP3 DIV SWAP1 POP PUSH1 0x1 DUP3 AND DUP1 PUSH3 0x654 JUMPI PUSH1 0x7F DUP3 AND SWAP2 POP JUMPDEST PUSH1 0x20 DUP3 LT DUP2 SUB PUSH3 0x66A JUMPI PUSH3 0x669 PUSH3 0x60C JUMP JUMPDEST JUMPDEST POP SWAP2 SWAP1 POP JUMP JUMPDEST PUSH1 0x0 DUP2 SWAP1 POP DUP2 PUSH1 0x0 MSTORE PUSH1 0x20 PUSH1 0x0 KECCAK256 SWAP1 POP SWAP2 SWAP1 POP JUMP JUMPDEST PUSH1 0x0 PUSH1 0x20 PUSH1 0x1F DUP4 ADD DIV SWAP1 POP SWAP2 SWAP1 POP JUMP JUMPDEST PUSH1 0x0 DUP3 DUP3 SHL SWAP1 POP SWAP3 SWAP2 POP POP JUMP JUMPDEST PUSH1 0x0 PUSH1 0x8 DUP4 MUL PUSH3 0x6D4 PUSH32 0xFFFFFFFFFFFFFFFFFFFFFFFFFFFFFFFFFFFFFFFFFFFFFFFFFFFFFFFFFFFFFFFF DUP3 PUSH3 0x695 JUMP JUMPDEST PUSH3 0x6E0 DUP7 DUP4 PUSH3 0x695 JUMP JUMPDEST SWAP6 POP DUP1 NOT DUP5 AND SWAP4 POP DUP1 DUP7 AND DUP5 OR SWAP3 POP POP POP SWAP4 SWAP3 POP POP POP JUMP JUMPDEST PUSH1 0x0 DUP2 SWAP1 POP SWAP2 SWAP1 POP JUMP JUMPDEST PUSH1 0x0 PUSH3 0x723 PUSH3 0x71D PUSH3 0x717 DUP5 PUSH3 0x3A1 JUMP JUMPDEST PUSH3 0x6F8 JUMP JUMPDEST PUSH3 0x3A1 JUMP JUMPDEST SWAP1 POP SWAP2 SWAP1 POP JUMP JUMPDEST PUSH1 0x0 DUP2 SWAP1 POP SWAP2 SWAP1 POP JUMP JUMPDEST PUSH3 0x73F DUP4 PUSH3 0x702 JUMP JUMPDEST PUSH3 0x757 PUSH3 0x74E DUP3 PUSH3 0x72A JUMP JUMPDEST DUP5 DUP5 SLOAD PUSH3 0x6A2 JUMP JUMPDEST DUP3 SSTORE POP POP POP POP JUMP JUMPDEST PUSH1 0x0 SWAP1 JUMP JUMPDEST PUSH3 0x76E PUSH3 0x75F JUMP JUMPDEST PUSH3 0x77B DUP2 DUP5 DUP5 PUSH3 0x734 JUMP JUMPDEST POP POP POP JUMP JUMPDEST JUMPDEST DUP2 DUP2 LT ISZERO PUSH3 0x7A3 JUMPI PUSH3 0x797 PUSH1 0x0 DUP3 PUSH3 0x764 JUMP JUMPDEST PUSH1 0x1 DUP2 ADD SWAP1 POP PUSH3 0x781 JUMP JUMPDEST POP POP JUMP JUMPDEST PUSH1 0x1F DUP3 GT ISZERO PUSH3 0x7F2 JUMPI PUSH3 0x7BC DUP2 PUSH3 0x670 JUMP JUMPDEST PUSH3 0x7C7 DUP5 PUSH3 0x685 JUMP JUMPDEST DUP2 ADD PUSH1 0x20 DUP6 LT ISZERO PUSH3 0x7D7 JUMPI DUP2 SWAP1 POP JUMPDEST PUSH3 0x7EF PUSH3 0x7E6 DUP6 PUSH3 0x685 JUMP JUMPDEST DUP4 ADD DUP3 PUSH3 0x780 JUMP JUMPDEST POP POP JUMPDEST POP POP POP JUMP JUMPDEST PUSH1 0x0 DUP3 DUP3 SHR SWAP1 POP SWAP3 SWAP2 POP POP JUMP JUMPDEST PUSH1 0x0 PUSH3 0x817 PUSH1 0x0 NOT DUP5 PUSH1 0x8 MUL PUSH3 0x7F7 JUMP JUMPDEST NOT DUP1 DUP4 AND SWAP2 POP POP SWAP3 SWAP2 POP POP JUMP JUMPDEST PUSH1 0x0 PUSH3 0x832 DUP4 DUP4 PUSH3 0x804 JUMP JUMPDEST SWAP2 POP DUP3 PUSH1 0x2 MUL DUP3 OR SWAP1 POP SWAP3 SWAP2 POP POP JUMP JUMPDEST PUSH3 0x84D DUP3 PUSH3 0x601 JUMP JUMPDEST PUSH8 0xFFFFFFFFFFFFFFFF DUP2 GT ISZERO PUSH3 0x869 JUMPI PUSH3 0x868 PUSH3 0x23D JUMP JUMPDEST JUMPDEST PUSH3 0x875 DUP3 SLOAD PUSH3 0x63B JUMP JUMPDEST PUSH3 0x882 DUP3 DUP3 DUP6 PUSH3 0x7A7 JUMP JUMPDEST PUSH1 0x0 PUSH1 0x20 SWAP1 POP PUSH1 0x1F DUP4 GT PUSH1 0x1 DUP2 EQ PUSH3 0x8BA JUMPI PUSH1 0x0 DUP5 ISZERO PUSH3 0x8A5 JUMPI DUP3 DUP8 ADD MLOAD SWAP1 POP JUMPDEST PUSH3 0x8B1 DUP6 DUP3 PUSH3 0x824 JUMP JUMPDEST DUP7 SSTORE POP PUSH3 0x921 JUMP JUMPDEST PUSH1 0x1F NOT DUP5 AND PUSH3 0x8CA DUP7 PUSH3 0x670 JUMP JUMPDEST PUSH1 0x0 JUMPDEST DUP3 DUP2 LT ISZERO PUSH3 0x8F4 JUMPI DUP5 DUP10 ADD MLOAD DUP3 SSTORE PUSH1 0x1 DUP3 ADD SWAP2 POP PUSH1 0x20 DUP6 ADD SWAP5 POP PUSH1 0x20 DUP2 ADD SWAP1 POP PUSH3 0x8CD JUMP JUMPDEST DUP7 DUP4 LT ISZERO PUSH3 0x914 JUMPI DUP5 DUP10 ADD MLOAD PUSH3 0x910 PUSH1 0x1F DUP10 AND DUP3 PUSH3 0x804 JUMP JUMPDEST DUP4 SSTORE POP JUMPDEST PUSH1 0x1 PUSH1 0x2 DUP9 MUL ADD DUP9 SSTORE POP POP POP JUMPDEST POP POP POP POP POP POP JUMP JUMPDEST PUSH32 0x4E487B7100000000000000000000000000000000000000000000000000000000 PUSH1 0x0 MSTORE PUSH1 0x32 PUSH1 0x4 MSTORE PUSH1 0x24 PUSH1 0x0 REVERT JUMPDEST PUSH32 0x4E487B7100000000000000000000000000000000000000000000000000000000 PUSH1 0x0 MSTORE PUSH1 0x11 PUSH1 0x4 MSTORE PUSH1 0x24 PUSH1 0x0 REVERT JUMPDEST PUSH1 0x0 PUSH3 0x994 DUP3 PUSH3 0x3A1 JUMP JUMPDEST SWAP2 POP PUSH32 0xFFFFFFFFFFFFFFFFFFFFFFFFFFFFFFFFFFFFFFFFFFFFFFFFFFFFFFFFFFFFFFFF DUP3 SUB PUSH3 0x9C9 JUMPI PUSH3 0x9C8 PUSH3 0x958 JUMP JUMPDEST JUMPDEST PUSH1 0x1 DUP3 ADD SWAP1 POP SWAP2 SWAP1 POP JUMP JUMPDEST PUSH2 0x171B DUP1 PUSH3 0x9E4 PUSH1 0x0 CODECOPY PUSH1 0x0 RETURN INVALID PUSH1 0x80 PUSH1 0x40 MSTORE CALLVALUE DUP1 ISZERO PUSH2 0x10 JUMPI PUSH1 0x0 DUP1 REVERT JUMPDEST POP PUSH1 0x4 CALLDATASIZE LT PUSH2 0x10B JUMPI PUSH1 0x0 CALLDATALOAD PUSH1 0xE0 SHR DUP1 PUSH4 0x6901F668 GT PUSH2 0xA2 JUMPI DUP1 PUSH4 0xBD842A11 GT PUSH2 0x71 JUMPI DUP1 PUSH4 0xBD842A11 EQ PUSH2 0x285 JUMPI DUP1 PUSH4 0xCC2EE196 EQ PUSH2 0x2B5 JUMPI DUP1 PUSH4 0xE313D528 EQ PUSH2 0x2D3 JUMPI DUP1 PUSH4 0xEDC550DC EQ PUSH2 0x2F1 JUMPI DUP1 PUSH4 0xFA6F3936 EQ PUSH2 0x30D JUMPI PUSH2 0x10B JUMP JUMPDEST DUP1 PUSH4 0x6901F668 EQ PUSH2 0x223 JUMPI DUP1 PUSH4 0x7284E416 EQ PUSH2 0x22D JUMPI DUP1 PUSH4 0x75A12D72 EQ PUSH2 0x24B JUMPI DUP1 PUSH4 0xA6BD5427 EQ PUSH2 0x267 JUMPI PUSH2 0x10B JUMP JUMPDEST DUP1 PUSH4 0x414EB814 GT PUSH2 0xDE JUMPI DUP1 PUSH4 0x414EB814 EQ PUSH2 0x1AB JUMPI DUP1 PUSH4 0x42169E48 EQ PUSH2 0x1C9 JUMPI DUP1 PUSH4 0x4A79D50C EQ PUSH2 0x1E7 JUMPI DUP1 PUSH4 0x53957834 EQ PUSH2 0x205 JUMPI PUSH2 0x10B JUMP JUMPDEST DUP1 PUSH4 0x846C0EE EQ PUSH2 0x110 JUMPI DUP1 PUSH4 0x1B4613CB EQ PUSH2 0x12C JUMPI DUP1 PUSH4 0x31474A5E EQ PUSH2 0x15C JUMPI DUP1 PUSH4 0x409E2205 EQ PUSH2 0x17A JUMPI JUMPDEST PUSH1 0x0 DUP1 REVERT JUMPDEST PUSH2 0x12A PUSH1 0x4 DUP1 CALLDATASIZE SUB DUP2 ADD SWAP1 PUSH2 0x125 SWAP2 SWAP1 PUSH2 0xCDA JUMP JUMPDEST PUSH2 0x33D JUMP JUMPDEST STOP JUMPDEST PUSH2 0x146 PUSH1 0x4 DUP1 CALLDATASIZE SUB DUP2 ADD SWAP1 PUSH2 0x141 SWAP2 SWAP1 PUSH2 0xD59 JUMP JUMPDEST PUSH2 0x44B JUMP JUMPDEST PUSH1 0x40 MLOAD PUSH2 0x153 SWAP2 SWAP1 PUSH2 0xDA1 JUMP JUMPDEST PUSH1 0x40 MLOAD DUP1 SWAP2 SUB SWAP1 RETURN JUMPDEST PUSH2 0x164 PUSH2 0x46B JUMP JUMPDEST PUSH1 0x40 MLOAD PUSH2 0x171 SWAP2 SWAP1 PUSH2 0xDA1 JUMP JUMPDEST PUSH1 0x40 MLOAD DUP1 SWAP2 SUB SWAP1 RETURN JUMPDEST PUSH2 0x194 PUSH1 0x4 DUP1 CALLDATASIZE SUB DUP2 ADD SWAP1 PUSH2 0x18F SWAP2 SWAP1 PUSH2 0xDF2 JUMP JUMPDEST PUSH2 0x47E JUMP JUMPDEST PUSH1 0x40 MLOAD PUSH2 0x1A2 SWAP3 SWAP2 SWAP1 PUSH2 0xEAD JUMP JUMPDEST PUSH1 0x40 MLOAD DUP1 SWAP2 SUB SWAP1 RETURN JUMPDEST PUSH2 0x1B3 PUSH2 0x53A JUMP JUMPDEST PUSH1 0x40 MLOAD PUSH2 0x1C0 SWAP2 SWAP1 PUSH2 0xDA1 JUMP JUMPDEST PUSH1 0x40 MLOAD DUP1 SWAP2 SUB SWAP1 RETURN JUMPDEST PUSH2 0x1D1 PUSH2 0x54D JUMP JUMPDEST PUSH1 0x40 MLOAD PUSH2 0x1DE SWAP2 SWAP1 PUSH2 0xEDD JUMP JUMPDEST PUSH1 0x40 MLOAD DUP1 SWAP2 SUB SWAP1 RETURN JUMPDEST PUSH2 0x1EF PUSH2 0x553 JUMP JUMPDEST PUSH1 0x40 MLOAD PUSH2 0x1FC SWAP2 SWAP1 PUSH2 0xEF8 JUMP JUMPDEST PUSH1 0x40 MLOAD DUP1 SWAP2 SUB SWAP1 RETURN JUMPDEST PUSH2 0x20D PUSH2 0x5E1 JUMP JUMPDEST PUSH1 0x40 MLOAD PUSH2 0x21A SWAP2 SWAP1 PUSH2 0xEF8 JUMP JUMPDEST PUSH1 0x40 MLOAD DUP1 SWAP2 SUB SWAP1 RETURN JUMPDEST PUSH2 0x22B PUSH2 0x66F JUMP JUMPDEST STOP JUMPDEST PUSH2 0x235 PUSH2 0x76A JUMP JUMPDEST PUSH1 0x40 MLOAD PUSH2 0x242 SWAP2 SWAP1 PUSH2 0xEF8 JUMP JUMPDEST PUSH1 0x40 MLOAD DUP1 SWAP2 SUB SWAP1 RETURN JUMPDEST PUSH2 0x265 PUSH1 0x4 DUP1 CALLDATASIZE SUB DUP2 ADD SWAP1 PUSH2 0x260 SWAP2 SWAP1 PUSH2 0xF1A JUMP JUMPDEST PUSH2 0x7F8 JUMP JUMPDEST STOP JUMPDEST PUSH2 0x26F PUSH2 0x943 JUMP JUMPDEST PUSH1 0x40 MLOAD PUSH2 0x27C SWAP2 SWAP1 PUSH2 0xEDD JUMP JUMPDEST PUSH1 0x40 MLOAD DUP1 SWAP2 SUB SWAP1 RETURN JUMPDEST PUSH2 0x29F PUSH1 0x4 DUP1 CALLDATASIZE SUB DUP2 ADD SWAP1 PUSH2 0x29A SWAP2 SWAP1 PUSH2 0xDF2 JUMP JUMPDEST PUSH2 0x950 JUMP JUMPDEST PUSH1 0x40 MLOAD PUSH2 0x2AC SWAP2 SWAP1 PUSH2 0xF9B JUMP JUMPDEST PUSH1 0x40 MLOAD DUP1 SWAP2 SUB SWAP1 RETURN JUMPDEST PUSH2 0x2BD PUSH2 0x98F JUMP JUMPDEST PUSH1 0x40 MLOAD PUSH2 0x2CA SWAP2 SWAP1 PUSH2 0x110E JUMP JUMPDEST PUSH1 0x40 MLOAD DUP1 SWAP2 SUB SWAP1 RETURN JUMPDEST PUSH2 0x2DB PUSH2 0xA8A JUMP JUMPDEST PUSH1 0x40 MLOAD PUSH2 0x2E8 SWAP2 SWAP1 PUSH2 0xF9B JUMP JUMPDEST PUSH1 0x40 MLOAD DUP1 SWAP2 SUB SWAP1 RETURN JUMPDEST PUSH2 0x30B PUSH1 0x4 DUP1 CALLDATASIZE SUB DUP2 ADD SWAP1 PUSH2 0x306 SWAP2 SWAP1 PUSH2 0xCDA JUMP JUMPDEST PUSH2 0xAB0 JUMP JUMPDEST STOP JUMPDEST PUSH2 0x327 PUSH1 0x4 DUP1 CALLDATASIZE SUB DUP2 ADD SWAP1 PUSH2 0x322 SWAP2 SWAP1 PUSH2 0x115C JUMP JUMPDEST PUSH2 0xB60 JUMP JUMPDEST PUSH1 0x40 MLOAD PUSH2 0x334 SWAP2 SWAP1 PUSH2 0xDA1 JUMP JUMPDEST PUSH1 0x40 MLOAD DUP1 SWAP2 SUB SWAP1 RETURN JUMPDEST PUSH1 0x6 PUSH1 0x0 CALLER PUSH20 0xFFFFFFFFFFFFFFFFFFFFFFFFFFFFFFFFFFFFFFFF AND PUSH20 0xFFFFFFFFFFFFFFFFFFFFFFFFFFFFFFFFFFFFFFFF AND DUP2 MSTORE PUSH1 0x20 ADD SWAP1 DUP2 MSTORE PUSH1 0x20 ADD PUSH1 0x0 KECCAK256 PUSH1 0x0 SWAP1 SLOAD SWAP1 PUSH2 0x100 EXP SWAP1 DIV PUSH1 0xFF AND PUSH2 0x3C9 JUMPI PUSH1 0x40 MLOAD PUSH32 0x8C379A000000000000000000000000000000000000000000000000000000000 DUP2 MSTORE PUSH1 0x4 ADD PUSH2 0x3C0 SWAP1 PUSH2 0x11D5 JUMP JUMPDEST PUSH1 0x40 MLOAD DUP1 SWAP2 SUB SWAP1 REVERT JUMPDEST PUSH1 0x1 PUSH1 0x8 PUSH1 0x1 PUSH2 0x100 EXP DUP2 SLOAD DUP2 PUSH1 0xFF MUL NOT AND SWAP1 DUP4 ISZERO ISZERO MUL OR SWAP1 SSTORE POP PUSH1 0x0 PUSH1 0x8 PUSH1 0x0 PUSH2 0x100 EXP DUP2 SLOAD DUP2 PUSH1 0xFF MUL NOT AND SWAP1 DUP4 ISZERO ISZERO MUL OR SWAP1 SSTORE POP DUP1 PUSH1 0x9 SWAP1 DUP2 PUSH2 0x40E SWAP2 SWAP1 PUSH2 0x1401 JUMP JUMPDEST POP PUSH32 0x4A2E5BEAC6211F436F7D572C38E5AE1FA41D253289919EA7D457DB00599A867E CALLER DUP3 PUSH1 0x40 MLOAD PUSH2 0x440 SWAP3 SWAP2 SWAP1 PUSH2 0x14D3 JUMP JUMPDEST PUSH1 0x40 MLOAD DUP1 SWAP2 SUB SWAP1 LOG1 POP JUMP JUMPDEST PUSH1 0x7 PUSH1 0x20 MSTORE DUP1 PUSH1 0x0 MSTORE PUSH1 0x40 PUSH1 0x0 KECCAK256 PUSH1 0x0 SWAP2 POP SLOAD SWAP1 PUSH2 0x100 EXP SWAP1 DIV PUSH1 0xFF AND DUP2 JUMP JUMPDEST PUSH1 0x8 PUSH1 0x1 SWAP1 SLOAD SWAP1 PUSH2 0x100 EXP SWAP1 DIV PUSH1 0xFF AND DUP2 JUMP JUMPDEST PUSH1 0x5 DUP2 DUP2 SLOAD DUP2 LT PUSH2 0x48E JUMPI PUSH1 0x0 DUP1 REVERT JUMPDEST SWAP1 PUSH1 0x0 MSTORE PUSH1 0x20 PUSH1 0x0 KECCAK256 SWAP1 PUSH1 0x2 MUL ADD PUSH1 0x0 SWAP2 POP SWAP1 POP DUP1 PUSH1 0x0 ADD DUP1 SLOAD PUSH2 0x4B1 SWAP1 PUSH2 0x1224 JUMP JUMPDEST DUP1 PUSH1 0x1F ADD PUSH1 0x20 DUP1 SWAP2 DIV MUL PUSH1 0x20 ADD PUSH1 0x40 MLOAD SWAP1 DUP2 ADD PUSH1 0x40 MSTORE DUP1 SWAP3 SWAP2 SWAP1 DUP2 DUP2 MSTORE PUSH1 0x20 ADD DUP3 DUP1 SLOAD PUSH2 0x4DD SWAP1 PUSH2 0x1224 JUMP JUMPDEST DUP1 ISZERO PUSH2 0x52A JUMPI DUP1 PUSH1 0x1F LT PUSH2 0x4FF JUMPI PUSH2 0x100 DUP1 DUP4 SLOAD DIV MUL DUP4 MSTORE SWAP2 PUSH1 0x20 ADD SWAP2 PUSH2 0x52A JUMP JUMPDEST DUP3 ADD SWAP2 SWAP1 PUSH1 0x0 MSTORE PUSH1 0x20 PUSH1 0x0 KECCAK256 SWAP1 JUMPDEST DUP2 SLOAD DUP2 MSTORE SWAP1 PUSH1 0x1 ADD SWAP1 PUSH1 0x20 ADD DUP1 DUP4 GT PUSH2 0x50D JUMPI DUP3 SWAP1 SUB PUSH1 0x1F AND DUP3 ADD SWAP2 JUMPDEST POP POP POP POP POP SWAP1 DUP1 PUSH1 0x1 ADD SLOAD SWAP1 POP DUP3 JUMP JUMPDEST PUSH1 0x8 PUSH1 0x0 SWAP1 SLOAD SWAP1 PUSH2 0x100 EXP SWAP1 DIV PUSH1 0xFF AND DUP2 JUMP JUMPDEST PUSH1 0x2 SLOAD DUP2 JUMP JUMPDEST PUSH1 0x0 DUP1 SLOAD PUSH2 0x560 SWAP1 PUSH2 0x1224 JUMP JUMPDEST DUP1 PUSH1 0x1F ADD PUSH1 0x20 DUP1 SWAP2 DIV MUL PUSH1 0x20 ADD PUSH1 0x40 MLOAD SWAP1 DUP2 ADD PUSH1 0x40 MSTORE DUP1 SWAP3 SWAP2 SWAP1 DUP2 DUP2 MSTORE PUSH1 0x20 ADD DUP3 DUP1 SLOAD PUSH2 0x58C SWAP1 PUSH2 0x1224 JUMP JUMPDEST DUP1 ISZERO PUSH2 0x5D9 JUMPI DUP1 PUSH1 0x1F LT PUSH2 0x5AE JUMPI PUSH2 0x100 DUP1 DUP4 SLOAD DIV MUL DUP4 MSTORE SWAP2 PUSH1 0x20 ADD SWAP2 PUSH2 0x5D9 JUMP JUMPDEST DUP3 ADD SWAP2 SWAP1 PUSH1 0x0 MSTORE PUSH1 0x20 PUSH1 0x0 KECCAK256 SWAP1 JUMPDEST DUP2 SLOAD DUP2 MSTORE SWAP1 PUSH1 0x1 ADD SWAP1 PUSH1 0x20 ADD DUP1 DUP4 GT PUSH2 0x5BC JUMPI DUP3 SWAP1 SUB PUSH1 0x1F AND DUP3 ADD SWAP2 JUMPDEST POP POP POP POP POP DUP2 JUMP JUMPDEST PUSH1 0x9 DUP1 SLOAD PUSH2 0x5EE SWAP1 PUSH2 0x1224 JUMP JUMPDEST DUP1 PUSH1 0x1F ADD PUSH1 0x20 DUP1 SWAP2 DIV MUL PUSH1 0x20 ADD PUSH1 0x40 MLOAD SWAP1 DUP2 ADD PUSH1 0x40 MSTORE DUP1 SWAP3 SWAP2 SWAP1 DUP2 DUP2 MSTORE PUSH1 0x20 ADD DUP3 DUP1 SLOAD PUSH2 0x61A SWAP1 PUSH2 0x1224 JUMP JUMPDEST DUP1 ISZERO PUSH2 0x667 JUMPI DUP1 PUSH1 0x1F LT PUSH2 0x63C JUMPI PUSH2 0x100 DUP1 DUP4 SLOAD DIV MUL DUP4 MSTORE SWAP2 PUSH1 0x20 ADD SWAP2 PUSH2 0x667 JUMP JUMPDEST DUP3 ADD SWAP2 SWAP1 PUSH1 0x0 MSTORE PUSH1 0x20 PUSH1 0x0 KECCAK256 SWAP1 JUMPDEST DUP2 SLOAD DUP2 MSTORE SWAP1 PUSH1 0x1 ADD SWAP1 PUSH1 0x20 ADD DUP1 DUP4 GT PUSH2 0x64A JUMPI DUP3 SWAP1 SUB PUSH1 0x1F AND DUP3 ADD SWAP2 JUMPDEST POP POP POP POP POP DUP2 JUMP JUMPDEST PUSH1 0x6 PUSH1 0x0 CALLER PUSH20 0xFFFFFFFFFFFFFFFFFFFFFFFFFFFFFFFFFFFFFFFF AND PUSH20 0xFFFFFFFFFFFFFFFFFFFFFFFFFFFFFFFFFFFFFFFF AND DUP2 MSTORE PUSH1 0x20 ADD SWAP1 DUP2 MSTORE PUSH1 0x20 ADD PUSH1 0x0 KECCAK256 PUSH1 0x0 SWAP1 SLOAD SWAP1 PUSH2 0x100 EXP SWAP1 DIV PUSH1 0xFF AND PUSH2 0x6FB JUMPI PUSH1 0x40 MLOAD PUSH32 0x8C379A000000000000000000000000000000000000000000000000000000000 DUP2 MSTORE PUSH1 0x4 ADD PUSH2 0x6F2 SWAP1 PUSH2 0x11D5 JUMP JUMPDEST PUSH1 0x40 MLOAD DUP1 SWAP2 SUB SWAP1 REVERT JUMPDEST PUSH1 0x1 PUSH1 0x8 PUSH1 0x0 PUSH2 0x100 EXP DUP2 SLOAD DUP2 PUSH1 0xFF MUL NOT AND SWAP1 DUP4 ISZERO ISZERO MUL OR SWAP1 SSTORE POP PUSH1 0x0 PUSH1 0x8 PUSH1 0x1 PUSH2 0x100 EXP DUP2 SLOAD DUP2 PUSH1 0xFF MUL NOT AND SWAP1 DUP4 ISZERO ISZERO MUL OR SWAP1 SSTORE POP PUSH32 0x8EE9FEE1E8CD233411B47B9FC980029BEFBFD3A2ED4AE8179D4ADBFB11D24C0E CALLER PUSH1 0x40 MLOAD PUSH2 0x760 SWAP2 SWAP1 PUSH2 0xF9B JUMP JUMPDEST PUSH1 0x40 MLOAD DUP1 SWAP2 SUB SWAP1 LOG1 JUMP JUMPDEST PUSH1 0x1 DUP1 SLOAD PUSH2 0x777 SWAP1 PUSH2 0x1224 JUMP JUMPDEST DUP1 PUSH1 0x1F ADD PUSH1 0x20 DUP1 SWAP2 DIV MUL PUSH1 0x20 ADD PUSH1 0x40 MLOAD SWAP1 DUP2 ADD PUSH1 0x40 MSTORE DUP1 SWAP3 SWAP2 SWAP1 DUP2 DUP2 MSTORE PUSH1 0x20 ADD DUP3 DUP1 SLOAD PUSH2 0x7A3 SWAP1 PUSH2 0x1224 JUMP JUMPDEST DUP1 ISZERO PUSH2 0x7F0 JUMPI DUP1 PUSH1 0x1F LT PUSH2 0x7C5 JUMPI PUSH2 0x100 DUP1 DUP4 SLOAD DIV MUL DUP4 MSTORE SWAP2 PUSH1 0x20 ADD SWAP2 PUSH2 0x7F0 JUMP JUMPDEST DUP3 ADD SWAP2 SWAP1 PUSH1 0x0 MSTORE PUSH1 0x20 PUSH1 0x0 KECCAK256 SWAP1 JUMPDEST DUP2 SLOAD DUP2 MSTORE SWAP1 PUSH1 0x1 ADD SWAP1 PUSH1 0x20 ADD DUP1 DUP4 GT PUSH2 0x7D3 JUMPI DUP3 SWAP1 SUB PUSH1 0x1F AND DUP3 ADD SWAP2 JUMPDEST POP POP POP POP POP DUP2 JUMP JUMPDEST PUSH1 0x7 PUSH1 0x0 DUP4 DUP2 MSTORE PUSH1 0x20 ADD SWAP1 DUP2 MSTORE PUSH1 0x20 ADD PUSH1 0x0 KECCAK256 PUSH1 0x0 SWAP1 SLOAD SWAP1 PUSH2 0x100 EXP SWAP1 DIV PUSH1 0xFF AND ISZERO PUSH2 0x859 JUMPI PUSH1 0x40 MLOAD PUSH32 0x8C379A000000000000000000000000000000000000000000000000000000000 DUP2 MSTORE PUSH1 0x4 ADD PUSH2 0x850 SWAP1 PUSH2 0x154F JUMP JUMPDEST PUSH1 0x40 MLOAD DUP1 SWAP2 SUB SWAP1 REVERT JUMPDEST PUSH1 0x5 DUP1 SLOAD SWAP1 POP DUP2 LT PUSH2 0x8A0 JUMPI PUSH1 0x40 MLOAD PUSH32 0x8C379A000000000000000000000000000000000000000000000000000000000 DUP2 MSTORE PUSH1 0x4 ADD PUSH2 0x897 SWAP1 PUSH2 0x15BB JUMP JUMPDEST PUSH1 0x40 MLOAD DUP1 SWAP2 SUB SWAP1 REVERT JUMPDEST PUSH1 0x5 DUP2 DUP2 SLOAD DUP2 LT PUSH2 0x8B4 JUMPI PUSH2 0x8B3 PUSH2 0x15DB JUMP JUMPDEST JUMPDEST SWAP1 PUSH1 0x0 MSTORE PUSH1 0x20 PUSH1 0x0 KECCAK256 SWAP1 PUSH1 0x2 MUL ADD PUSH1 0x1 ADD PUSH1 0x0 DUP2 SLOAD DUP1 SWAP3 SWAP2 SWAP1 PUSH2 0x8D6 SWAP1 PUSH2 0x1639 JUMP JUMPDEST SWAP2 SWAP1 POP SSTORE POP PUSH1 0x1 PUSH1 0x7 PUSH1 0x0 DUP5 DUP2 MSTORE PUSH1 0x20 ADD SWAP1 DUP2 MSTORE PUSH1 0x20 ADD PUSH1 0x0 KECCAK256 PUSH1 0x0 PUSH2 0x100 EXP DUP2 SLOAD DUP2 PUSH1 0xFF MUL NOT AND SWAP1 DUP4 ISZERO ISZERO MUL OR SWAP1 SSTORE POP DUP2 PUSH32 0xD10F6697FE785CF6AB300B0A28E7B2403B8742966EC5535806AF5B24613611A4 DUP3 PUSH1 0x40 MLOAD PUSH2 0x937 SWAP2 SWAP1 PUSH2 0xEDD JUMP JUMPDEST PUSH1 0x40 MLOAD DUP1 SWAP2 SUB SWAP1 LOG2 POP POP JUMP JUMPDEST PUSH1 0x0 PUSH1 0x5 DUP1 SLOAD SWAP1 POP SWAP1 POP SWAP1 JUMP JUMPDEST PUSH1 0x4 DUP2 DUP2 SLOAD DUP2 LT PUSH2 0x960 JUMPI PUSH1 0x0 DUP1 REVERT JUMPDEST SWAP1 PUSH1 0x0 MSTORE PUSH1 0x20 PUSH1 0x0 KECCAK256 ADD PUSH1 0x0 SWAP2 POP SLOAD SWAP1 PUSH2 0x100 EXP SWAP1 DIV PUSH20 0xFFFFFFFFFFFFFFFFFFFFFFFFFFFFFFFFFFFFFFFF AND DUP2 JUMP JUMPDEST PUSH1 0x60 PUSH1 0x5 DUP1 SLOAD DUP1 PUSH1 0x20 MUL PUSH1 0x20 ADD PUSH1 0x40 MLOAD SWAP1 DUP2 ADD PUSH1 0x40 MSTORE DUP1 SWAP3 SWAP2 SWAP1 DUP2 DUP2 MSTORE PUSH1 0x20 ADD PUSH1 0x0 SWAP1 JUMPDEST DUP3 DUP3 LT ISZERO PUSH2 0xA81 JUMPI DUP4 DUP3 SWAP1 PUSH1 0x0 MSTORE PUSH1 0x20 PUSH1 0x0 KECCAK256 SWAP1 PUSH1 0x2 MUL ADD PUSH1 0x40 MLOAD DUP1 PUSH1 0x40 ADD PUSH1 0x40 MSTORE SWAP1 DUP2 PUSH1 0x0 DUP3 ADD DUP1 SLOAD PUSH2 0x9E6 SWAP1 PUSH2 0x1224 JUMP JUMPDEST DUP1 PUSH1 0x1F ADD PUSH1 0x20 DUP1 SWAP2 DIV MUL PUSH1 0x20 ADD PUSH1 0x40 MLOAD SWAP1 DUP2 ADD PUSH1 0x40 MSTORE DUP1 SWAP3 SWAP2 SWAP1 DUP2 DUP2 MSTORE PUSH1 0x20 ADD DUP3 DUP1 SLOAD PUSH2 0xA12 SWAP1 PUSH2 0x1224 JUMP JUMPDEST DUP1 ISZERO PUSH2 0xA5F JUMPI DUP1 PUSH1 0x1F LT PUSH2 0xA34 JUMPI PUSH2 0x100 DUP1 DUP4 SLOAD DIV MUL DUP4 MSTORE SWAP2 PUSH1 0x20 ADD SWAP2 PUSH2 0xA5F JUMP JUMPDEST DUP3 ADD SWAP2 SWAP1 PUSH1 0x0 MSTORE PUSH1 0x20 PUSH1 0x0 KECCAK256 SWAP1 JUMPDEST DUP2 SLOAD DUP2 MSTORE SWAP1 PUSH1 0x1 ADD SWAP1 PUSH1 0x20 ADD DUP1 DUP4 GT PUSH2 0xA42 JUMPI DUP3 SWAP1 SUB PUSH1 0x1F AND DUP3 ADD SWAP2 JUMPDEST POP POP POP POP POP DUP2 MSTORE PUSH1 0x20 ADD PUSH1 0x1 DUP3 ADD SLOAD DUP2 MSTORE POP POP DUP2 MSTORE PUSH1 0x20 ADD SWAP1 PUSH1 0x1 ADD SWAP1 PUSH2 0x9B3 JUMP JUMPDEST POP POP POP POP SWAP1 POP SWAP1 JUMP JUMPDEST PUSH1 0x3 PUSH1 0x0 SWAP1 SLOAD SWAP1 PUSH2 0x100 EXP SWAP1 DIV PUSH20 0xFFFFFFFFFFFFFFFFFFFFFFFFFFFFFFFFFFFFFFFF AND DUP2 JUMP JUMPDEST PUSH1 0x5 PUSH1 0x40 MLOAD DUP1 PUSH1 0x40 ADD PUSH1 0x40 MSTORE DUP1 DUP4 DUP2 MSTORE PUSH1 0x20 ADD PUSH1 0x0 DUP2 MSTORE POP SWAP1 DUP1 PUSH1 0x1 DUP2 SLOAD ADD DUP1 DUP3 SSTORE DUP1 SWAP2 POP POP PUSH1 0x1 SWAP1 SUB SWAP1 PUSH1 0x0 MSTORE PUSH1 0x20 PUSH1 0x0 KECCAK256 SWAP1 PUSH1 0x2 MUL ADD PUSH1 0x0 SWAP1 SWAP2 SWAP1 SWAP2 SWAP1 SWAP2 POP PUSH1 0x0 DUP3 ADD MLOAD DUP2 PUSH1 0x0 ADD SWAP1 DUP2 PUSH2 0xB06 SWAP2 SWAP1 PUSH2 0x1401 JUMP JUMPDEST POP PUSH1 0x20 DUP3 ADD MLOAD DUP2 PUSH1 0x1 ADD SSTORE POP POP PUSH32 0x17D54B10D2F5EFE6C5653D2C3F373803D477CE9962212280331F14843D8983FB PUSH1 0x1 PUSH1 0x5 DUP1 SLOAD SWAP1 POP PUSH2 0xB46 SWAP2 SWAP1 PUSH2 0x1681 JUMP JUMPDEST DUP3 PUSH1 0x40 MLOAD PUSH2 0xB55 SWAP3 SWAP2 SWAP1 PUSH2 0x16B5 JUMP JUMPDEST PUSH1 0x40 MLOAD DUP1 SWAP2 SUB SWAP1 LOG1 POP JUMP JUMPDEST PUSH1 0x6 PUSH1 0x20 MSTORE DUP1 PUSH1 0x0 MSTORE PUSH1 0x40 PUSH1 0x0 KECCAK256 PUSH1 0x0 SWAP2 POP SLOAD SWAP1 PUSH2 0x100 EXP SWAP1 DIV PUSH1 0xFF AND DUP2 JUMP JUMPDEST PUSH1 0x0 PUSH1 0x40 MLOAD SWAP1 POP SWAP1 JUMP JUMPDEST PUSH1 0x0 DUP1 REVERT JUMPDEST PUSH1 0x0 DUP1 REVERT JUMPDEST PUSH1 0x0 DUP1 REVERT JUMPDEST PUSH1 0x0 DUP1 REVERT JUMPDEST PUSH1 0x0 PUSH1 0x1F NOT PUSH1 0x1F DUP4 ADD AND SWAP1 POP SWAP2 SWAP1 POP JUMP JUMPDEST PUSH32 0x4E487B7100000000000000000000000000000000000000000000000000000000 PUSH1 0x0 MSTORE PUSH1 0x41 PUSH1 0x4 MSTORE PUSH1 0x24 PUSH1 0x0 REVERT JUMPDEST PUSH2 0xBE7 DUP3 PUSH2 0xB9E JUMP JUMPDEST DUP2 ADD DUP2 DUP2 LT PUSH8 0xFFFFFFFFFFFFFFFF DUP3 GT OR ISZERO PUSH2 0xC06 JUMPI PUSH2 0xC05 PUSH2 0xBAF JUMP JUMPDEST JUMPDEST DUP1 PUSH1 0x40 MSTORE POP POP POP JUMP JUMPDEST PUSH1 0x0 PUSH2 0xC19 PUSH2 0xB80 JUMP JUMPDEST SWAP1 POP PUSH2 0xC25 DUP3 DUP3 PUSH2 0xBDE JUMP JUMPDEST SWAP2 SWAP1 POP JUMP JUMPDEST PUSH1 0x0 PUSH8 0xFFFFFFFFFFFFFFFF DUP3 GT ISZERO PUSH2 0xC45 JUMPI PUSH2 0xC44 PUSH2 0xBAF JUMP JUMPDEST JUMPDEST PUSH2 0xC4E DUP3 PUSH2 0xB9E JUMP JUMPDEST SWAP1 POP PUSH1 0x20 DUP2 ADD SWAP1 POP SWAP2 SWAP1 POP JUMP JUMPDEST DUP3 DUP2 DUP4 CALLDATACOPY PUSH1 0x0 DUP4 DUP4 ADD MSTORE POP POP POP JUMP JUMPDEST PUSH1 0x0 PUSH2 0xC7D PUSH2 0xC78 DUP5 PUSH2 0xC2A JUMP JUMPDEST PUSH2 0xC0F JUMP JUMPDEST SWAP1 POP DUP3 DUP2 MSTORE PUSH1 0x20 DUP2 ADD DUP5 DUP5 DUP5 ADD GT ISZERO PUSH2 0xC99 JUMPI PUSH2 0xC98 PUSH2 0xB99 JUMP JUMPDEST JUMPDEST PUSH2 0xCA4 DUP5 DUP3 DUP6 PUSH2 0xC5B JUMP JUMPDEST POP SWAP4 SWAP3 POP POP POP JUMP JUMPDEST PUSH1 0x0 DUP3 PUSH1 0x1F DUP4 ADD SLT PUSH2 0xCC1 JUMPI PUSH2 0xCC0 PUSH2 0xB94 JUMP JUMPDEST JUMPDEST DUP2 CALLDATALOAD PUSH2 0xCD1 DUP5 DUP3 PUSH1 0x20 DUP7 ADD PUSH2 0xC6A JUMP JUMPDEST SWAP2 POP POP SWAP3 SWAP2 POP POP JUMP JUMPDEST PUSH1 0x0 PUSH1 0x20 DUP3 DUP5 SUB SLT ISZERO PUSH2 0xCF0 JUMPI PUSH2 0xCEF PUSH2 0xB8A JUMP JUMPDEST JUMPDEST PUSH1 0x0 DUP3 ADD CALLDATALOAD PUSH8 0xFFFFFFFFFFFFFFFF DUP2 GT ISZERO PUSH2 0xD0E JUMPI PUSH2 0xD0D PUSH2 0xB8F JUMP JUMPDEST JUMPDEST PUSH2 0xD1A DUP5 DUP3 DUP6 ADD PUSH2 0xCAC JUMP JUMPDEST SWAP2 POP POP SWAP3 SWAP2 POP POP JUMP JUMPDEST PUSH1 0x0 DUP2 SWAP1 POP SWAP2 SWAP1 POP JUMP JUMPDEST PUSH2 0xD36 DUP2 PUSH2 0xD23 JUMP JUMPDEST DUP2 EQ PUSH2 0xD41 JUMPI PUSH1 0x0 DUP1 REVERT JUMPDEST POP JUMP JUMPDEST PUSH1 0x0 DUP2 CALLDATALOAD SWAP1 POP PUSH2 0xD53 DUP2 PUSH2 0xD2D JUMP JUMPDEST SWAP3 SWAP2 POP POP JUMP JUMPDEST PUSH1 0x0 PUSH1 0x20 DUP3 DUP5 SUB SLT ISZERO PUSH2 0xD6F JUMPI PUSH2 0xD6E PUSH2 0xB8A JUMP JUMPDEST JUMPDEST PUSH1 0x0 PUSH2 0xD7D DUP5 DUP3 DUP6 ADD PUSH2 0xD44 JUMP JUMPDEST SWAP2 POP POP SWAP3 SWAP2 POP POP JUMP JUMPDEST PUSH1 0x0 DUP2 ISZERO ISZERO SWAP1 POP SWAP2 SWAP1 POP JUMP JUMPDEST PUSH2 0xD9B DUP2 PUSH2 0xD86 JUMP JUMPDEST DUP3 MSTORE POP POP JUMP JUMPDEST PUSH1 0x0 PUSH1 0x20 DUP3 ADD SWAP1 POP PUSH2 0xDB6 PUSH1 0x0 DUP4 ADD DUP5 PUSH2 0xD92 JUMP JUMPDEST SWAP3 SWAP2 POP POP JUMP JUMPDEST PUSH1 0x0 DUP2 SWAP1 POP SWAP2 SWAP1 POP JUMP JUMPDEST PUSH2 0xDCF DUP2 PUSH2 0xDBC JUMP JUMPDEST DUP2 EQ PUSH2 0xDDA JUMPI PUSH1 0x0 DUP1 REVERT JUMPDEST POP JUMP JUMPDEST PUSH1 0x0 DUP2 CALLDATALOAD SWAP1 POP PUSH2 0xDEC DUP2 PUSH2 0xDC6 JUMP JUMPDEST SWAP3 SWAP2 POP POP JUMP JUMPDEST PUSH1 0x0 PUSH1 0x20 DUP3 DUP5 SUB SLT ISZERO PUSH2 0xE08 JUMPI PUSH2 0xE07 PUSH2 0xB8A JUMP JUMPDEST JUMPDEST PUSH1 0x0 PUSH2 0xE16 DUP5 DUP3 DUP6 ADD PUSH2 0xDDD JUMP JUMPDEST SWAP2 POP POP SWAP3 SWAP2 POP POP JUMP JUMPDEST PUSH1 0x0 DUP2 MLOAD SWAP1 POP SWAP2 SWAP1 POP JUMP JUMPDEST PUSH1 0x0 DUP3 DUP3 MSTORE PUSH1 0x20 DUP3 ADD SWAP1 POP SWAP3 SWAP2 POP POP JUMP JUMPDEST PUSH1 0x0 JUMPDEST DUP4 DUP2 LT ISZERO PUSH2 0xE59 JUMPI DUP1 DUP3 ADD MLOAD DUP2 DUP5 ADD MSTORE PUSH1 0x20 DUP2 ADD SWAP1 POP PUSH2 0xE3E JUMP JUMPDEST PUSH1 0x0 DUP5 DUP5 ADD MSTORE POP POP POP POP JUMP JUMPDEST PUSH1 0x0 PUSH2 0xE70 DUP3 PUSH2 0xE1F JUMP JUMPDEST PUSH2 0xE7A DUP2 DUP6 PUSH2 0xE2A JUMP JUMPDEST SWAP4 POP PUSH2 0xE8A DUP2 DUP6 PUSH1 0x20 DUP7 ADD PUSH2 0xE3B JUMP JUMPDEST PUSH2 0xE93 DUP2 PUSH2 0xB9E JUMP JUMPDEST DUP5 ADD SWAP2 POP POP SWAP3 SWAP2 POP POP JUMP JUMPDEST PUSH2 0xEA7 DUP2 PUSH2 0xDBC JUMP JUMPDEST DUP3 MSTORE POP POP JUMP JUMPDEST PUSH1 0x0 PUSH1 0x40 DUP3 ADD SWAP1 POP DUP2 DUP2 SUB PUSH1 0x0 DUP4 ADD MSTORE PUSH2 0xEC7 DUP2 DUP6 PUSH2 0xE65 JUMP JUMPDEST SWAP1 POP PUSH2 0xED6 PUSH1 0x20 DUP4 ADD DUP5 PUSH2 0xE9E JUMP JUMPDEST SWAP4 SWAP3 POP POP POP JUMP JUMPDEST PUSH1 0x0 PUSH1 0x20 DUP3 ADD SWAP1 POP PUSH2 0xEF2 PUSH1 0x0 DUP4 ADD DUP5 PUSH2 0xE9E JUMP JUMPDEST SWAP3 SWAP2 POP POP JUMP JUMPDEST PUSH1 0x0 PUSH1 0x20 DUP3 ADD SWAP1 POP DUP2 DUP2 SUB PUSH1 0x0 DUP4 ADD MSTORE PUSH2 0xF12 DUP2 DUP5 PUSH2 0xE65 JUMP JUMPDEST SWAP1 POP SWAP3 SWAP2 POP POP JUMP JUMPDEST PUSH1 0x0 DUP1 PUSH1 0x40 DUP4 DUP6 SUB SLT ISZERO PUSH2 0xF31 JUMPI PUSH2 0xF30 PUSH2 0xB8A JUMP JUMPDEST JUMPDEST PUSH1 0x0 PUSH2 0xF3F DUP6 DUP3 DUP7 ADD PUSH2 0xD44 JUMP JUMPDEST SWAP3 POP POP PUSH1 0x20 PUSH2 0xF50 DUP6 DUP3 DUP7 ADD PUSH2 0xDDD JUMP JUMPDEST SWAP2 POP POP SWAP3 POP SWAP3 SWAP1 POP JUMP JUMPDEST PUSH1 0x0 PUSH20 0xFFFFFFFFFFFFFFFFFFFFFFFFFFFFFFFFFFFFFFFF DUP3 AND SWAP1 POP SWAP2 SWAP1 POP JUMP JUMPDEST PUSH1 0x0 PUSH2 0xF85 DUP3 PUSH2 0xF5A JUMP JUMPDEST SWAP1 POP SWAP2 SWAP1 POP JUMP JUMPDEST PUSH2 0xF95 DUP2 PUSH2 0xF7A JUMP JUMPDEST DUP3 MSTORE POP POP JUMP JUMPDEST PUSH1 0x0 PUSH1 0x20 DUP3 ADD SWAP1 POP PUSH2 0xFB0 PUSH1 0x0 DUP4 ADD DUP5 PUSH2 0xF8C JUMP JUMPDEST SWAP3 SWAP2 POP POP JUMP JUMPDEST PUSH1 0x0 DUP2 MLOAD SWAP1 POP SWAP2 SWAP1 POP JUMP JUMPDEST PUSH1 0x0 DUP3 DUP3 MSTORE PUSH1 0x20 DUP3 ADD SWAP1 POP SWAP3 SWAP2 POP POP JUMP JUMPDEST PUSH1 0x0 DUP2 SWAP1 POP PUSH1 0x20 DUP3 ADD SWAP1 POP SWAP2 SWAP1 POP JUMP JUMPDEST PUSH1 0x0 DUP3 DUP3 MSTORE PUSH1 0x20 DUP3 ADD SWAP1 POP SWAP3 SWAP2 POP POP JUMP JUMPDEST PUSH1 0x0 PUSH2 0xFFE DUP3 PUSH2 0xE1F JUMP JUMPDEST PUSH2 0x1008 DUP2 DUP6 PUSH2 0xFE2 JUMP JUMPDEST SWAP4 POP PUSH2 0x1018 DUP2 DUP6 PUSH1 0x20 DUP7 ADD PUSH2 0xE3B JUMP JUMPDEST PUSH2 0x1021 DUP2 PUSH2 0xB9E JUMP JUMPDEST DUP5 ADD SWAP2 POP POP SWAP3 SWAP2 POP POP JUMP JUMPDEST PUSH2 0x1035 DUP2 PUSH2 0xDBC JUMP JUMPDEST DUP3 MSTORE POP POP JUMP JUMPDEST PUSH1 0x0 PUSH1 0x40 DUP4 ADD PUSH1 0x0 DUP4 ADD MLOAD DUP5 DUP3 SUB PUSH1 0x0 DUP7 ADD MSTORE PUSH2 0x1058 DUP3 DUP3 PUSH2 0xFF3 JUMP JUMPDEST SWAP2 POP POP PUSH1 0x20 DUP4 ADD MLOAD PUSH2 0x106D PUSH1 0x20 DUP7 ADD DUP3 PUSH2 0x102C JUMP JUMPDEST POP DUP1 SWAP2 POP POP SWAP3 SWAP2 POP POP JUMP JUMPDEST PUSH1 0x0 PUSH2 0x1084 DUP4 DUP4 PUSH2 0x103B JUMP JUMPDEST SWAP1 POP SWAP3 SWAP2 POP POP JUMP JUMPDEST PUSH1 0x0 PUSH1 0x20 DUP3 ADD SWAP1 POP SWAP2 SWAP1 POP JUMP JUMPDEST PUSH1 0x0 PUSH2 0x10A4 DUP3 PUSH2 0xFB6 JUMP JUMPDEST PUSH2 0x10AE DUP2 DUP6 PUSH2 0xFC1 JUMP JUMPDEST SWAP4 POP DUP4 PUSH1 0x20 DUP3 MUL DUP6 ADD PUSH2 0x10C0 DUP6 PUSH2 0xFD2 JUMP JUMPDEST DUP1 PUSH1 0x0 JUMPDEST DUP6 DUP2 LT ISZERO PUSH2 0x10FC JUMPI DUP5 DUP5 SUB DUP10 MSTORE DUP2 MLOAD PUSH2 0x10DD DUP6 DUP3 PUSH2 0x1078 JUMP JUMPDEST SWAP5 POP PUSH2 0x10E8 DUP4 PUSH2 0x108C JUMP JUMPDEST SWAP3 POP PUSH1 0x20 DUP11 ADD SWAP10 POP POP PUSH1 0x1 DUP2 ADD SWAP1 POP PUSH2 0x10C4 JUMP JUMPDEST POP DUP3 SWAP8 POP DUP8 SWAP6 POP POP POP POP POP POP SWAP3 SWAP2 POP POP JUMP JUMPDEST PUSH1 0x0 PUSH1 0x20 DUP3 ADD SWAP1 POP DUP2 DUP2 SUB PUSH1 0x0 DUP4 ADD MSTORE PUSH2 0x1128 DUP2 DUP5 PUSH2 0x1099 JUMP JUMPDEST SWAP1 POP SWAP3 SWAP2 POP POP JUMP JUMPDEST PUSH2 0x1139 DUP2 PUSH2 0xF7A JUMP JUMPDEST DUP2 EQ PUSH2 0x1144 JUMPI PUSH1 0x0 DUP1 REVERT JUMPDEST POP JUMP JUMPDEST PUSH1 0x0 DUP2 CALLDATALOAD SWAP1 POP PUSH2 0x1156 DUP2 PUSH2 0x1130 JUMP JUMPDEST SWAP3 SWAP2 POP POP JUMP JUMPDEST PUSH1 0x0 PUSH1 0x20 DUP3 DUP5 SUB SLT ISZERO PUSH2 0x1172 JUMPI PUSH2 0x1171 PUSH2 0xB8A JUMP JUMPDEST JUMPDEST PUSH1 0x0 PUSH2 0x1180 DUP5 DUP3 DUP6 ADD PUSH2 0x1147 JUMP JUMPDEST SWAP2 POP POP SWAP3 SWAP2 POP POP JUMP JUMPDEST PUSH32 0x4E6F74206D6F64657261746F7200000000000000000000000000000000000000 PUSH1 0x0 DUP3 ADD MSTORE POP JUMP JUMPDEST PUSH1 0x0 PUSH2 0x11BF PUSH1 0xD DUP4 PUSH2 0xE2A JUMP JUMPDEST SWAP2 POP PUSH2 0x11CA DUP3 PUSH2 0x1189 JUMP JUMPDEST PUSH1 0x20 DUP3 ADD SWAP1 POP SWAP2 SWAP1 POP JUMP JUMPDEST PUSH1 0x0 PUSH1 0x20 DUP3 ADD SWAP1 POP DUP2 DUP2 SUB PUSH1 0x0 DUP4 ADD MSTORE PUSH2 0x11EE DUP2 PUSH2 0x11B2 JUMP JUMPDEST SWAP1 POP SWAP2 SWAP1 POP JUMP JUMPDEST PUSH32 0x4E487B7100000000000000000000000000000000000000000000000000000000 PUSH1 0x0 MSTORE PUSH1 0x22 PUSH1 0x4 MSTORE PUSH1 0x24 PUSH1 0x0 REVERT JUMPDEST PUSH1 0x0 PUSH1 0x2 DUP3 DIV SWAP1 POP PUSH1 0x1 DUP3 AND DUP1 PUSH2 0x123C JUMPI PUSH1 0x7F DUP3 AND SWAP2 POP JUMPDEST PUSH1 0x20 DUP3 LT DUP2 SUB PUSH2 0x124F JUMPI PUSH2 0x124E PUSH2 0x11F5 JUMP JUMPDEST JUMPDEST POP SWAP2 SWAP1 POP JUMP JUMPDEST PUSH1 0x0 DUP2 SWAP1 POP DUP2 PUSH1 0x0 MSTORE PUSH1 0x20 PUSH1 0x0 KECCAK256 SWAP1 POP SWAP2 SWAP1 POP JUMP JUMPDEST PUSH1 0x0 PUSH1 0x20 PUSH1 0x1F DUP4 ADD DIV SWAP1 POP SWAP2 SWAP1 POP JUMP JUMPDEST PUSH1 0x0 DUP3 DUP3 SHL SWAP1 POP SWAP3 SWAP2 POP POP JUMP JUMPDEST PUSH1 0x0 PUSH1 0x8 DUP4 MUL PUSH2 0x12B7 PUSH32 0xFFFFFFFFFFFFFFFFFFFFFFFFFFFFFFFFFFFFFFFFFFFFFFFFFFFFFFFFFFFFFFFF DUP3 PUSH2 0x127A JUMP JUMPDEST PUSH2 0x12C1 DUP7 DUP4 PUSH2 0x127A JUMP JUMPDEST SWAP6 POP DUP1 NOT DUP5 AND SWAP4 POP DUP1 DUP7 AND DUP5 OR SWAP3 POP POP POP SWAP4 SWAP3 POP POP POP JUMP JUMPDEST PUSH1 0x0 DUP2 SWAP1 POP SWAP2 SWAP1 POP JUMP JUMPDEST PUSH1 0x0 PUSH2 0x12FE PUSH2 0x12F9 PUSH2 0x12F4 DUP5 PUSH2 0xDBC JUMP JUMPDEST PUSH2 0x12D9 JUMP JUMPDEST PUSH2 0xDBC JUMP JUMPDEST SWAP1 POP SWAP2 SWAP1 POP JUMP JUMPDEST PUSH1 0x0 DUP2 SWAP1 POP SWAP2 SWAP1 POP JUMP JUMPDEST PUSH2 0x1318 DUP4 PUSH2 0x12E3 JUMP JUMPDEST PUSH2 0x132C PUSH2 0x1324 DUP3 PUSH2 0x1305 JUMP JUMPDEST DUP5 DUP5 SLOAD PUSH2 0x1287 JUMP JUMPDEST DUP3 SSTORE POP POP POP POP JUMP JUMPDEST PUSH1 0x0 SWAP1 JUMP JUMPDEST PUSH2 0x1341 PUSH2 0x1334 JUMP JUMPDEST PUSH2 0x134C DUP2 DUP5 DUP5 PUSH2 0x130F JUMP JUMPDEST POP POP POP JUMP JUMPDEST JUMPDEST DUP2 DUP2 LT ISZERO PUSH2 0x1370 JUMPI PUSH2 0x1365 PUSH1 0x0 DUP3 PUSH2 0x1339 JUMP JUMPDEST PUSH1 0x1 DUP2 ADD SWAP1 POP PUSH2 0x1352 JUMP JUMPDEST POP POP JUMP JUMPDEST PUSH1 0x1F DUP3 GT ISZERO PUSH2 0x13B5 JUMPI PUSH2 0x1386 DUP2 PUSH2 0x1255 JUMP JUMPDEST PUSH2 0x138F DUP5 PUSH2 0x126A JUMP JUMPDEST DUP2 ADD PUSH1 0x20 DUP6 LT ISZERO PUSH2 0x139E JUMPI DUP2 SWAP1 POP JUMPDEST PUSH2 0x13B2 PUSH2 0x13AA DUP6 PUSH2 0x126A JUMP JUMPDEST DUP4 ADD DUP3 PUSH2 0x1351 JUMP JUMPDEST POP POP JUMPDEST POP POP POP JUMP JUMPDEST PUSH1 0x0 DUP3 DUP3 SHR SWAP1 POP SWAP3 SWAP2 POP POP JUMP JUMPDEST PUSH1 0x0 PUSH2 0x13D8 PUSH1 0x0 NOT DUP5 PUSH1 0x8 MUL PUSH2 0x13BA JUMP JUMPDEST NOT DUP1 DUP4 AND SWAP2 POP POP SWAP3 SWAP2 POP POP JUMP JUMPDEST PUSH1 0x0 PUSH2 0x13F1 DUP4 DUP4 PUSH2 0x13C7 JUMP JUMPDEST SWAP2 POP DUP3 PUSH1 0x2 MUL DUP3 OR SWAP1 POP SWAP3 SWAP2 POP POP JUMP JUMPDEST PUSH2 0x140A DUP3 PUSH2 0xE1F JUMP JUMPDEST PUSH8 0xFFFFFFFFFFFFFFFF DUP2 GT ISZERO PUSH2 0x1423 JUMPI PUSH2 0x1422 PUSH2 0xBAF JUMP JUMPDEST JUMPDEST PUSH2 0x142D DUP3 SLOAD PUSH2 0x1224 JUMP JUMPDEST PUSH2 0x1438 DUP3 DUP3 DUP6 PUSH2 0x1374 JUMP JUMPDEST PUSH1 0x0 PUSH1 0x20 SWAP1 POP PUSH1 0x1F DUP4 GT PUSH1 0x1 DUP2 EQ PUSH2 0x146B JUMPI PUSH1 0x0 DUP5 ISZERO PUSH2 0x1459 JUMPI DUP3 DUP8 ADD MLOAD SWAP1 POP JUMPDEST PUSH2 0x1463 DUP6 DUP3 PUSH2 0x13E5 JUMP JUMPDEST DUP7 SSTORE POP PUSH2 0x14CB JUMP JUMPDEST PUSH1 0x1F NOT DUP5 AND PUSH2 0x1479 DUP7 PUSH2 0x1255 JUMP JUMPDEST PUSH1 0x0 JUMPDEST DUP3 DUP2 LT ISZERO PUSH2 0x14A1 JUMPI DUP5 DUP10 ADD MLOAD DUP3 SSTORE PUSH1 0x1 DUP3 ADD SWAP2 POP PUSH1 0x20 DUP6 ADD SWAP5 POP PUSH1 0x20 DUP2 ADD SWAP1 POP PUSH2 0x147C JUMP JUMPDEST DUP7 DUP4 LT ISZERO PUSH2 0x14BE JUMPI DUP5 DUP10 ADD MLOAD PUSH2 0x14BA PUSH1 0x1F DUP10 AND DUP3 PUSH2 0x13C7 JUMP JUMPDEST DUP4 SSTORE POP JUMPDEST PUSH1 0x1 PUSH1 0x2 DUP9 MUL ADD DUP9 SSTORE POP POP POP JUMPDEST POP POP POP POP POP POP JUMP JUMPDEST PUSH1 0x0 PUSH1 0x40 DUP3 ADD SWAP1 POP PUSH2 0x14E8 PUSH1 0x0 DUP4 ADD DUP6 PUSH2 0xF8C JUMP JUMPDEST DUP2 DUP2 SUB PUSH1 0x20 DUP4 ADD MSTORE PUSH2 0x14FA DUP2 DUP5 PUSH2 0xE65 JUMP JUMPDEST SWAP1 POP SWAP4 SWAP3 POP POP POP JUMP JUMPDEST PUSH32 0x416C726561647920766F74656400000000000000000000000000000000000000 PUSH1 0x0 DUP3 ADD MSTORE POP JUMP JUMPDEST PUSH1 0x0 PUSH2 0x1539 PUSH1 0xD DUP4 PUSH2 0xE2A JUMP JUMPDEST SWAP2 POP PUSH2 0x1544 DUP3 PUSH2 0x1503 JUMP JUMPDEST PUSH1 0x20 DUP3 ADD SWAP1 POP SWAP2 SWAP1 POP JUMP JUMPDEST PUSH1 0x0 PUSH1 0x20 DUP3 ADD SWAP1 POP DUP2 DUP2 SUB PUSH1 0x0 DUP4 ADD MSTORE PUSH2 0x1568 DUP2 PUSH2 0x152C JUMP JUMPDEST SWAP1 POP SWAP2 SWAP1 POP JUMP JUMPDEST PUSH32 0x496E76616C6964206F7074696F6E000000000000000000000000000000000000 PUSH1 0x0 DUP3 ADD MSTORE POP JUMP JUMPDEST PUSH1 0x0 PUSH2 0x15A5 PUSH1 0xE DUP4 PUSH2 0xE2A JUMP JUMPDEST SWAP2 POP PUSH2 0x15B0 DUP3 PUSH2 0x156F JUMP JUMPDEST PUSH1 0x20 DUP3 ADD SWAP1 POP SWAP2 SWAP1 POP JUMP JUMPDEST PUSH1 0x0 PUSH1 0x20 DUP3 ADD SWAP1 POP DUP2 DUP2 SUB PUSH1 0x0 DUP4 ADD MSTORE PUSH2 0x15D4 DUP2 PUSH2 0x1598 JUMP JUMPDEST SWAP1 POP SWAP2 SWAP1 POP JUMP JUMPDEST PUSH32 0x4E487B7100000000000000000000000000000000000000000000000000000000 PUSH1 0x0 MSTORE PUSH1 0x32 PUSH1 0x4 MSTORE PUSH1 0x24 PUSH1 0x0 REVERT JUMPDEST PUSH32 0x4E487B7100000000000000000000000000000000000000000000000000000000 PUSH1 0x0 MSTORE PUSH1 0x11 PUSH1 0x4 MSTORE PUSH1 0x24 PUSH1 0x0 REVERT JUMPDEST PUSH1 0x0 PUSH2 0x1644 DUP3 PUSH2 0xDBC JUMP JUMPDEST SWAP2 POP PUSH32 0xFFFFFFFFFFFFFFFFFFFFFFFFFFFFFFFFFFFFFFFFFFFFFFFFFFFFFFFFFFFFFFFF DUP3 SUB PUSH2 0x1676 JUMPI PUSH2 0x1675 PUSH2 0x160A JUMP JUMPDEST JUMPDEST PUSH1 0x1 DUP3 ADD SWAP1 POP SWAP2 SWAP1 POP JUMP JUMPDEST PUSH1 0x0 PUSH2 0x168C DUP3 PUSH2 0xDBC JUMP JUMPDEST SWAP2 POP PUSH2 0x1697 DUP4 PUSH2 0xDBC JUMP JUMPDEST SWAP3 POP DUP3 DUP3 SUB SWAP1 POP DUP2 DUP2 GT ISZERO PUSH2 0x16AF JUMPI PUSH2 0x16AE PUSH2 0x160A JUMP JUMPDEST JUMPDEST SWAP3 SWAP2 POP POP JUMP JUMPDEST PUSH1 0x0 PUSH1 0x40 DUP3 ADD SWAP1 POP PUSH2 0x16CA PUSH1 0x0 DUP4 ADD DUP6 PUSH2 0xE9E JUMP JUMPDEST DUP2 DUP2 SUB PUSH1 0x20 DUP4 ADD MSTORE PUSH2 0x16DC DUP2 DUP5 PUSH2 0xE65 JUMP JUMPDEST SWAP1 POP SWAP4 SWAP3 POP POP POP JUMP INVALID LOG2 PUSH5 0x6970667358 0x22 SLT KECCAK256 0xC4 0xB6 PUSH27 0xCB62DF2580975D4C059881DF545C18BCE174C77AD854BE81997074 0xCF 0x2F PUSH5 0x736F6C6343 STOP ADDMOD EQ STOP CALLER LOG2 PUSH5 0x6970667358 0x22 SLT KECCAK256 0xF7 0x49 0xEC DUP7 DELEGATECALL PUSH32 0x24D924E4B52693DAA717B40F2B8ABB0EFC11E2350B8CD51BE1DF64736F6C6343 STOP ADDMOD EQ STOP CALLER "},"methodIdentifiers":{"addVoteSession(string,string,uint256,address[])":"05beb80c","closeScrutin()":"003cd550","country()":"d8b0b499","description()":"7284e416","endTime()":"3197cbb6","getSessions()":"61503e45","isSession(address)":"dc15f9c2","owner()":"8da5cb5b","scope()":"6e62d0a8","sessionAddresses(uint256)":"973f3d65","startScrutin()":"805706ba","startTime()":"78e97925","status()":"200d2ed2","title()":"4a79d50c"}}}}}